:100000000C9443110C9474110C9474110C9474118D
:100010000C9474110C9474110C9474110C9474114C
:100020000C9474110C9474110C9474110C9474113C
:100030000C9474110C9474110C9474110C9474112C
:100040000C9474110C94884F0C9474110C947411CA
:100050000C9474110C946E930C94168F0C941D4E8A
:100060000C9474110C942E4B0C9474110C94741108
:100070000C9474110C9474110C9474110C947411EC
:100080000C9474110C9474110C9474110C947411DC
:100090000C9474110C9474110C9474110C947411CC
:1000A0000C9474110C9474110C9474110C947411BC
:1000B0000C9474110C9474110C9474110C947411AC
:1000C0000C9474110C9474110C9474110C9474119C
:1000D0000C9474110C9474110C9474110C9474118C
:1000E0000C947411644B6B4B7F4B8C4B964BB14B08
:1000F0009B4BB14BA04BA54BB14BAD4B1F4C224C76
:10010000114C154C1B4C594C264C2A4C304C344C41
:10011000384C3E4C424C464C594C4C4C504C544C38
:10012000394D3E4D434D4D4D574DD04D614D694D6F
:10013000714D7B4D854D8F4D9E4DA84DD04DB24D8F
:10014000BC4DC64D598F678F868F898F8C8F8F8F4F
:10015000928F958F988F9B8F9E8FA18FAB8F084A20
:10016000D73B3BCE016E84BCBFFDC12F3D6C7431CB
:100170009ABD56833DDA3D00C77F11BED9E4BB4C22
:100180003E916BAAAABE000000803F05A84CCDB2EC
:10019000D44EB93836A9020C50B9918688083CA6CD
:1001A000AAAA2ABE000000803F004C4556454C4993
:1001B0004E4700434F4D4D554E49434154494F4ED4
:1001C0000044525952554E004552524F5253004925
:1001D0004E464F004543484F0020746F6F206C6FB0
:1001E0006E6720657874727573696F6E20707265C2
:1001F00076656E7465640A0020636F6C64206578B0
:1002000074727573696F6E2070726576656E746551
:10021000640A003C3C3C205A5F534146455F484FCE
:100220004D494E470A005A2070726F6265206F7503
:10023000742E206265640A00203A205A5F534146BA
:10024000455F484F4D494E470A002020646573744E
:10025000696E6174696F6E3D005A5F534146455F38
:10026000484F4D494E47203E3E3E0A004732382017
:100270005A20466F7262696464656E0A003C3C3CB9
:100280002067636F64655F4732380A00203A203E7A
:100290002028686F6D655F616C6C5F6178697320A1
:1002A0007C7C20686F6D655A29203E2066696E61EE
:1002B0006C0A00202063757272656E745F706F73D4
:1002C0006974696F6E3D00203A203E20686F6D654D
:1002D000590A00202063757272656E745F706F73C7
:1002E0006974696F6E3D00203A203E20686F6D652D
:1002F000580A00202063757272656E745F706F73A8
:100300006974696F6E3D005261697365205A2028D7
:100310006265666F726520686F6D696E672920740B
:100320006F20003E20656E6473746F70732E656E6F
:1003300061626C652874727565290A003E3E3E2034
:1003400067636F64655F4732380A00205A3A2000BD
:1003500020593A200042656420583A2000256973EC
:100360000025696D20256973002569682025696D60
:100370002025697300256964202569682025696D39
:10038000202569730025697920256964202569681D
:100390002025696D20256973005072696E74207480
:1003A000696D653A200050726F74656374656420EE
:1003B00050696E0A00D401CF01C801C101B301AA7E
:1003C000016F66660044454255473A004D3131336E
:1003D0002053006F6B003F0A0020573A00464952F5
:1003E0004D574152455F4E414D453A4D61726C69E2
:1003F0006E20312E312E322D524338202847697419
:100400006875622920534F555243455F434F444519
:100410005F55524C3A68747470733A2F2F67697441
:100420006875622E636F6D2F526F626F33442F4D6C
:1004300061726C696E2D43322050524F544F434FBE
:100440004C5F56455253494F4E3A312E30204D4164
:100450004348494E455F545950453A526F626F4385
:10046000322045585452554445525F434F554E54DF
:100470003A3120555549443A6365646532613266C4
:100480002D343161322D343734382D396231322DEB
:100490006335356336326633363766660A007A5F0F
:1004A0006D61783A20007A5F6D696E3A2000795F5D
:1004B0006D61783A2000785F6D696E3A2000526570
:1004C000706F7274696E6720656E6473746F7020EC
:1004D0007374617475730A0053657474696E672070
:1004E00054726176656C20416363656C65726174FA
:1004F000696F6E3A200053657474696E67205265A7
:10050000747261637420416363656C6572617469C0
:100510006F6E3A200053657474696E67205072697B
:100520006E7420416363656C65726174696F6E3AC5
:10053000200053657474696E67205072696E742070
:10054000616E642054726176656C20416363656CF2
:1005500065726174696F6E3A2000205A002059005C
:10056000580020204D61783A2000205A0020590080
:10057000580020204D696E3A20004F6E20004F66D3
:100580006600536F667420656E6473746F70733A9F
:10059000200020643A0020693A0020703A00432984
:1005A0000A0061626C656420286D696E2074656D57
:1005B000702000436F6C6420657874727564657395
:1005C00020617265200023646566696E65202044A1
:1005D000454641554C545F4B642000236465666971
:1005E0006E65202044454641554C545F4B692000C0
:1005F00023646566696E65202044454641554C5428
:100600005F4B702000504944204175746F74756EC3
:10061000652066696E697368656421205075742071
:10062000746865206C617374204B702C204B6920BA
:10063000616E64204B6420636F6E7374616E7473BB
:100640002066726F6D2062656C6F7720696E746FC3
:1006500020436F6E66696775726174696F6E2E688C
:100660000A00504944204175746F74756E652066A8
:1006700061696C6564212074696D656F75740A0029
:10068000504944204175746F74756E6520666169C8
:100690006C6564212054656D706572617475726556
:1006A00020746F6F20686967680A00204B643A20E5
:1006B00000204B693A2000204B703A20000A20436A
:1006C0006C617373696320504944200A002054759B
:1006D0003A2000204B753A2000206D61783A2000C6
:1006E000206D696E3A200020643A20002062696122
:1006F000733A2000546F6F206661722066726F6DCE
:10070000207265666572656E636520706F696E74D0
:100710000A00206279746573290A0053657474694C
:100720006E67732053746F7265642028003A20004E
:100730007A5F6D61783A20007A5F6D696E3A2000C9
:100740005A204F666673657400416476616E636516
:1007500020666163746F723A200041637469766544
:100760002045787472756465723A20003C3C3C20E8
:1007700067636F64655F540A00203A204146544520
:10078000520A00202063757272656E745F706F7319
:100790006974696F6E3D00203A204245464F5245CC
:1007A0000A00202063757272656E745F706F7369E2
:1007B00074696F6E3D003E3E3E2067636F64655F07
:1007C000542800556E6B6E6F776E20636F6D6D6190
:1007D0006E643A2022003C3C3C2067636F64655F96
:1007E0004732390A00203A2047323920636F72724B
:1007F00065637465642058595A0A00202063757235
:1008000072656E745F706F736974696F6E3D0020FE
:100810002044697363726570616E63793A002020C9
:100820004D61747269783A005A2066726F6D20507B
:10083000726F62653A00203A2047323920756E6344
:100840006F727265637465642058595A0A002020DB
:1008500063757272656E745F706F736974696F6EC1
:100860003D00202B000A436F72726563746564203B
:10087000426564204865696768742076732E20425B
:10088000656420546F706F6C6F67793A0A00202B93
:10089000000A4265642048656967687420546F7077
:1008A0006F6772617068793A0A2020202B2D2D2DF8
:1008B000204241434B202D2D2B0A2020207C20203C
:1008C0002020202020202020207C0A204C207C205A
:1008D000202020282B29202020207C20520A20455F
:1008E000207C20202020202020202020207C204927
:1008F0000A2046207C20282D29204E20282B292024
:100900007C20470A2054207C2020202020202020EA
:100910002020207C20480A2020207C202020202805
:100920002D29202020207C20540A2020207C2020DB
:100930002020202020202020207C0A2020204F2D35
:100940002D2046524F4E54202D2D2B0A2028302C7E
:1009500030290A004D65616E206F662073616D70ED
:100960006C656420706F696E74733A200020643A7D
:10097000200020623A200045716E20636F65666634
:10098000696369656E74733A20613A2000203A20E9
:100990003E2070726F62696E6720636F6D706C6568
:1009A00074650A00202063757272656E745F706FE3
:1009B000736974696F6E3D0028422961636B00287A
:1009C0004629726F6E74002852296967687400287E
:1009D0004C29656674003F4E756D626572206F66C6
:1009E0002070726F626520706F696E747320697316
:1009F00020696D706C61757369626C6520283220A6
:100A00006D696E696D756D292E0A0052756E6E697D
:100A10006E6720696E204452592D52554E206D6FDD
:100A200064650A00473239204175746F204265645D
:100A3000204C6576656C696E670A003F285629650B
:100A400072626F7365204C6576656C2069732069EE
:100A50006D706C61757369626C652028302D342966
:100A60002E0A00203A203E3E3E2067636F64655F99
:100A70004732390A00202063757272656E745F70A8
:100A80006F736974696F6E3D004B494C4C45442E41
:100A9000200029002C20002C20002800203A207360
:100AA000796E635F706C616E5F706F736974696F8C
:100AB0006E0A00202063757272656E745F706F73CA
:100AC0006974696F6E3D00656E7175657565696EF7
:100AD000672022004E6F204C696E65204E756D6256
:100AE0006572207769746820636865636B73756DE0
:100AF0002C204C617374204C696E653A2000507252
:100B0000696E7465722073746F70706564206475AB
:100B10006520746F206572726F72732E204669783B
:100B200020746865206572726F7220616E64207532
:100B30007365204D39393920746F20726573746183
:100B400072742E202854656D7065726174757265BB
:100B50002069732072657365742E20536574206953
:100B60007420616674657220726573746172746951
:100B70006E67290A004E6F20436865636B73756D5D
:100B80002077697468206C696E65206E756D62658A
:100B9000722C204C617374204C696E653A2000639E
:100BA0006865636B73756D206D69736D61746368DF
:100BB0002C204C617374204C696E653A20004C699E
:100BC0006E65204E756D626572206973206E6F745C
:100BD000204C617374204C696E65204E756D6265A2
:100BE000722B312C204C617374204C696E653A2055
:100BF000004D31313000776169740A0020496E760A
:100C0000616C696420657874727564657220000A8D
:100C100020736F66745F656E6473746F705F6D616F
:100C200078203D20000A20736F66745F656E6473E0
:100C3000746F705F6D696E203D20000A20706F73C5
:100C40006974696F6E5F7368696674203D20002067
:100C5000617869733A0A20686F6D655F6F666673C5
:100C60006574203D2000466F7220000000F44200B1
:100C700000F84200001A43000000000000000000DD
:100C80000000003C3C3C20646F5F626C6F636B69EA
:100C90006E675F6D6F76655F746F0A003E3E3E2043
:100CA000646F5F626C6F636B696E675F6D6F7665B3
:100CB0005F746F0000002100240027002A002D002F
:100CC0003000330001010000040107010A010000A7
:100CD0002200250028002B002E00310034000201E4
:100CE0000000050108010B01000020002300260080
:100CF00029002C002F003200000100000301060132
:100D00000901050505050705080808080202020291
:100D10000A0A080804040404010101010101010197
:100D20000303030303030303040707070C0C0C0C62
:100D30000C0C0C0C0202020206060606060606064B
:100D40000B0B0B0B0B0B0B0B0102102020080810D8
:100D5000204010204080020102010804020101022B
:100D60000408102040808040201008040201800404
:100D7000020180402010080402010804020101025F
:100D80000408102040800102040810204080000068
:100D90000A0B02090C0D0E080703040100000000F5
:100DA0000000000000000000000000000000000043
:100DB0000000000000000000000012111000000000
:100DC0000000000000000000000000000000000023
:100DD000000000004B494C4C45442E2000202D20A3
:100DE000496E76616C6964206578747275646572A9
:100DF000206E756D62657220210A004572726F72F5
:100E00003A002020506C616E6E65724275666665B0
:100E10007242797465733A20002046726565204DF0
:100E2000656D6F72793A2000436F6D70696C65640F
:100E30003A2046656220313720323031370A0020AF
:100E40007C20417574686F723A2028726F626F2C33
:100E500020433220636F6E666967290A00323031A1
:100E6000362D31322D30362031323A303000204CA0
:100E700061737420557064617465643A2000312E8A
:100E8000312E322D5243380A004D61726C696E006A
:100E900020536F6674776172652052657365740ABA
:100EA00000205761746368646F67205265736574CE
:100EB0000A002042726F776E206F7574205265733E
:100EC00065740A002045787465726E616C20526505
:100ED0007365740A00506F77657255700A007374F9
:100EE0006172740A00205A3A0020593A0020583A98
:100EF00000656E6473746F7073206869743A2000C3
:100F000024F4D43050C38E20C2A24017828B7011BB
:100F1000127A910D816CD90AA861E108C758660759
:100F2000615143061E4B5D05C145A7041A411104DA
:100F3000093D9803713931034036DB026533910274
:100F4000D4305402802E1D02632CEE01752AC50197
:100F5000B028A001102781018F2564012B244B01AB
:100F6000E0223401AC211F018D200D01801FFC0007
:100F7000841EED00971DDF00B81CD200E61BC600E2
:100F8000201BBC00641AB200B219A8000A19A00004
:100F90006A189900D117910040178B00B51684008C
:100FA00031167E00B31579003A157300C7146F002F
:100FB00058146A00EE1366008813630025135E0060
:100FC000C7125B006C12570015125400C11151007A
:100FD00070114F0021114B00D61049008D104700B1
:100FE0004610440002104200C00F4000800F3E0037
:100FF000420F3C00060F3B00CB0E3800930E37002B
:101000005C0E3500270E3400F30D3200C10D3100A7
:10101000900D3000600D2E00320D2D00050D2C00BE
:10102000D90C2B00AE0C2900850C29005C0C270084
:10103000350C27000E0C2600E80B2400C40B2400FE
:10104000A00B23007D0B23005A0B2100390B21003C
:10105000180B2000F80A1F00D90A1E00BB0A1E0048
:101060009D0A1D00800A1D00630A1C00470A1B0020
:101070002C0A1B00110A1A00F7091A00DD091900D1
:10108000C4091900AB091900920917007B0918005F
:10109000630917004C0916003609160020091600CE
:1010A0000A091500F5081500E0081400CC08140022
:1010B000B8081400A4081400900813007D0812005A
:1010C0006B0813005808120046081200340811007B
:1010D000230811001208110001081100F007100088
:1010E000E0071000D0071000C0071000B0070F0085
:1010F000A107100091070E0083070F0074070F006F
:1011000065070E0057070E0049070E003B070D004C
:101110002E070E0020070D0013070D0006070D0017
:10112000F9060C00ED060D00E0060C00D4060C00DC
:10113000C8060C00BC060C00B0060C00A4060B0090
:1011400099060C008D060B0082060B0077060B003B
:101150006C060B0061060A0057060B004C060A00DD
:1011600042060A0038060A002E060A0024060A0073
:101170001A060A001006090007060A00FD05090004
:10118000F4050900EB050900E2050900D90509008D
:10119000D0050900C7050900BE050900B50508000E
:1011A000AD050800A50509009C0508009405080088
:1011B0008C050800840508007C05080074050800FB
:1011C0006C050700650508005D0507005605080069
:1011D0004E050700470507004005080038050700D1
:1011E000310507002A050700230507001C05060036
:1011F000160507000F050700080506000205070091
:10120000FB040600F5040700EE040600E8040600EF
:10121000E2040700DB040600D5040600CF04060044
:10122000C9040600C3040600BD040600B704060096
:10123000B1040500AC040600A6040600A0040500E5
:101240009B04060095040500900406008A0405002E
:1012500085040500800406007A0405007504050075
:10126000700405006B0405006604050061040500B8
:101270005C04050057040500520405004D040500F8
:1012800048040500430405003E0404003A04050038
:1012900035040500300404002C0405002704040074
:1012A000230405001E0404001A04040016040500AB
:1012B000110404000D0404000904050004040400E2
:1012C00000040400FC030400F8030400F403040019
:1012D000F0030400EC030400E8030400E40304004A
:1012E000E0030400DC030400D8030400D40304007A
:1012F000D0030400CC030400C8030300C5030300AB
:1013000024F404D9201BC40C5C0E9804C4095F02A9
:1013100065077101F405F900FB04B3004804870078
:10132000C10369005803550003034500BE023A009B
:101330008402310053022A00290225000402200001
:10134000E4011C00C8011900AF0117009801140046
:1013500084011300710110006101100051010E00A1
:1013600043010D0036010B002B010B0020010B0087
:10137000150109000C01090003010800FB00080029
:10138000F3000800EB000700E4000600DE000600A2
:10139000D8000600D2000600CC000500C7000500FA
:1013A000C2000500BD000400B9000400B50004003F
:1013B000B1000400AD000400A9000400A500030072
:1013C000A20003009F0004009B000300980003009C
:1013D0009500020093000300900003008D000200BE
:1013E0008B000300880002008600020084000300D6
:1013F000810002007F0002007D0002007B000200ED
:1014000079000200770001007600020074000200FB
:1014100072000100710002006F0002006D00010007
:101420006C0002006A000100690002006700010010
:101430006600010065000100640002006200010016
:1014400061000100600001005F0002005D0001001A
:101450005C0001005B0001005A000100590001001E
:10146000580001005700010056000100550001001E
:10147000540001005300000053000100520001001D
:1014800051000100500001004F0001004E0000001B
:101490004E0001004D0001004C0001004B00000017
:1014A0004B0001004A000100490001004800000013
:1014B000480001004700010046000000460001000E
:1014C0004500000045000100440001004300000009
:1014D0004300010042000000420001004100000002
:1014E00041000100400001003F0000003F000100FA
:1014F0003E0000003E0001003D0000003D000100F4
:101500003C0000003C0000003C0001003B000000EB
:101510003B0001003A0000003A00010039000000E1
:1015200039000100380000003800000038000100D8
:1015300037000000370001003600000036000000D0
:1015400036000100350000003500000035000100C4
:1015500034000000340000003400010033000000BB
:1015600033000000330001003200000032000000B0
:1015700032000100310000003100000031000100A4
:101580003000000030000000300001002F0000009B
:101590002F0000002F0000002F0001002E0000008F
:1015A0002E0000002E0001002D0000002D00000084
:1015B0002D0000002D0001002C0000002C00000078
:1015C0002C0000002C0001002B0000002B0000006C
:1015D0002B0000002B0001002A0000002A00000060
:1015E0002A0000002A000100290000002900000054
:1015F0002900000029000000290001002800000047
:101600002800000028000000280000002800010039
:10161000270000002700000027000000270000002E
:101620002700010026000000260000002600000020
:101630002600000026000100250000002500000013
:101640002500000025000000250000002500010005
:1016500024000000240000002400000024000000FA
:1016600024000100230000002300000023000000EC
:1016700023000000230000002300000023000100DD
:1016800022000000220000002200000022000000D2
:1016900022000000220001002100000021000000C3
:1016A00021000000210000002100000021000000B6
:1016B00021000100200000002000000020000000A8
:1016C000200000002000000020000000200000009A
:1016D000200001001F0000001F0000001F0000008C
:1016E0001F0000001F0000001F0000001F0001007D
:1016F0001E0000001E0000001E0000001E00000072
:10170000203A2073657475705F666F725F656E64F2
:1017100073746F705F6F725F70726F62655F6D6F11
:1017200076650A00202063757272656E745F706F53
:10173000736974696F6E3D00203A20636C65616E59
:101740005F75705F61667465725F656E6473746FF8
:10175000705F6F725F70726F62655F6D6F76650A42
:1017600000202063757272656E745F706F736974A8
:10177000696F6E3D006465706C6F793A2000203AA5
:10178000207365745F70726F62655F6465706C6F03
:101790007965640A00202063757272656E745F70EB
:1017A0006F736974696F6E3D00204469736372657D
:1017B00070616E63793A00326E642050726F6265B8
:1017C000205A3A00203A203C3C3C2072756E5F7AE9
:1017D0005F70726F62650A00202063757272656EB9
:1017E000745F706F736974696F6E3D00317374203C
:1017F00050726F6265205A3A00203A203E3E3E20E9
:1018000072756E5F7A5F70726F62650A0020206386
:10181000757272656E745F706F736974696F6E3D17
:10182000003C3C3C2070726F62655F70740A00205F
:101830005A3A200020593A200042656420583A2044
:1018400000203A200A00202063757272656E745F72
:10185000706F736974696F6E3D0073746F77290AD6
:10186000002C20002C20003E3E3E2070726F6265EE
:101870005F7074280072657365745F6265645F6C85
:101880006576656C0A003C3C3C20646F5F686F6D58
:10189000696E675F6D6F766528002C20002C200034
:1018A0003E3E3E20646F5F686F6D696E675F6D6F6F
:1018B0007665280047322F473320626164207061CB
:1018C00072616D65746572730A00205A00205900B8
:1018D00041424C2041646A7573746D656E74205882
:1018E000002028656E61626C6564290A004C494ECF
:1018F000454152004175746F20426564204C657605
:10190000656C696E673A2000204E6F7A7A6C6529A3
:101910000A0020262041626F766500202620536150
:101920006D65205A2061730020262042656C6F7718
:10193000002D4261636B0020284D6964646C650072
:10194000205A3A0020593A0050726F6265204F6663
:101950006673657420583A004649585F4D4F554E9E
:101960005445445F50524F42450A0050726F6265C1
:101970003A200043617274657369616E0A004D61BB
:101980006368696E6520547970653A200020706F35
:10199000736974696F6E206F7574206F6620726151
:1019A0006E67652E0A003F50726F626520005374A7
:1019B000616E6461726420446576696174696F6EFA
:1019C0003A20002052616E67653A2000204D617810
:1019D0003A2000204D696E3A20004D65616E3A2034
:1019E0000046696E697368656421002072616E67E4
:1019F000653A2000206D61783A2000206D696E3ACA
:101A00002000207369676D613A2000206D65616E6A
:101A10003A20003A207A3A2000206F662000205AAF
:101A200000205900205800476F696E6720746F3A94
:101A300000436C6F636B776973650A00436F756E63
:101A40007465722D0020446972656374696F6E3A23
:101A50002000202020616E676C653A20005374617D
:101A60007274696E67207261646975733A20005000
:101A70006F736974696F6E696E6720746865207032
:101A8000726F62652E2E2E0A003F4E756D62657272
:101A9000206F66206C65677320696E206D6F7665B8
:101AA0006D656E74206E6F7420706C617573696201
:101AB0006C652028302D3135292E0A005900580038
:101AC0003F53616D706C652073697A65206E6F7429
:101AD00020706C61757369626C652028342D353017
:101AE000292E0A004D3438205A2D50726F6265201D
:101AF0005265706561746162696C697479205465BE
:101B000073740A003F566572626F7365204C657688
:101B1000656C206E6F7420706C61757369626C65A2
:101B20002028302D34292E0A0020403A00202F0092
:101B300020543A00205A3A0020593A0020436F7549
:101B40006E7420583A200020453A00205A3A00206E
:101B5000593A00583A0020746F6F206C6F6E6720FE
:101B6000657874727573696F6E2070726576656ED4
:101B70007465640A0020636F6C6420657874727504
:101B800073696F6E2070726576656E7465640A00A5
:101B9000454550524F4D20636865636B73756D20EA
:101BA0006D69736D617463680A002062797465738E
:101BB000290A002073746F726564207365747469F8
:101BC0006E6773207265747269657665642028009B
:101BD00048617264636F6465642044656661756C16
:101BE000742053657474696E6773204C6F6164650B
:101BF000640A0020204D383531205A005A2D507289
:101C00006F6265204F666673657420286D6D293A92
:101C10000A0020204D3230302044300A0020204D70
:101C20003230302044002044697361626C65640A7C
:101C30000046696C616D656E742073657474696EBD
:101C400067733A0020440020490020204D33303192
:101C50002050005049442073657474696E67733A6C
:101C60000A00205A0020590020204D3230362058DA
:101C700000486F6D65206F666673657420286D6D12
:101C8000290A00204500205A002059002058002031
:101C9000420020540020204D323035205300416452
:101CA00076616E636564207661726961626C6573EA
:101CB0003A20533D4D696E206665656472617465B6
:101CC00020286D6D2F73292C20543D4D696E207492
:101CD000726176656C206665656472617465202842
:101CE0006D6D2F73292C20423D6D696E696D756D88
:101CF000207365676D656E742074696D6520286D4D
:101D000073292C20583D6D6178696D756D20585987
:101D1000206A65726B20286D6D2F73292C20205A44
:101D20003D6D6178696D756D205A206A65726B2012
:101D3000286D6D2F73292C2020453D6D6178696DCC
:101D4000756D2045206A65726B20286D6D2F732993
:101D50000A0020540020520020204D323034205000
:101D600000416363656C65726174696F6E733A20DC
:101D7000503D7072696E74696E672C20523D7265B9
:101D8000747261637420616E6420543D7472617674
:101D9000656C0A00204500205A0020590020204D83
:101DA0003230312058004D6178696D756D20416386
:101DB00063656C65726174696F6E20286D6D2F7339
:101DC00032293A0A00204500205A002059002020DC
:101DD0004D3230332058004D6178696D756D206645
:101DE000656564726174657320286D6D2F73293A7F
:101DF0000A00204500205A0020590020204D393289
:101E000020580053746570732070657220756E6978
:101E1000743A0A00526573656E643A20006F6B0075
:101E2000627573793A2070617573656420666F72AC
:101E300020696E7075740A00627573793A2070615A
:101E40007573656420666F7220757365720A00622F
:101E50007573793A2070726F63657373696E670A80
:101E6000004B494C4C45442E20005072696E7465FD
:101E7000722068616C7465642E206B696C6C282913
:101E80002063616C6C6564210A003C3C3C207365F6
:101E9000745F617869735F69735F61745F686F6DA8
:101EA000652800203A200A00202063757272656E52
:101EB000745F706F736974696F6E3D005D203D20C3
:101EC000003E20686F6D655F6F66667365745B00CA
:101ED0003E207A70726F62655F7A6F6666736574B2
:101EE000203D20002A2A2A205A20484F4D454420D0
:101EF000574954482050524F424520285A5F4D4977
:101F00004E5F50524F42455F555345535F5A5F4DA8
:101F1000494E5F454E4453544F505F50494E29201F
:101F20002A2A2A0A00000000000000F842000000EF
:101F3000003E3E3E207365745F617869735F69732C
:101F40005F61745F686F6D6528005761726E696EBE
:101F5000673A20486F6D696E672042756D70204446
:101F6000697669736F72203C20310A003C3C3C204A
:101F7000686F6D65617869732800203A203E2041C2
:101F800046544552207365745F617869735F697365
:101F90005F61745F686F6D650A00202063757272FF
:101FA000656E745F706F736974696F6E3D00486F22
:101FB0006D65203220536C6F773A0A004D6F76655D
:101FC00020417761793A0A000000A0400000A0405B
:101FD000000000400000F4420000F84200001A43F4
:101FE000486F6D65203120466173743A0A00FF0125
:101FF000FF3E3E3E20686F6D65617869732800453D
:1020000072726F722077726974696E6720746F20C4
:10201000454550524F4D210A0070012C0190012777
:1020200001B0012201C0011D01F0011801100213CD
:102030000130020E016002090190020401C002FF9A
:10204000000003FA004003F5008003F000D003EB2A
:10205000002004E6007004E100E004DC004005D745
:1020600000C005D2004006CD00D006C8008007C3DE
:10207000003008BE00F008B900C009B400B00AAFD3
:1020800000B00BAA00D00CA500000EA000500F9BC2
:1020900000C01096005012910000148C00C01587EB
:1020A00000B0178200B0197D00D01B7800001E73AD
:1020B0000040206E0090226900F024640040275FF9
:1020C0000090295A00E02B5500102E500020304B74
:1020D0000010324600E033410090353C00103737A5
:1020E0000070383200A0392D00B03A2800A03B2300
:1020F00000603C1E00103D1900903D1400103E0F82
:1021000000703E0A00C03E0500003F0000203A205B
:102110003C3C3C20646F5F70726F62655F6D6F76F0
:10212000650A00202063757272656E745F706F734C
:102130006974696F6E3D00203A203E3E3E20646F18
:102140005F70726F62655F6D6F76650A0020206355
:10215000757272656E745F706F736974696F6E3DCE
:1021600000646F5F70726F62655F7261697365288A
:10217000002066697273740A005A005900580048BA
:102180006F6D6520006563686F3A006265640A00E0
:102190002C2073797374656D2073746F707065642F
:1021A00021204865617465725F49443A2000457298
:1021B000723A204D415854454D50004D41585445B8
:1021C0004D5020747269676765726564004572726C
:1021D0003A204D494E54454D50004D494E54454DC1
:1021E000502074726967676572656400544845528F
:1021F0004D414C2052554E4157415900546865722B
:102200006D616C2052756E6177617900486561740B
:10221000696E67206661696C656400486561746910
:102220006E67206661696C65640048656174696EFB
:1022300067206661696C65640048656174696E67F2
:10224000206661696C6564004E414E494E4954599F
:10225000494E46CDCCCC3D0AD7233C17B7D1387771
:10226000CC2B329595E6241FB14F0A000020410087
:1022700000C84200401C4620BCBE4CCA1B0E5AAED1
:10228000C59D7400EC9811241FBECFEFD1E2DEBFD4
:10229000CDBF00E00CBF13E0A0E0B2E0E4ECFDE451
:1022A00001E00BBF02C007900D92A839B107D9F722
:1022B0002DE0A8E9B3E001C01D92AA32B207E1F710
:1022C00011E1C3E4D1E100E006C021970109802FAC
:1022D000FE010E94029BC234D10780E00807A9F7E3
:1022E0000E94C5930C94E0A60C9400002F923F929C
:1022F0004F925F926F927F928F929F92AF92BF9216
:10230000CF92DF92EF92FF920F931F93CF93DF93C1
:10231000CDB7DEB7C656D1090FB6F894DEBF0FBEF3
:10232000CDBF0091C20520E6029F8001112408550F
:102330001C4F109329050093280580913F0C80FFC6
:1023400018C0E5E8F1E284917F013FEFE31AF30A58
:10235000882321F00E94B244F701F5CFD8018D9176
:102360008D01882319F00E94B244F8CF8AE00E94C0
:10237000B2442091280530912905F90180812F5F11
:102380003F4F8032D1F3F0932905E09328058E3436
:1023900069F010912805009129056AE270E0812F0B
:1023A000902F0E94F69D0097D1F420C0818190ED7E
:1023B000980F9A3010F08D3261F73296DF01319626
:1023C0002C9120532A30D0F3CD01FC0101962081BD
:1023D0002032D9F3F0932905E0932805DACFFC01E8
:1023E00031968291803231F08A3221F0A12FB02FC4
:1023F0009D9102C01082F5CFFD018081119680323F
:10240000D9F380538A3020F0E5E8F1E20C94DD281E
:1024100000E010E02AE0209FB001219F700D112400
:102420008B01005311098191080F111D87FD1A9529
:10243000808180538A3078F37F013196D7018C9167
:102440008032D1F3F092A703E092A60321E030E0BE
:102450003093E50B2093E40B9D3409F477C5943554
:1024600011F40C947628973411F00C94BF280C3199
:10247000110509F45BC168F40430110520F4023041
:10248000110500F115C10430110509F41AC10C94AD
:10249000D4280A35110509F4D9C450F40D311105B9
:1024A00009F4FCC30E31110509F4FCC30C94D428C3
:1024B0000B35110509F4CEC40C35110509F4BCC364
:1024C0000C94D42880914802882311F40C94D428C9
:1024D0000E94D85A8EEE9BE00E9489890E94A744F0
:1024E00080913F0C83FD93C0C090FA0BD090FB0B02
:1024F000E090FC0BF090FD0B20911F0C3091200C14
:102500004091210C5091220CC701B6010E94A8A253
:10251000882309F47CC080910F0B811134C0209175
:1025200023023091240240912502509126026091AD
:102530004B0C70914C0C80914D0C90914E0C0E9464
:10254000A8A287FF20C0C0921F0CD092200CE0925E
:10255000210CF092220CE5E8F1E284918F010F5FEB
:102560001F4F882321F00E94B244F801F6CFE8EF14
:10257000F1E084918F010F5F1F4F882321F00E94AB
:10258000B244F801F6CFC090FA0BD090FB0BE0906C
:10259000FC0BF090FD0B20911F0C3091200C409112
:1025A000210C5091220CC701B6010E940A9B0E9487
:1025B000689C97FF07C090958095709561957F4FB7
:1025C0008F4F9F4F693C71058105910504F1C092C1
:1025D0001F0CD092200CE092210CF092220CE5E826
:1025E000F1E284918F010F5F1F4F882321F00E9439
:1025F000B244F801F6CFE9EDF1E084918F010F5F6D
:102600001F4F882321F00E94B244F801F6CF209199
:10261000EE0B3091EF0B4091F00B5091F10B60916C
:10262000130C7091140C8091150C9091160C0E9453
:10263000A8A281111DC02091F20B3091F30B4091A3
:10264000F40B5091F50B6091170C7091180C809160
:10265000190C90911A0C0E94A8A2811109C06091D6
:1026600000027091010280910202909103021AC04F
:102670006091060270910702072E000C880B990BDF
:102680000E94AEA22091000230910102409102020C
:10269000509103020E940DA32AE037ED43E25CE370
:1026A0000E940DA30E9482430E9478430C94D42878
:1026B00081E00230110509F080E00E944C5B0C942F
:1026C000D42880E50E94DD43882329F00E946444D9
:1026D0006B017C0103C0C12CD12C760183E50E94E3
:1026E000DD43882321F00E9498446B017C010E9405
:1026F00064930E94A7448091E60B9091E70BA09110
:10270000E80BB091E90BC80ED91EEA1EFB1E0E9411
:10271000114EDC01CB018C199D09AE09BF09B7FD33
:1027200002C00C94D4280E94E586F1CF80913F0C22
:1027300085FF0EC0ECE3F3E084918F010F5F1F4F24
:10274000882321F00E94B244F801F6CF0E946E590E
:102750000E9464930E9487610E94346480913F0CC0
:1027600085FF0CC0E3E2F3E084918F010F5F1F4F00
:10277000882321F00E94B244F801F6CF11E01093B3
:10278000110288E50E94DD43A82E89E50E94DD4301
:10279000082F8AE50E94DD43982EA11005C0011183
:1027A00005C0982F912705C0011102C090E001C01B
:1027B000982F9093040280E1E3E1FCE0AEEEBBE0F1
:1027C00001900D928A95E1F7911105C0A11003C007
:1027D000002309F44AC020E030E040E251E4609177
:1027E0003B0C70913C0C80913D0C90913E0C0E94F2
:1027F0000B9B20912F0C3091300C4091310C50915B
:10280000320C0E940B9B6B017C016093F60B709362
:10281000F70B8093F80B9093F90B20911B0C3091E0
:102820001C0C40911D0C50911E0C0E94539D1816BB
:10283000E4F480913F0C85FF09C0B701A60187E051
:1028400093E00E9466488AE00E94B24419821A828C
:102850001B821C829E012F5F3F4F46EF5BE067E1CA
:102860007CE083E19CE00E94934980910402811105
:1028700006C0AA2009F4A4C0002309F4A1C0109244
:10288000170C1092180C1092190C10921A0C10922E
:10289000130C1092140C1092150C1092160C0E942E
:1028A000D24AEEEEFFE1149184ED9FE10E94A14433
:1028B0002B013C0188ED9FE10E94A1446B017C014A
:1028C0009B01AC01C301B2010E94539D18162CF468
:1028D000A3019201C701B60104C0A7019601C3017B
:1028E000B2010E94F79B9B01AC010E940DA320E066
:1028F00030E040E85FE30E940B9B0E949C9D20E03B
:1029000030E048E452E40E940DA36A8F7B8F8C8FE5
:102910009D8FEFEEFFE1B49020E030E040EC5FE30C
:10292000C701B6010E940DA36B017C016B2DBB0C8E
:10293000770B880B990B0E94AEA29B01AC01C701DB
:10294000B6010E940DA369837A838B839C8320E068
:1029500030E040EC5FE3C301B2010E940DA36B01C4
:102960007C01612F110F770B880B990B0E94AEA28F
:102970009B01AC01C701B6010E940DA36E8B7F8B3A
:10298000888F998F9E01265E3F4F4BE15CE0BE0130
:102990006F5F7F4FCE0146960E9493491092120CB2
:1029A0001092170C1092180C1092190C10921A0C0D
:1029B0001092130C1092140C1092150C1092160C0D
:1029C00080910402811102C0AA2081F080E090E091
:1029D0000E94868480913F0C85FF08C043E15CE043
:1029E00067EE72E083EF92E00E94B34A80910402A6
:1029F000811102C0002381F081E090E00E94868472
:102A000080913F0C85FF08C043E15CE067EC72E019
:102A100083ED92E00E94B34A80910402811103C0C9
:102A2000992009F4F1C080919E05811103C0E5E869
:102A3000F1E205C080919F05811118C0F8CF849103
:102A40008F010F5F1F4F882321F00E94B244F801CD
:102A5000F6CFECE6F2E084918F010F5F1F4F8823E1
:102A600009F4C6C00E94B244F801F5CF80913F0C32
:102A700085FF0CC0E9E5F2E084918F010F5F1F4FE5
:102A8000882321F00E94B244F801F6CF0E94D24A76
:102A900020E030E044E752E46091330C7091340C54
:102AA0008091350C9091360C0E940B9B2091270C45
:102AB0003091280C4091290C50912A0C0E940B9BBC
:102AC0006093EE0B7093EF0B8093F00B9093F10BF0
:102AD00020E030E048E752E46091370C7091380C08
:102AE0008091390C90913A0C0E940B9B20912B0CF9
:102AF00030912C0C40912D0C50912E0C0E940B9B70
:102B00006B017C016093F20B7093F30B8093F40BD9
:102B10009093F50B80911B0C90911C0CA0911D0CB7
:102B2000B0911E0C8093F60B9093F70BA093F80BCB
:102B3000B093F90B8EEE9BE00E94728C882381F19A
:102B400020E030E040EE51E4C701B6010E940A9B4C
:102B50006093F20B7093F30B8093F40B9093F50B4F
:102B600080913F0C85FF08C04EEE5BE068E372E0A9
:102B70008AE492E00E94B34A19821A821B821C8264
:102B80009E012F5F3F4F4BE15CE062EF7BE08EEEFA
:102B90009BE00E94934982E090E00E94868418C0E6
:102BA000E5E8F1E284918F010F5F1F4F882321F048
:102BB0000E94B244F801F6CFE6E2F2E084918F0180
:102BC0000F5F1F4F882321F00E94B244F801F6CF17
:102BD00080913F0C85FF0CC0E3E1F2E084918F010E
:102BE0000F5F1F4F882321F00E94B244F801F6CFF7
:102BF00080913F0C85FF08C043E15CE06CE872E027
:102C000083EB92E00E94B34A0E94D24A8091310243
:102C1000809311020E940E6480913F0C85FF3AC0A0
:102C2000EDE7F2E084918F010F5F1F4F882391F150
:102C30000E94B244F801F6CF85E40E94DD43B82E2D
:102C4000811102C00E9464931CEF812E12E0912E2C
:102C500003E1C02E0CE0D02E87E2E82E8CE0F82EA7
:102C600000E010E0A12CF40181914F010E94DD43AE
:102C70008111F5C00F5F1F4FF4E0CF0ED11C24E08F
:102C8000E20EF11C0430110571F7AA2009F425C1E8
:102C90000E94D24A0E9460640C94D4280E94102B97
:102CA0000C94D42888E50E94DD43882319F00E9403
:102CB0006F440DC020E030E0A9016091130C7091C9
:102CC000140C8091150C9091160C0E940B9B6A8F2E
:102CD0007B8F8C8F9D8F89E50E94DD43882319F0BF
:102CE0000E946F440EC020E030E040EE51E460915D
:102CF000170C7091180C8091190C90911A0C0E946D
:102D00000B9B6E8B7F8B888F998F0A8D1B8D2C8DE3
:102D10003D8D09831A832B833C836D837E838F8350
:102D2000988720E030E0A90160913B0C70913C0C49
:102D300080913D0C90913E0C0E940B9B20912F0C9A
:102D40003091300C4091310C5091320C0E940B9B11
:102D500069877A878B879C87CE0101960E94728C47
:102D6000882311F40C94D42883E50E94DD43882342
:102D700021F00E941F44482F01C041E080E0A59649
:102D80004FAFA5970E94E9610E94346421E030E0D2
:102D9000A5964FADA597BE016A5E7F4FCE014A96BC
:102DA0000E945A626B017C01E5E5F3E084918F019A
:102DB0000F5F1F4F882321F00E94B244F801F6CF25
:102DC00027E137EB41ED58E36A8D7B8D8C8D9D8D2E
:102DD0000E940B9B42E00E94DA47E0E5F3E0849119
:102DE0008F010F5F1F4F882321F00E94B244F8012A
:102DF000F6CF27E137EB41ED58E36E897F89888D67
:102E0000998D0E940B9B42E00E94DA47EBE4F3E0CD
:102E100084918F010F5F1F4F882321F00E94B244DD
:102E2000F801F6CF27E137EB41ED58E3C701B601D2
:102E30000E940B9B42E00E94DA478AE00E94B24463
:102E40000E940E640E9460640C94D4281092A50322
:102E50000C94D42881E08093A5030C94D528D60146
:102E60002D913D914D915C91A6962FAFA697A79677
:102E70003FAFA797A5964FAFA597A4965FAFA4972E
:102E80000E946F44F6016083718382839383A696C8
:102E90002FADA697A7963FADA797A5964FADA5973F
:102EA000A4965FADA4970330110509F4E3CE0E9408
:102EB0000A9B9B01AC01D7016D917D918D919C91F5
:102EC0000E940B9BF7016083718382839383C80107
:102ED0000E948148AA24A394CDCEBB2009F4DACE67
:102EE000C0901F0CD090200CE090210CF090220C90
:102EF0002091FD053091FE054091FF05509100069F
:102F0000C701B6010E940DA30E945E9D6093A30CB1
:102F10007093A40C8093A50C9093A60CC701B601E6
:102F20000E94689C2FB7F8946093CB0C7093CC0CE4
:102F30008093CD0C9093CE0C2FBF1092830C1092E7
:102F4000840C1092850C1092860CA4CE08371105C3
:102F500009F482C708F096C00435110509F426C6A5
:102F600008F04AC00033110509F408C3C8F4013160
:102F7000110509F4B6C130F40230110508F437C167
:102F80000C94D4280F31110509F4B8C10A32110587
:102F900009F4ACC20231110511F00C94D42806C614
:102FA0000D34110509F40CC350F40B34110509F468
:102FB000E9C20C34110509F4E9C20C94D428023595
:102FC000110509F4EAC508F0ECC50135110511F049
:102FD0000C94D4280E94958E0E9464930E94B3861C
:102FE0001092490B1092480B68EE73E080E090E07D
:102FF0000E94D94D0C94D4280D36110509F42DC426
:1030000020F50836110509F4DFC298F405351105DD
:1030100009F4FBC50C35110511F00C94D4286CEFA4
:10302000C62E62E0D62E71EFE72E75E0F72E10E087
:10303000FFC50A36110509F47BC508F4F1C30B3648
:10304000110509F498C50C94D4280137110509F429
:10305000A2C350F40E36110509F4E4C20F3611056F
:1030600009F4FCC20C94D4280337110509F464C692
:1030700008F45EC60737110511F00C94D428EEEB66
:10308000F4E068C60E3231E0130711F40C946222AA
:1030900008F04FC00D3C110509F4DAC720F5083CD3
:1030A000110509F4E6C650F40937110509F4DBC629
:1030B0000C38110509F49BC30C94D4280B3C110562
:1030C00009F43CC708F058C7093C110511F00C94ED
:1030D000D42831EEE32E35E0F32E0CEF12E044E07D
:1030E000D42ED00E12C70C3D110511F40C94722190
:1030F00070F40E3C110511F40C949520033D11055C
:1031000011F00C94D428E5E8F1E20C94DC20023EA6
:10311000110511F40C9498210D3251E0150711F4AA
:103120000C94C4210D3D110511F00C94D4280C947D
:103130007F21043F81E0180711F40C942E2660F5DE
:103140000139A1E01A0711F40C945D2578F40F32CF
:10315000E1E01E0711F40C94D3220039114011F064
:103160000C94D4280E9464930C94D428043A21E04F
:10317000120711F40C9461250C3A31E0130711F495
:103180000C946C250239114011F00C94D42880E085
:103190000E94FE610C94D428073F51E0150711F4FA
:1031A0000C94EF2778F4053F91E0190711F40C9483
:1031B000EC27063F114011F00C94D4280E940A819C
:1031C0000C94D4280938B3E01B0711F40C9432286E
:1031D000073EE3E01E0711F40C9468280335134002
:1031E00011F00C94D428E5E8F1E20C94FB2780E57B
:1031F0000E94DD43882359F00E9464444B015C0126
:1032000011E0672B682B692B31F410E004C010E04B
:10321000812C912C540183E50E94DD43882311F415
:103220000C94F8280E9498444B015C0111111FC0B6
:10323000672B682B692BD9F4D7018C918823B9F0BF
:10324000E5E8F1E284918F010F5F1F4F882321F0A1
:103250000E94B244F801F6CFF70181917F018823E3
:1032600019F00E94B244F8CF8AE00E94B24481E093
:103270008093980383E090E09093E50B8093E40BB8
:103280000E9464930E94A74481149104A104B10494
:1032900009F18091E60B9091E70BA091E80BB091BA
:1032A000E90B880E991EAA1EBB1E0E94114EDC015E
:1032B000CB0188199909AA09BB09B7FD04C010926E
:1032C00098030C94D428809198038823C1F30E941A
:1032D000E586EBCF80919803882389F30E94E586E9
:1032E000F9CF5F988A989FB7F894809108018E7FF4
:1032F000809308019FBF12980C94D4288091AA0C47
:103300009091AB0C019719F40E94114E08C0609186
:10331000B40C7091B50C8091B60C9091B70C0091E3
:10332000B00C1091B10C2091B20C3091B30C601B19
:10333000710B820B930B28EE33E040E050E00E94CB
:1033400083A68091AC0C9091AD0CA091AE0CB09185
:10335000AF0CBC01CD01620F731F841F951FBCE32E
:10336000CB2ED12CE12CF12CA70196010E9483A633
:10337000762E672ECA01B901A70196010E9483A685
:103380006B017C01CA01B90128E130E040E050E066
:103390000E9483A64B015C01C9016DE671E00E94A9
:1033A000DB9A8E010F5F1F4F6115710599F06F92C7
:1033B0007F92DF92CF929F928F929F938F937F9372
:1033C0006F9385E893E09F938F931F930F930E94D1
:1033D00079A226C0009789F06F927F92DF92CF92F8
:1033E0009F928F929F938F9385E793E09F938F9304
:1033F0001F930F930E9479A213C081149104A1041A
:10340000B104B1F06F927F92DF92CF929F928F9230
:1034100089E693E09F938F931F930F930E9479A265
:103420000FB6F894DEBF0FBECDBFE5E8F1E223C0D2
:10343000C114D104E104F10469F06F927F92DF922C
:10344000CF9281E693E09F938F931F930F930E94F7
:1034500079A2E6CF6F927F928DE593E09F938F9351
:103460001F930F930E9479A20F900F900F900F90CF
:103470000F900F90DACF84917F01BFEFEB1AFB0A18
:10348000882321F00E94B244F701F5CFB80189E901
:1034900093E00E94D3448AE00E94B24480910106E6
:1034A000882311F40C94D428109201066091490CE1
:1034B00070914A0C072E000C880B990B0E94AEA24B
:1034C0002091160230911702409118025091190272
:1034D0000E94539D181614F00C94D42810924A0C94
:1034E0001092490C0E94038B0C94D42883E50E940F
:1034F000DD43882311F40C94D4280E9457447C01A6
:103500008F3F910519F010F00C94D42880E50E94AB
:10351000DD43882339F00E9457448C0197FF04C093
:103520000C94D4280DE010E0D02EE2E6F2E0C801C1
:103530009927219131912817390731F022E0E23B98
:10354000F207B9F70C94C128EBEFFDE084918F01ED
:103550000F5F1F4F882321F00E94B244F801F6CF7D
:10356000E6EAF3E084918F010F5F1F4F882311F487
:103570000C94D4280E94B244F801F4CF0E946765ED
:103580000C94D4280E94DA8D0C94D4288091AA0C33
:103590009091AB0C019711F00C94D42882E090E04C
:1035A0009093AB0C8093AA0C0E94114E6093B40CC4
:1035B0007093B50C8093B60C9093B70C0C94D428F0
:1035C0000E94538B0C94D42888E690E00E94A24776
:1035D00081110C94D42880913F0C83FF02C00C947D
:1035E000D42883E50E94DD438823C1F00E946F4404
:1035F0000E94689C70934A0C6093490C0E94038B54
:103600000E946F4420E030E04AEA52E40E94A8A2FF
:10361000181614F00E94538B0E946F440E94675743
:103620000C94D4288EE40E94DD43882311F40C947A
:10363000D4288091990390919A034AE050E060E089
:1036400070E001960E94D49F60939B0370939C034B
:1036500080939D0390939E030C94D42883E50E944D
:10366000DD43882319F00E94F04301C080E080937D
:103670003F0CE5E8F1E284918F010F5F1F4F882333
:1036800021F00E94B244F801F6CFE5ECF3E084911A
:103690008F010F5F1F4F882321F00E94B244F80171
:1036A000F6CF80913F0C8823A1F1A5EBCA2EA3E0B1
:1036B000DA2EE12CF12C20E080913F0C90E00E2CD2
:1036C00002C0959587950A94E2F780FF17C0BB2446
:1036D000B394B20E222319F08CE20E94B244F60198
:1036E00025913491F901849189010F5F1F4F88233F
:1036F00021F00E94B2449801F5CF2B2DFFEFEF1A75
:10370000FF0A32E0C30ED11C46E0E416F104A1F634
:103710003DC0E1ECF3E084918F010F5F1F4F8823E0
:10372000A9F10E94B244F801F6CF80E20E94B244AF
:103730008AE50E94DD43882311F40C9424280E941A
:103740006F446B017C0120E030E040EA51EC0E94C4
:10375000539D87FF02C00C94132820E030E040EA1C
:1037600051E4C701B6010E94A8A2181614F40C94E3
:103770001328C092230CD092240CE092250CF092D6
:10378000260C42E0C701B6010E94DA478AE00E9497
:10379000B2440C94D42883E50E94DD43882369F069
:1037A0000E94F043809342028D3310F40C94D4288D
:1037B0008CE3809342020C94D428E5E8F1E28491F2
:1037C0008F010F5F1F4F882321F00E94B244F80140
:1037D000F6CF4091420250E060E070E08CEC93E064
:1037E0000E945F458AE00E94B2440C94D4288091E4
:1037F0003F0C83FF02C00C94D42883E50E94DD4374
:10380000882311F40C94D4280E946F440E94689C71
:103810007093D00C6093CF0C0E94458E0C94D428EA
:1038200089E690E00E94A247811111C0E3EDF3E028
:1038300084918F010F5F1F4F882321F00E94B244B3
:10384000F801F6CF0E941F658AE00E94B2441092F0
:10385000E50B1092E40B0C94F62A8DE690E00E94A2
:10386000A24781110C94D42880913F0C83FF02C0A1
:103870000C94D42883E50E94DD4389AF811105C0F3
:1038800082E50E94DD438823C1F00E946F440E94BC
:10389000689C70934A0C6093490C0E94038B0E94B1
:1038A0006F4420E030E04AEA52E40E94A8A21816D1
:1038B00014F40C94FD280E94538B0E94675781E0FA
:1038C000809308021092E50B1092E40B1DAA1EAA29
:1038D0001FAA18AE1BAE1CAE1DAE1EAE19AA1FAE9F
:1038E0005CE321965FAF21978CE122968FAF229700
:1038F00096E424969FAF2497C12CD12CE0E8EE2EBD
:10390000FFEBFF2E812C912C54016091490C70919A
:103910004A0C072E000C880B990B0E94AEA2162FA2
:10392000072F782E692E262F372F482F592FB601B3
:10393000C7010E94A8A28823D9F020914B0C309196
:103940004C0C40914D0C50914E0C612F702F872DD7
:10395000962D0E94A8A2881F8827881F89ABA9AD31
:10396000AA2351F0882341F0809108020C94D428B6
:103970001C2D0D2D7E2C6F2C0E94114E6B017C0195
:10398000DC01CB012BAD3CAD4DAD5EAD821B930B8D
:10399000A40BB50BB7FD45C0D701C60188519C4F9C
:1039A000AF4FBF4F8BAF9CAFADAFBEAF0E941F6597
:1039B000E9EDF3E084912F019FEF491A590A88231A
:1039C00021F00E94B244F201F5CF81149104A104C8
:1039D000B104D1F0D501C401805F984DAF4FBF4F06
:1039E000BC01CD016C197D098E099F0928EE33E0D9
:1039F00040E050E00E9483A6CA01B9010E947A45C6
:103A00008AE00E94B2440DC0E6EDF3E084912F01FC
:103A1000AFEF4A1A5A0A882321F00E94B244F201F9
:103A2000F5CF0E94E5860E94A74420904B0C309071
:103A30004C0C40904D0C50904E0C9101A201612F06
:103A4000702F872D962D0E940A9B9F7781149104D9
:103A5000A104B10449F420E030E040E85FE30E94B3
:103A6000A8A287FF0BC008C020E030E040E450E48B
:103A70000E94539D181614F446015701B9A9BB239F
:103A8000D9F12DA93EA94FA958AD21153105410500
:103A9000510541F0D701C601821B930BA40BB50B56
:103AA000B7FD2AC09101A2016FAD21967FAD21978C
:103AB00022968FAD229724969FAD24970E940A9B51
:103AC00020E030E040EC5FE30E94A8A287FD4CCFED
:103AD000D701C601805A9541AF4FBF4F8DAB9EAB0A
:103AE000AFABB8AF2FAE21963FAE219722964FAE27
:103AF000229724965FAE249780910802882309F4C8
:103B000033CF81149104A104B10429F4C12ED02E25
:103B1000E72CF62CFACE90E1C91A97E2D90AE1080F
:103B2000F108C818D908EA08FB08F7FE1DCFEECF48
:103B300083E50E94DD43882321F00E944A448C01E2
:103B400002C00FEF10E080E50E94DD43882331F0D2
:103B50000E944A44892B11F00C94D42898010F3FFD
:103B6000110519F010F02FEF30E03093490B20933E
:103B7000480B0C94D42880E50E94DD43811106C0D7
:103B80001092490B1092480B0C94D4280E944A447E
:103B9000892B11F00C94D428F3CF1092A4030C9429
:103BA000D42881E08093A4030C94D52883E50E9457
:103BB000DD43882361F00E94984460934302709330
:103BC000440280934502909346020C94D42888E5E1
:103BD0000E94DD4381110C94012989E50E94DD4397
:103BE00081110C9401298AE50E94DD4381110C9416
:103BF000012985E40E94DD4381110C9401290E9472
:103C000064930E94B3860C94D42883E50E94DD431C
:103C1000882311F40C94D4280E9498446093EA0BF2
:103C20007093EB0B8093EC0B9093ED0B0C94D428DA
:103C3000D6018D916D010E94DD43882309F46DC08A
:103C4000133009F063C00E946F444B015C0120E017
:103C500030E040EA51E40E94A8A287FF4EC0A501CF
:103C600094016091FD057091FE058091FF05909192
:103C700000060E94F79B2B013C019B01AC01609167
:103C80001C0B70911D0B80911E0B90911F0B0E94BD
:103C90000DA360931C0B70931D0B80931E0B9093D0
:103CA0001F0BA30192016091380B7091390B809129
:103CB0003A0B90913B0B0E940DA36093380B7093CD
:103CC000390B80933A0B90933B0B6091DD0570911B
:103CD000DE058091DF059091E0050E94ACA2A30172
:103CE00092010E940DA30E946E9C6093DD0570936B
:103CF000DE058093DF059093E0058092FD059092AC
:103D0000FE05A092FF05B092000607C00E946F4416
:103D1000F70160837183828393831F5FF4E0EF0E6A
:103D2000F11C143009F084CF0E94C4580C94D4289C
:103D30000E9460640C94D428EDEDF3E084918F012F
:103D40000F5F1F4F882311F40C94D4280E94B244B3
:103D5000F801F4CF84918F010F5F1F4F882321F06A
:103D60000E94B244F801F6CFE6EBF4E084918F01B3
:103D70000F5F1F4F882321F00E94B244F801F6CF55
:103D8000659903C000E013E002C005E013E0D8012C
:103D90008D918D01882319F00E94B244F8CF8AE0FA
:103DA0000E94B244EEEAF4E084918F010F5F1F4F4E
:103DB000882321F00E94B244F801F6CF80910301DC
:103DC00081FD03C000E013E002C005E013E0F8014C
:103DD00081918F01882319F00E94B244F8CF8AE0C4
:103DE0000E94B244E6EAF4E084918F010F5F1F4F16
:103DF000882321F00E94B244F801F6CF4A9903C00B
:103E000000E013E002C005E013E0D8018D918D01C0
:103E1000882319F00E94B244F8CF8AE00E94B2448D
:103E2000EEE9F4E084918F010F5F1F4F882321F0AA
:103E30000E94B244F801F6CF4B9903C000E013E0B2
:103E400002C005E013E0F80181918F01882309F495
:103E50009DCC0E94B244F7CF81E080931102809301
:103E600031020C94D52810921102109231020C9458
:103E7000D42888EC90E00E94A24781110C94D428A9
:103E800084E40E94DD43882311F40C94D4280E941A
:103E90006F4411E020E030E0A9010E94A8A2811146
:103EA00001C010E01093510B112359F100919F03B1
:103EB00010E00E946F44000F111F000F111FF80146
:103EC000EE5CFD4F608371838283938320E030E05A
:103ED000A901609132027091330280913402909175
:103EE00035020E94A8A281110CC080E090E0A0E4FD
:103EF000B0E48093320290933302A0933402B093E3
:103F000035020E941F890C94D428D8018D918D010F
:103F10000E94DD43882349F00E946F440E946E9CFA
:103F2000F7016083718382839383F4E0EF0EF11CC9
:103F3000D012EBCF0E9497570C94D4289CE2E92E24
:103F40009BE0F92E0CEF12E024E0D22ED00ED80127
:103F50008D918D010E94DD43882339F00E946F44CA
:103F6000F7016083718382839383F4E0EF0EF11C89
:103F7000D012EDCF0C94D42883E50E94DD43882332
:103F8000D9F00E946F44AB01BC014093240B5093C5
:103F9000250B6093260B7093270B4093200B5093B7
:103FA000210B6093220B7093230B82E395E00E9418
:103FB00066488AE00E94B24480E50E94DD4388237F
:103FC00099F00E946F44AB01BC014093240B5093C5
:103FD000250B6093260B7093270B85E195E00E94DB
:103FE00066488AE00E94B24482E50E94DD4388234D
:103FF00099F00E946F44AB01BC014093280B509391
:10400000290B60932A0B70932B0B86EF94E00E9490
:1040100066488AE00E94B24484E50E94DD4388231A
:1040200011F40C94D4280E946F44AB01BC0140935E
:10403000200B5093210B6093220B7093230B88ED80
:1040400094E00E9466488AE00E94B2440C94D4280E
:1040500083E50E94DD43882351F00E946F44609302
:10406000440B7093450B8093460B9093470B84E56C
:104070000E94DD43882351F00E946F446093400BFF
:104080007093410B8093420B9093430B82E40E9408
:10409000DD43882351F00E94644460933C0B70938D
:1040A0003D0B80933E0B90933F0B88E50E94DD43D0
:1040B000882351F00E946F446093100B7093110B92
:1040C0008093120B9093130B89E50E94DD438823A4
:1040D00051F00E946F446093140B7093150B809302
:1040E000160B9093170B8AE50E94DD43882351F04D
:1040F0000E946F446093180B7093190B80931A0BF6
:1041000090931B0B85E40E94DD43882311F40C94EB
:10411000D4280E946F4460931C0B70931D0B8093F6
:104120001E0B90931F0B0C94D4281CEFA12E12E0B1
:10413000B12E03E1C02E0CE0D02E83E3E82E8CE0FC
:10414000F82E00E010E0D5018D915D010E94DD4365
:10415000882311F10E946F442B013C01F70120815B
:104160003181428153810E940A9B9B01AC01D6019F
:104170006D917D918D919C910E940B9BF6016083C6
:10418000718382839383D7014D925D926D927C926D
:104190001397C8010E9481480F5F1F4FB4E0CB0EF8
:1041A000D11CE4E0EE0EF11C0330110561F60E9413
:1041B000D24A0E946064F8C784918F010F5F1F4F3D
:1041C000882321F00E94B244F801F6CF83E50E94D3
:1041D000DD43882321F00E941F4480930502E2E81A
:1041E000F5E084918F010F5F1F4F882321F00E941B
:1041F000B244F801F6CF80910502811103C0EEE7C9
:10420000F5E002C0EAE7F5E084918F010F5F1F4FF0
:10421000882321F00E94B244F801F6CFE2E7F5E0EE
:1042200084918F010F5F1F4F882321F00E94B244B9
:10423000F801F6CF4091D80B5091D90B6091DA0B71
:104240007091DB0B80E795E00E9466484091DC0BA3
:104250005091DD0B6091DE0B7091DF0B8DE695E0E8
:104260000E9466484091E00B5091E10B6091E20B97
:104270007091E30B8AE695E00E946648E2E6F5E07D
:1042800084918F010F5F1F4F882321F00E94B24459
:10429000F801F6CF40913602509137026091380212
:1042A0007091390280E695E00E94664840913A029A
:1042B00050913B0260913C0270913D028DE595E08A
:1042C0000E94664840913E0250913F026091400238
:1042D000709141028AE595E00E9466488AE00E945A
:1042E000B24462C783E50E94DD43882309F45CC7BA
:1042F0000E945744909307028093060255C78DEDA4
:1043000090E00E94A24781114FC783E50E94DD43E0
:10431000882309F449C700919F0310E00E94574485
:10432000000F111FF801E55DFD4F918380833CC7AD
:1043300080E50E94DD43882309F436C70E94574474
:104340008C0183E50E94DD43882321F00E945744BD
:104350007C0103C0EE24EA94FE2CC701019603976A
:1043600008F022C717FD20C7E2E6F2E0C80199274E
:10437000219131912817390709F416C722E0E23B51
:10438000F207B1F70C94CE2A85E40E94DD43811137
:1043900010C080E50E94DD43882399F00E946F449D
:1043A0006093500270935102809352029093530293
:1043B00008C00E945744181619065CF7EBEFFDE0A1
:1043C00070C089E40E94DD43882381F00E946F441D
:1043D0002CE933E549E45EE30E940DA360934C02AF
:1043E00070934D0280934E0290934F0284E40E949A
:1043F000DD43882381F00E946F442CE933E549E4D2
:104400005EE30E94F79B6093540270935502809381
:1044100056029093570205E811E2F801849188232F
:1044200029F00F5F1F4F0E94B244F7CF4091500216
:104430005091510260915202709153028AE995E0C5
:104440000E9466482CE933E549E45EE360914C0242
:1044500070914D0280914E0290914F020E94F79B05
:10446000AB01BC0186E995E00E944B482CE933E59D
:1044700049E45EE3609154027091550280915602C6
:10448000909157020E940DA3AB01BC0182E995E017
:104490000E944B488AE00E94B24486C60E94B24401
:1044A000F80184918F010F5F1F4F8111F7CF03E156
:1044B00013E0D8018D918D01882309F467C90E940A
:1044C000B244F7CF83E50E94DD43082F8823A1F093
:1044D0000E946F446093230270932402809325020C
:1044E0009093260211E020E030E0A9010E94A8A2EA
:1044F000811110E010930F0B80E50E94DD43182F0F
:104500008823A9F020E030E0A90160912302709196
:10451000240280912502909126020E94A8A288235D
:1045200019F00E941F44182F10930F0B3DC6011164
:104530003BC6E5E8F1E284918F010F5F1F4F8823AE
:1045400021F00E94B244F801F6CF80910F0B811147
:1045500003C06FE073E002C062E073E083EB95E0BC
:104560000E94D34420E030E040E05FE3609123020A
:104570007091240280912502909126020E940B9B4B
:104580000E94689C82EA95E00E948B47EEE9F5E084
:1045900084918F010F5F1F4F882309F405C60E9485
:1045A000B244F801F5CF85E40E94DD43882321F071
:1045B0000E9457447C0102C0E12CF12C83E40E944C
:1045C000DD43882339F00E9457446E969FAF8EAF2B
:1045D0006E9706C0E5E0F0E06E96FFAFEEAF6E9727
:1045E00085E50E94DD43882331F00E941F446F96C9
:1045F0008FAF6F9703C06F961FAE6F9783E50E94D2
:10460000DD43882349F00E946F4469AF7BAF8FAFD1
:1046100021969FAF21970AC019AE1BAEF7FC0CC0C4
:10462000F6E1FFAF23E421962FAF2197E114F104C7
:1046300049F410929F0306C03CE83FAF42E4219644
:104640004FAF21971092E50B1092E40B0E94114E90
:104650004B015C01EF2819F404E213E00EC007E3FC
:1046600013E0D8018D918D01882319F00E94B24486
:10467000F8CF8AE00E94B24497C5F80181918F017A
:10468000882319F00E94B244F8CF8AE00E94B24415
:104690000E94958E8FE78093D20C81E08093080270
:1046A00068968CAE9DAEAEAEBFAE6897A3968CAE4C
:1046B0009DAEAEAEBFAEA39724961FAE2497F0E496
:1046C0002596FFAF25972CE126962FAF269736E447
:1046D00027963FAF279728961FAE289729961FAE9B
:1046E00029972A961FAE2A972B961FAE2B97639673
:1046F0001CAE1DAE1EAE1FAE63972F961CAE1DAE38
:104700001EAE1FAE2F97C12CD12C7601FFE74F2E86
:10471000512C612C712C8FE790E0A0E0B0E08DABC4
:104720009EABAFABB8AF6C961CAE1DAE1EAE1FAE4F
:104730006C9791E064969FAF649723961FAE1EAE70
:10474000239710E000E0312C212C8091080288236F
:1047500009F4ACC10E94114E69AB7AAB8BAB9CAB38
:104760008091D10C882309F4BDC00E944190109122
:104770004B0C00914C0C30904D0C20904E0C212F86
:10478000302F432D522D28966FAD289729967FAD57
:1047900029972A968FAD2A972B969FAD2B970E942B
:1047A000A8A287FF0CC028961FAF289729960FAFA5
:1047B00029972A963FAE2A972B962FAE2B97212F1B
:1047C000302F432D522D24966FAD249725967FAD23
:1047D000259726968FAD269727969FAD27970E94FF
:1047E000539D181664F424961FAF249725960FAF97
:1047F000259726963FAE269727962FAE2797649645
:10480000AFAD649729AD3BAD4FAD21965FAD21971C
:10481000612F702F832D922DAA2309F449C00E9485
:10482000539D18160CF05EC049A95AA96BA97CA922
:10483000481959096A097B09DB01CA018858934163
:10484000A109B109B7FD4EC08DA99EA9AFA9B8AD08
:1048500084199509A609B709B595A79597958795E0
:104860008093D20C6C964CAF5DAF6EAF7FAF6C9700
:10487000B9AD2896BFAF2897EBAD2996EFAF299732
:10488000FFAD2A96FFAF2A9721962FAD21972B9641
:104890002FAF2B9789A99AA9ABA9BCA968968CAF11
:1048A0009DAFAEAFBFAF689764961FAE64971AC056
:1048B0000E94A8A287FF16C089A99AA9ABA9BCA982
:1048C00068962CAD3DAD4EAD5FAD6897821B930BE6
:1048D000A40BB50BAC01BD014858534161097109E6
:1048E00077FFB8C420E030E040EA51E469AD7BAD29
:1048F0008FAD21969FAD21970E940B9B9B01AC0130
:10490000612F702F832D922D0E94539D18166CF4E9
:10491000E0E8F6E084918F010F5F1F4F882309F4D0
:1049200043C40E94B244F801F5CF80E398EFAFEFA3
:10493000BFEFA3962CAD3DAD4EAD5FADA397821BEF
:10494000930BA40BB50B29A93AA94BA95CA9820F1B
:10495000931FA41FB51FB7FD0FC00E941F658AE0FB
:104960000E94B24489A99AA9ABA9BCA9A3968CAF0D
:104970009DAFAEAFBFAFA39789A99AA9ABA9BCA9B8
:10498000880F991FAA1FBB1F68962CAD3DAD4EAD79
:104990005FAD6897821B930BA40BB50B881999091F
:1049A000AA09BB0981389F44A241B10568F0E2E63B
:1049B000F6E084918F010F5F1F4F882309F4F4C341
:1049C0000E94B244F801F5CF23964EAD5FAD239718
:1049D0006E968EAD9FAD6E97841795070CF0B5CE91
:1049E000E5E0F6E084918F010F5F1F4F882321F0EF
:1049F0000E94B244F801F6CFB701A60180EF95E01E
:104A00000E9466488AE00E94B2442F964CAD5DAD8C
:104A10006EAD7FAD2F978BED95E00E9466488AE0E2
:104A20000E94B24463964CAD5DAD6EAD7FAD6397B1
:104A300086EC95E00E9466488AE00E94B2446F9638
:104A40009FAD6F97992309F4AFC3C0925002D092E3
:104A50005102E0925202F09253022CE933E549E40C
:104A60005EE32F966CAD7DAD8EAD9FAD2F970E940E
:104A70000DA360934C0270934D0280934E0290936D
:104A80004F022CE933E549E45EE363966CAD7DADFE
:104A90008EAD9FAD63970E94F79B60935402709315
:104AA000550280935602909357027EC3809108026C
:104AB00081117AC30E94958E77C381E00E94FE61C6
:104AC00073C383E50E94DD43882309F46DC30E940C
:104AD0001F440E94E96168C323E1222E2CE0322E9C
:104AE000A3E3BCE0BAABA9ABE0E4FCE0FEABEDAB0A
:104AF00000E010E02DA93EA920543C403AAF29AF78
:104B0000ADA9BEA98D91BEABADAB882309F496C00B
:104B1000F801EA5CFD4F2081318142815381F80127
:104B2000E852F44F60817181828193810E940B9BD6
:104B300020E030E040E05FE30E940DA39B01AC0168
:104B4000F10160817181828193810E94539D1816C9
:104B500034F4C8018B5D904E0E94A14403C060E014
:104B600070E0CB01D1014D905D906D907C90E9A9F2
:104B7000FAA9C080D180E280F380A70196010E944B
:104B80000B9BF801E95DF34F208131814281538114
:104B90000E940B9B9B01AC01C301B2010E940A9BC6
:104BA0004B015C0120E030E040EA51EC0E94539D53
:104BB00018166CF520E030E040EA51E4C501B4017C
:104BC0000E94A8A287FF23C0A5019401C701B601D6
:104BD0000E940A9B4B015C01A70196010E940A9B5F
:104BE0009B01AC01C301B2010E940B9BD1016D93EB
:104BF0007D938D939C931397E9A9FAA98082918262
:104C0000A282B38289AD9AAD0E94814817C00BEF92
:104C10001DE0F8018491882329F00F5F1F4F0E9447
:104C2000B244F7CF04EF16E0F8018491882309F429
:104C3000BBC20F5F1F4F0E94B244F6CFF4E02F0EAD
:104C4000311C0C5F1F4F29A93AA92C5F3F4F3AAB8B
:104C500029AB0C30110509F04DCFA9CA1AA21BA22D
:104C60001CA21DA280E390E3A0E3B0E08E8F9F8F93
:104C7000A8A3B9A384E690E09DA78CA744E0BE0159
:104C8000625E7F4FCE018C960E9428848CA59DA5E4
:104C900002969DA78CA71092500B10924F0B40E1EB
:104CA00061EF75E0CE018C960E94288440E16CE2B1
:104CB0007BE0CE018C960E94288440E161EE75E095
:104CC000CE018C960E94288444E064E27BE0CE0111
:104CD0008C960E94288444E068E27BE0CE018C96AA
:104CE0000E94288444E060E27BE0CE018C960E9422
:104CF000288444E064E47BE0CE018C960E94288402
:104D000044E060E47BE0CE018C960E94288444E07D
:104D10006CE37BE0CE018C960E94288440E160E148
:104D20007BE0CE018C960E9428844CE063E37CE01B
:104D3000CE018C960E94288483E088AB8FA71EA6A4
:104D40001AA21BA21CA21DA241E0BE01625D7F4F00
:104D5000CE018C960E94288444E0BE016E5D7F4F98
:104D6000CE018C960E94288441E0BE01605D7F4F99
:104D7000CE018C960E94288441E0BE01615D7F4F88
:104D8000CE018C960E94288410E088A99FA5212F2F
:104D900030E0899FC001112444E0281739074CF402
:104DA000BE016E5D7F4FCE018C960E9428841F5FEE
:104DB000ECCF63E27CE0CE018C960E9428841AA29C
:104DC0001BA21CA21DA21AE0115049F044E0BE0132
:104DD0006E5D7F4FCE018C960E942884F5CF8EEBBE
:104DE00090E09B8F8A8F80EF90E09D8F8C8F1F8A41
:104DF0001E8A198E188E1A8219821C821B8244E028
:104E0000BE01665E7F4FCE018C960E94288444E0EE
:104E1000BE016A5E7F4FCE018C960E94288444E0DA
:104E2000BE016F5F7F4FCE018C960E942884C12CFB
:104E300080E8D82E8BE3E82E85E4F82E812C912C87
:104E400090E8A92E9FE3B92E111122C044E060E53D
:104E500072E0CE018C960E94288444E06CE472E0FB
:104E6000CE018C960E94288444E064E572E0CE0175
:104E70008C960E9428848AA29BA2ACA2BDA244E088
:104E8000BE016E5D7F4FCE018C960E9428841CC0AF
:104E9000CAA2DBA2ECA2FDA244E0BE016E5D7F4F80
:104EA000CE018C960E9428841AA21BA21CA21DA2CD
:104EB00004E0015049F044E0BE016E5D7F4FCE0139
:104EC0008C960E942884F5CF1F5F143009F0BCCF68
:104ED00084E190E09BA78AA742E0BE01665D7F4F18
:104EE000CE018C960E94288480E090E8ABE3B5E484
:104EF0008AA39BA3ACA3BDA3115049F044E0BE011B
:104F00006E5D7F4FCE018C960E942884F5CF80E2A3
:104F100090E099A788A742E0BE01685D7F4FCE016F
:104F20008C960E94288441E061E57BE0CE018C965E
:104F30000E94288411110CC080913202909133029A
:104F4000A0913402B09135028AA39BA3ACA3BDA368
:104F500044E0BE016E5D7F4FCE018C960E94288496
:104F60001F5F143039F780914F0B9091500B9FA326
:104F70008EA3ECA4FDA484E690E09DA78CA744E05A
:104F800062EE72E0CE018C960E94288442E0BE015F
:104F90006A5D7F4FCE018C960E942884E5E8F1E29D
:104FA00084918F010F5F1F4F882321F00E94B2442C
:104FB000F801F6CFB7018BE197E00E948B47E2E161
:104FC000F7E084918F010F5F1F4F882309F4ECC035
:104FD0000E94B244F801F5CF0E945A82E5C083E5F1
:104FE0000E94DD43882321F00E941F4491E089271D
:104FF0000E94E77DD9C084918F010F5F1F4F8823E6
:1050000021F00E94B244F801F6CFE0E4F7E0849189
:105010008F010F5F1F4F882311F40C94951B0E9482
:10502000B244F801F4CF6CEE7FEF88E397E00E9482
:105030008B4780E20E94B24464E170E080E397E035
:105040000E948B470C94C61B4091230C5091240C5A
:105050006091250C7091260C8DE297E00E946648C5
:105060000C94C61B0E9464938BE40E94DD4388234A
:1050700099F00E946F446B017C0120E030E0A901AF
:105080000E94539D87FD08C0C0922702D09228023B
:10509000E0922902F0922A02E5E8F1E284918F0180
:1050A0000F5F1F4F882321F00E94B244F801F6CF12
:1050B00040912702509128026091290270912A02A2
:1050C00089E497E00E9466488AE00E94B2446CC07E
:1050D00081E08093480283E50E94DD43882309F440
:1050E0005AC20E941F4481115FC055C2F02E8091A8
:1050F0003F0C85FF14C0B801772786EB97E00E942C
:105100008B4789E20E94B2448AE00E94B24443E1A4
:105110005CE067E977E082EA97E00E94B34AF092A8
:10512000A003E5E8F1E284917F013FEFE31AF30A7F
:10513000882321F00E94B244F701F5CFB801772708
:105140008AE597E00E948B478AE00E94B2448091F2
:105150003F0C85FF29C043E15CE069E777E083E825
:1051600097E00E94B34AECE6F7E084918F010F5F6D
:105170001F4F8823C9F00E94B244F801F6CF80E0A7
:1051800014C061E08D2D0E94D64C6E2D8D2D0E9495
:10519000A74CB7018D2D0E94124D0730110521F447
:1051A000F092490BE092480B81E01092E50B1092CF
:1051B000E40B81111AC00C94041284918F010F5FCB
:1051C0001F4F882321F00E94B244F801F6CF60916E
:1051D00028057091290583EC97E00E94D34482E270
:1051E0000E94B2448AE00E94B2440E941B8AFEC11F
:1051F00011110C9437190C941C190E94DA8D0C941F
:105200005D1C0E94649388E50E94DD43882319F0A9
:105210005F9A10929E0589E50E94DD43882319F06C
:105220008A9A10929F058AE50E94DD43882351F0F7
:105230009FB7F894809108018160809308019FBF17
:105240001092A00585E40E94DD43882309F4ACCFC9
:10525000129AAACF23964EAD5FAD2397141615066A
:105260000CF067C16C968CAC9DACAEACBFAC6C97CF
:10527000880E991EAA1EBB1E6C962CAD3DAD4EAD80
:105280005FAD6C97281B390B4A0B5B0BCA01B90148
:10529000A30192010E9474A6A50194010E94A5A6F3
:1052A0004DA85EA86FA878AC420E531E641E751EF2
:1052B00034E143165104610471040CF14CEE4416C0
:1052C0005104610471043CF450E845165104610432
:1052D00071041CF105C06BEE462E512C612C712C13
:1052E0004DAA5EAA6FAA78AE8EEF90E0A0E0B0E083
:1052F00084199509A609B7092C013D0112C024E1C2
:1053000030E040E050E02DAB3EAB4FAB58AF54E146
:10531000452E512C612C712C04C04DAA5EAA6FAA97
:1053200078AEECEEF6E084919F012F5F3F4F88232B
:1053300081F0A6962FAFA697A7963FAFA7970E949A
:10534000B244A6962FADA697A7963FADA797F901B1
:10535000EACF6DA97EA98FA998AD0E947A45E7EEA4
:10536000F6E084919F012F5F3F4F882381F0A6963E
:105370002FAFA697A7963FAFA7970E94B244A696D5
:105380002FADA697A7963FADA797F901EACFC30126
:10539000B2010E947A4524964FAD249725965FADC1
:1053A000259726966FAD269727967FAD279780EE97
:1053B00096E00E94664828964FAD289729965FADE3
:1053C00029972A966FAD2A972B967FAD2B9789ED5B
:1053D00096E00E94664823964EAD5FAD239743301A
:1053E00051050CF4A6C0C301B2010E94AEA220E098
:1053F00030E040E850E40E940DA36B017C0124964C
:105400002FAD249725963FAD259726964FAD26972D
:1054100027965FAD279728966FAD289729967FAD81
:1054200029972A968FAD2A972B969FAD2B970E948E
:105430000A9B2BED3FE049E450E40E940DA320E0DD
:1054400030E040E05FE30E940DA39B01AC01C70187
:10545000B6010E94F79B6B017C01C501B4010E945B
:10546000AEA22FE632E143E85AE30E940DA34B01BE
:105470005C01B701A60183ED96E00E946648B50184
:10548000A4018DEC96E00E9466482AE939E949E1D9
:105490005FE3C701B6010E940DA36B017C019B0174
:1054A000AC010E940B9BA50194010E94F79B2F96D3
:1054B0006CAF7DAF8EAF9FAF2F97A5019401C70151
:1054C000B6010E940DA320E030E040E05EE30E94C0
:1054D0000DA363966CAF7DAF8EAF9FAF6397EDEB7F
:1054E000F6E084915F015FEFA51AB50A882321F0E9
:1054F0000E94B244F501F5CFB701A60187EB96E013
:105500000E9466482F964CAD5DAD6EAD7FAD2F9776
:1055100081EB96E00E94664863964CAD5DAD6EAD42
:105520007FAD63978BEA96E00E9466488AE00E940E
:10553000B2448DA99EA9AFA9B8AD840D951DA61D35
:10554000B71DB595A795979587958093D20C23960F
:105550008EAD9FAD2397019623969FAF8EAF239775
:1055600099AD24969FAF2497ABAD2596AFAF259705
:10557000BFAD2696BFAF26972196EFAD2197279610
:10558000EFAF279789A89AA8ABA8BCA8F1E06496CA
:10559000FFAF6497A7C90E943A8A06CE0E9464931F
:1055A000D02E60E0802F0E94D64C4FEFE416F40618
:1055B00059F4802F0E947F4C31E020E0892B09F0C4
:1055C00030E0032F122F05C0EA94EF2861F000E0CD
:1055D00010E08D2D0E947F4C8017910709F4E4CDD7
:1055E0000E94E586F6CF01E010E0F3CFCA59DF4F05
:1055F0000FB6F894DEBF0FBECDBFDF91CF911F91E4
:105600000F91FF90EF90DF90CF90BF90AF909F9061
:105610008F907F906F905F904F903F902F90089564
:105620002F923F924F925F926F927F928F929F92B2
:10563000AF92BF92CF92DF92EF92FF920F931F93A0
:10564000CF93DF93CDB7DEB7C55DD1090FB6F89420
:10565000DEBF0FBECDBF0DB71EB7C754DF4F1983D6
:105660000883C95BD04081E50E94DD43182F00917B
:105670003F0C882321F0802F806280933F0C809123
:105680003F0C85FF0AC043E15CE063E67AE085E712
:105690009AE00E94B34A0E946E5900933F0C111188
:1056A0000C94A1420E94788B81110C94A14286E552
:1056B0000E94DD43882349F00E945744CD56DF4FB6
:1056C00099838883C359D04008C021E030E0CD568B
:1056D000DF4F39832883C359D040CD56DF4F4881EF
:1056E0005981C359D0404530510570F0EBE3FAE0E1
:1056F00084918F010F5F1F4F882311F40C94A142F6
:105700000E94B244F801F4CF84E40E94DD43C35602
:10571000DF4F8883CD59D04085E40E94DD43C956D0
:10572000DF4F8883C759D040CD56DF4F888199819C
:10573000C359D040892B49F484E50E94DD43C3540A
:10574000DF4F8883CD5BD0402DC0E4E2FAE0849146
:105750008F010F5F1F4F882321F00E94B244F80190
:10576000F6CFC356DF4F9881CD59D040992361F0D1
:10577000EBE0FAE084918F010F5F1F4F882321F047
:105780000E94B244F801F6CFCD56DF4FA881B9810F
:10579000C359D040139784F2B1E0C354DF4FB883AC
:1057A000CD5BD04088E50E94DD43882339F00E941C
:1057B0005744ED969FAF8EAFED9706C0E3E0F0E063
:1057C000ED96FFAFEEAFED9789E50E94DD438823AC
:1057D00039F00E945744E3969FAF8EAFE39706C01F
:1057E00003E010E0E3961FAF0EAFE39780E50E9461
:1057F000DD43882351F00E945744ED969FAF8EAF52
:10580000ED97E3969FAF8EAFE397ED962EAD3FAD4C
:10581000ED97223031051CF4E6EDF9E008C0E3967F
:105820004EAD5FADE397423051056CF4F5CF8491F6
:105830008F010F5F1F4F882311F40C94A1420E9427
:10584000B244F801F4CF83E50E94DD43882349F098
:105850000E946F4420E030E040E752E40E94F79B52
:1058600004C065E575E585E093E4609309027093F3
:105870000A0280930B0290930C028CE40E94DD4399
:10588000882319F00E946F4418C020E030E040EAFD
:1058900051E46091330C7091340C8091350C9091EF
:1058A000360C0E940B9B2091270C3091280C4091C4
:1058B000290C50912A0C0E940B9B0E94689C6F96A9
:1058C0007FAF6EAF6F9782E50E94DD43882319F0AA
:1058D0000E946F4418C020E030E04CED52E460912B
:1058E000330C7091340C8091350C9091360C0E94E1
:1058F0000B9B2091270C3091280C4091290C509142
:105900002A0C0E940B9B0E94689C6B967FAF6EAF27
:105910006B9786E40E94DD43882319F00E946F4450
:1059200018C020E030E040E252E46091370C709102
:10593000380C8091390C90913A0C0E940B9B20916D
:105940002B0C30912C0C40912D0C50912E0C0E9460
:105950000B9B0E94689C1B0182E40E94DD4388230C
:1059600019F00E946F4418C020E030E04CED52E482
:105970006091370C7091380C8091390C90913A0CF1
:105980000E940B9B20912B0C30912C0C40912D0CE4
:1059900050912E0C0E940B9B0E94689C8B016F966D
:1059A000AEADBFAD6F97BD01BB0F880B990B0E94C9
:1059B000AEA2C158DF4F688379838A839B83CF5718
:1059C000D0408090330C9090340CA090350CB09067
:1059D000360CC090270CD090280CE090290CF09049
:1059E0002A0C20E030E0A901C501B4010E940B9B04
:1059F000A70196010E940B9B9B01AC01C158DF4F90
:105A0000688179818A819B81CF57D0400E94A8A26A
:105A100087FD14C0B1E0AA96BFAFAA976B968EAD72
:105A20009FAD6B9704976F96EEADFFAD6F97E8173C
:105A3000F90744F4AA961FAEAA9704C0F1E0AA960B
:105A4000FFAFAA976B962EAD3FAD6B97B901330FA1
:105A5000880B990B0E94AEA22B013C0120E030E0A4
:105A600044EF52E4C501B4010E940B9BA7019601CB
:105A70000E940B9B9B01AC01C301B2010E94539D8C
:105A80001816A4F031E0A2963FAFA2976F968EADA4
:105A90009FAD6F9704966B964EAD5FAD6B97841775
:105AA000950744F4A2961FAEA29704C051E0A296B7
:105AB0005FAFA297B101032C000C880B990B0E94D9
:105AC000AEA2E9966CAF7DAF8EAF9FAFE9978090A5
:105AD000370C9090380CA090390CB0903A0CC090D4
