:100000000C9429130C945A130C945A130C945A13ED
:100010000C945A130C945A130C945A130C945A13AC
:100020000C945A130C945A130C945A130C945A139C
:100030000C945A130C945A130C945A130C945A138C
:100040000C945A130C9467A10C945A130C945A13E1
:100050000C945A130C945A130C94B2AE0C9418E1ED
:100060000C945A130C945C130C945A130C945A135A
:100070000C945A130C945A130C945A130C945A134C
:100080000C945A130C945A130C945A130C945A133C
:100090000C945A130C945A130C945A130C945A132C
:1000A0000C945A130C945A130C945A130C945A131C
:1000B0000C945A130C945A130C945A130C945A130C
:1000C0000C945A130C945A130C945A130C945A13FC
:1000D0000C945A130C945A130C945A130C945A13EC
:1000E0000C945A13F6AD05AE24AE28AE2BAE2FAE4F
:1000F00032AE36AE39AE3DAE40AE44AE4EAE46E266
:100100004BE250E25AE264E2DDE26EE276E27EE247
:1001100088E292E29CE2ABE2B5E2DDE2BFE2C9E254
:10012000D3E2FEE201E3F0E2F4E2FAE238E305E3CF
:1001300009E30FE313E317E31DE321E325E338E3CA
:100140002BE32FE333E3084AD73B3BCE016E84BC5D
:10015000BFFDC12F3D6C74319ABD56833DDA3D0021
:10016000C77F11BED9E4BB4C3E916BAAAABE00006A
:1001700000803F05A84CCDB2D44EB93836A9020C48
:1001800050B9918688083CA6AAAA2ABE0000008021
:100190003F005072696E7465722068616C746564AA
:1001A0002E206B696C6C28292063616C6C6564215E
:1001B0000A004B494C4C45442E20004B494C4C45C1
:1001C000442E200020746F6F206C6F6E672065785E
:1001D00074727573696F6E2070726576656E746582
:1001E000640A0020636F6C642065787472757369AB
:1001F0006F6E2070726576656E7465640A006F6B51
:1002000000526573656E643A20003A20007A5F6D93
:1002100061783A20007A5F6D696E3A20005A204F6B
:100220006666736574004F666673657473206170EB
:10023000706C696564004572723A20546F6F206675
:1002400061722100546F6F206661722066726F6D5B
:10025000207265666572656E636520706F696E7485
:100260000A0043290A0061626C656420286D696E8A
:100270002074656D702000436F6C64206578747223
:100280007564657320617265200020643A002069FE
:100290003A0020703A00205A0020590058002020CF
:1002A0004D61783A2000205A002059005800202043
:1002B0004D696E3A20004F6666004F6E2000536F06
:1002C000667420656E6473746F70733A20005365B2
:1002D0007474696E672054726176656C2041636343
:1002E000656C65726174696F6E3A20005365747451
:1002F000696E67205265747261637420416363653F
:100300006C65726174696F6E3A200053657474692C
:100310006E67205072696E7420416363656C65720C
:100320006174696F6E3A200053657474696E67205A
:100330005072696E7420616E642054726176656CCF
:1003400020416363656C65726174696F6E3A200069
:100350004D31343520533C696E6465783E206F75AD
:1003600074206F662072616E67652028302D3129F8
:100370000A004649524D574152455F4E414D453A5C
:100380004D61726C696E20312E312E322D43322038
:10039000284769746875622920534F555243455F59
:1003A000434F44455F55524C3A68747470733A2F0A
:1003B0002F6769746875622E636F6D2F526F626F5D
:1003C00033442F4D61726C696E2D43322050524F71
:1003D000544F434F4C5F56455253494F4E3A312E7E
:1003E00030204D414348494E455F545950453A529B
:1003F0006F626F43322045585452554445525F4313
:100400004F554E543A3120555549443A6365646519
:10041000326132662D343161322D343734382D3922
:100420006231322D63353563363266333637666670
:100430000A00526F626F4332204F66662E00526F81
:10044000626F43322072656164792E004865617481
:10045000696E6720646F6E652E003F0A0020573A70
:100460000048656174696E672E2E2E00526F626FB0
:1004700043322072656164792E006F6B004D31311B
:10048000332053004B494C4C45442E2000454348F3
:100490004F00494E464F004552524F52530044526E
:1004A0005952554E00434F4D4D554E4943415449C5
:1004B0004F4E006F6666008D04920497049E04A55B
:1004C0000444454255473A0048656174696E672E99
:1004D0002E2E00526F626F43322072656164792E56
:1004E000005374616E64617264204465766961745E
:1004F000696F6E3A20004D65616E3A200020202021
:100500007369676D613A2000206D65616E3A200065
:100510002020207A3A2000206F662000205A0020F8
:100520005900205800476F696E6720746F3A004386
:100530006C6F636B776973650A00436F756E7465E2
:10054000722D0020446972656374696F6E3A2000F1
:10055000202020616E676C653A20005374617274CC
:10056000696E67207261646975733A2000506F7319
:100570006974696F6E696E67207468652070726F48
:1005800062652E2E2E0A003F4E756D626572206FD9
:1005900066206C65677320696E206D6F76656D658A
:1005A0006E74206E6F7420706C61757369626C6517
:1005B0002028302D3135292E0A00590058003F538C
:1005C000616D706C652073697A65206E6F74207040
:1005D0006C61757369626C652028342D3530292E65
:1005E0000A004D3438205A2D50726F6265205265D2
:1005F000706561746162696C697479207465737483
:100600000A003F566572626F7365204C6576656CB3
:10061000206E6F7420706C61757369626C65202840
:10062000302D34292E0A002569730025696D202597
:100630006973002569682025696D20256973002587
:100640006964202569682025696D20256973002566
:10065000697920256964202569682025696D202530
:100660006973005072696E742074696D653A200078
:10067000456E642066696C65206C6973740A00427B
:100680006567696E2066696C65206C6973740A0021
:100690004E6F206D6F76652E00526F626F43322071
:1006A00072656164792E00526573756D696E67209D
:1006B0007072696E74005761697420666F7220757C
:1006C0007365722E2E2E00205A3A200020593A20AF
:1006D0000042656420583A2000205A3A20002059F0
:1006E0003A200042656420583A2000202B000A433B
:1006F0006F72726563746564204265642048656941
:100700006768742076732E2042656420546F706F82
:100710006C6F67793A0A00202B000A426564204812
:10072000656967687420546F706F6772617068796B
:100730003A0A2020202B2D2D2D204241434B202DE5
:100740002D2B0A2020207C2020202020202020204B
:1007500020207C0A204C207C20202020282B2920AF
:100760002020207C20520A2045207C202020202090
:100770002020202020207C20490A2046207C202880
:100780002D29204E20282B29207C20470A20542068
:100790007C20202020202020202020207C20480A8F
:1007A0002020207C20202020282D29202020207C73
:1007B00020540A2020207C202020202020202020BF
:1007C00020207C0A2020204F2D2D2046524F4E54B1
:1007D000202D2D2B0A2028302C30290A004D656150
:1007E0006E206F662073616D706C656420706F6938
:1007F0006E74733A200020643A200020623A200090
:1008000045716E20636F656666696369656E7473B2
:100810003A20613A200028422961636B002846296A
:10082000726F6E74002852296967687400284C2919
:10083000656674003F4E756D626572206F6620704C
:10084000726F626564202850296F696E7473206925
:100850007320696D706C61757369626C65202832F4
:10086000206D696E696D756D292E0A0052756E6E68
:10087000696E6720696E204452592D52554E206D85
:100880006F64650A00473239204175746F204265F4
:1008900064204C6576656C696E670A003F285629AE
:1008A0006572626F7365204C6576656C2069732094
:1008B000696D706C61757369626C652028302D34C8
:1008C000292E0A0020453A00205A3A0020593A00C1
:1008D000583A005761726E696E673A20486F6D69C9
:1008E0006E672042756D702044697669736F72205F
:1008F0003C20310A00206669727374005A00590066
:100900005800486F6D6520002066697273740A0094
:100910005A0059005800486F6D6520005A207072C7
:100920006F6265206F75742E206265640A005A201C
:1009300070726F6265206F75742E2062656400535B
:100940006C6565702E2E2E004163746976652045B6
:10095000787472756465723A200020403A00202F46
:100960000020543A0020706F736974696F6E206FB5
:100970007574206F662072616E67652E0A003F50A5
:10098000726F62652000627573793A2070617573C9
:10099000656420666F7220696E7075740A006275F6
:1009A00073793A2070617573656420666F72207583
:1009B0007365720A00627573793A2070726F6365AD
:1009C0007373696E670A00220A00556E6B6E6F774B
:1009D0006E20636F6D6D616E643A20220020496E57
:1009E00076616C6964206578747275646572200044
:1009F00053442072656164206572726F720A00440C
:100A00006F6E65207072696E74696E672066696CBE
:100A1000650A004B494C4C45442E200053544F501E
:100A20005045442E20005072696E746572207374B4
:100A30006F707065642064756520746F20657272D4
:100A40006F72732E20466978207468652065727213
:100A50006F7220616E6420757365204D39393920BD
:100A6000746F20726573746172742E202854656DE2
:100A70007065726174757265206973207265736543
:100A8000742E205365742069742061667465722029
:100A900072657374617274696E67290A004E6F2003
:100AA0004C696E65204E756D626572207769746859
:100AB00020636865636B73756D2C204C61737420C3
:100AC0004C696E653A20004E6F20436865636B7316
:100AD000756D2077697468206C696E65206E756D20
:100AE0006265722C204C617374204C696E653A20EB
:100AF00000636865636B73756D206D69736D6174F8
:100B000063682C204C617374204C696E653A200038
:100B10004C696E65204E756D626572206973206E3A
:100B20006F74204C617374204C696E65204E756D36
:100B30006265722B312C204C617374204C696E6598
:100B40003A20004D31313000446F6E65207361767C
:100B5000696E672066696C652E0A004D3239002087
:100B600020506C616E6E6572427566666572427980
:100B70007465733A20002046726565204D656D6F7F
:100B800072793A20004465632031362032303136A4
:100B90000A00436F6D70696C65643A200028726FBB
:100BA000626F290A00207C20417574686F723A20B8
:100BB00000323031362D31302D31362031363A3059
:100BC0003000204C61737420557064617465643A20
:100BD000200020312E312E322D43320A004D617219
:100BE0006C696E0020536F66747761726520526580
:100BF0007365740A00205761746368646F672052DC
:100C0000657365740A002042726F776E206F757489
:100C10002052657365740A002045787465726E61B0
:100C20006C2052657365740A00506F776572557059
:100C30000A0073746172740A00220A00656E71758D
:100C4000657565696E67202200FF01FF0000A04006
:100C50000000A040000000400000F4420000F84204
:100C600000002043000000000000F84200000000E7
:100C70000000F4420000F8420000204300000000A1
:100C800000000000000000006563686F3A004572D4
:100C9000726F723A0000002110422063308440A538
:100CA00050C660E770088129914AA16BB18CC1AD33
:100CB000D1CEE1EFF13112100273325222B55294CB
:100CC00042F772D662399318837BB35AA3BDD39C83
:100CD000C3FFF3DEE36224433420040114E664C757
:100CE00074A44485546AA54BB528850995EEE5CFD3
:100CF000F5ACC58DD55336722611163006D776F66B
:100D0000669556B4465BB77AA719973887DFF7FE22
:100D1000E79DD7BCC7C448E5588668A778400861F6
:100D20001802282338CCC9EDD98EE9AFF948896972
:100D3000990AA92BB9F55AD44AB77A966A711A500A
:100D40000A333A122AFDDBDCCBBFFB9EEB799B58C2
:100D50008B3BBB1AABA66C877CE44CC55C222C0396
:100D60003C600C411CAEED8FFDECCDCDDD2AAD0B12
:100D7000BD688D499D977EB66ED55EF44E133E32AA
:100D80002E511E700E9FFFBEEFDDDFFCCF1BBF3A62
:100D9000AF599F788F8891A981CAB1EBA10CD12D51
:100DA000C14EF16FE18010A100C230E32004502554
:100DB0004046706760B9839893FBA3DAB33DC31CC8
:100DC000D37FE35EF3B1029012F322D232354214A4
:100DD0005277625672EAB5CBA5A89589856EF54F14
:100DE000E52CD50DC5E234C324A0148104667447F4
:100DF0006424540544DBA7FAB79987B8975FE77E68
:100E0000F71DC73CD7D326F2369106B01657667643
:100E100076154634564CD96DC90EF92FE9C899E9B3
:100E2000898AB9ABA94458654806782768C018E193
:100E3000088238A3287DCB5CDB3FEB1EFBF98BD807
:100E40009BBBAB9ABB754A545A376A167AF10AD0E3
:100E50001AB32A923A2EFD0FED6CDD4DCDAABD8B53
:100E6000ADE89DC98D267C076C645C454CA23C8333
:100E70002CE01CC10C1FEF3EFF5DCF7CDF9BAFBAA7
:100E8000BFD98FF89F176E367E554E745E932EB283
:100E90003ED10EF01E7C3C3E5E2B3D3F2F5B5D3B0A
:100EA0002C2A225C004D3331004D38342058205913
:100EB000205A20450043616E6E6F7420656E746524
:100EC00072207375626469723A20006175746F25CF
:100ED000692E67006572726F722077726974696E2D
:100EE0006720746F2066696C650A004E6F7420532A
:100EF00044207072696E74696E670A0053442070F2
:100F000072696E74696E6720627974652000446549
:100F10006C6574696F6E206661696C65642C20462F
:100F2000696C653A200046696C652064656C65747F
:100F300065643A006F70656E206661696C65642C4B
:100F40002046696C653A200057726974696E6720A3
:100F5000746F2066696C653A20006F70656E20665C
:100F600061696C65642C2046696C653A20006F707D
:100F7000656E206661696C65642C2046696C653A13
:100F8000200046696C652073656C65637465640A4E
:100F9000002053697A653A200046696C65206F70BD
:100FA000656E65643A20006F70656E206661696CDD
:100FB00065642C2046696C653A20002066696C6582
:100FC0003A20004E6F7720002220706F730022209D
:100FD000706172656E743A2200535542524F5554F7
:100FE000494E452043414C4C207461726765743A08
:100FF00022004B494C4C45442E2000747279696E96
:101000006720746F2063616C6C207375622D676359
:101010006F64652066696C657320776974682074F5
:101020006F6F206D616E79206C6576656C732E2014
:101030004D4158206C6576656C2069733A004D32DD
:1010400034004D32332025730053442063617264B1
:10105000206F6B0A006F70656E526F6F742066614F
:10106000696C65640A00766F6C756D652E696E69D2
:1010700074206661696C65640A00534420696E6976
:1010800074206661696C0A0043616E6E6F74206F34
:1010900070656E20737562646972200020204D387F
:1010A0003531205A005A2D50726F6265204F6666A6
:1010B00073657420286D6D293A0A0020204D323066
:1010C000302044300A0020204D32303020440020AF
:1010D00044697361626C65640A0046696C616D65A0
:1010E0006E742073657474696E67733A00204400EF
:1010F00020490020204D33303120500050494420F9
:1011000073657474696E67733A0A00204600204262
:101110000020204D31343520533120480020460036
:1011200020420020204D3134352053302048004DDE
:101130006174657269616C20686561747570207096
:101140006172616D65746572733A0A00205A0020FD
:10115000590020204D323036205800486F6D6520F0
:101160006F666673657420286D6D290A002045003E
:10117000205A0020580020420020540020204D32E8
:101180003035205300416476616E6365642076617A
:10119000726961626C65733A20533D4D696E2066D9
:1011A0006565647261746520286D6D2F73292C202C
:1011B000543D4D696E2074726176656C206665657C
:1011C000647261746520286D6D2F73292C20423D57
:1011D0006D696E696D756D207365676D656E7420E0
:1011E00074696D6520286D73292C20583D6D6178D8
:1011F000696D756D205859206A65726B20286D6D78
:101200002F73292C20205A3D6D6178696D756D20F2
:101210005A206A65726B20286D6D2F73292C20204F
:10122000453D6D6178696D756D2045206A65726B0D
:1012300020286D6D2F73290A0020540020520020B1
:10124000204D323034205000416363656C6572611B
:1012500074696F6E733A20503D7072696E74696E76
:10126000672C20523D7265747261637420616E64F4
:1012700020543D74726176656C0A00204500205A46
:101280000020590020204D3230312058004D617827
:10129000696D756D20416363656C65726174696F1A
:1012A0006E20286D6D2F7332293A0A0020450020E8
:1012B0005A0020590020204D3230332058004D6113
:1012C00078696D756D2066656564726174657320FB
:1012D000286D6D2F73293A0A00204500205A0020FE
:1012E000590020204D393220580053746570732006
:1012F00070657220756E69743A0A004861726463A1
:101300006F6465642044656661756C742053657410
:1013100074696E6773204C6F616465640A004545AB
:1013200050524F4D20636865636B73756D206D6916
:10133000736D617463680A00206279746573290AA9
:10134000002073746F7265642073657474696E67CE
:101350007320726574726965766564202800206266
:1013600079746573290A0053657474696E67732014
:1013700053746F7265642028004572726F72207713
:10138000726974696E6720746F20454550524F4DE5
:10139000210A007A5F6D61783A20007A5F6D696E8C
:1013A0003A2000795F6D61783A2000785F6D696E50
:1013B0003A20005265706F7274696E6720656E64C2
:1013C00073746F70207374617475730A00456E6472
:1013D00073746F7073202563202563202563202597
:1013E0006300205A3A0020593A0020583A00656EAE
:1013F0006473746F7073206869743A200020746F8E
:101400006F206C6F6E6720657874727573696F6E8C
:101410002070726576656E7465640A0020636F6C77
:101420006420657874727573696F6E20707265766A
:10143000656E7465640A006D0046696C616D656E69
:101440007420757365643A200053746174733A2094
:10145000002C204C6F6E67657374206A6F623A20AF
:1014600000546F74616C2074696D653A2000537488
:101470006174733A20002C204661696C65643A20DF
:10148000002C2046696E69736865643A20005072CA
:10149000696E74733A200053746174733A200020AB
:1014A0005A3A0020593A0020436F756E7420583A1A
:1014B00020004D383420582059205A20450024F46B
:1014C000D43050C38E20C2A24017828B7011127A82
:1014D000910D816CD90AA861E108C758660761516E
:1014E00043061E4B5D05C145A7041A411104093D81
:1014F0009803713931034036DB0265339102D430F1
:101500005402802E1D02632CEE01752AC501B028FD
:10151000A001102781018F2564012B244B01E022BB
:101520003401AC211F018D200D01801FFC00841EA1
:10153000ED00971DDF00B81CD200E61BC600201B83
:10154000BC00641AB200B219A8000A19A0006A18F7
:101550009900D117910040178B00B5168400311601
:101560007E00B31579003A157300C7146F00581444
:101570006A00EE1366008813630025135E00C7122D
:101580005B006C12570015125400C111510070110C
:101590004F0021114B00D61049008D104700461016
:1015A000440002104200C00F4000800F3E00420F76
:1015B0003C00060F3B00CB0E3800930E37005C0E4C
:1015C0003500270E3400F30D3200C10D3100900DAF
:1015D0003000600D2E00320D2D00050D2C00D90CB1
:1015E0002B00AE0C2900850C29005C0C2700350C63
:1015F00027000E0C2600E80B2400C40B2400A00BCF
:1016000023007D0B23005A0B2100390B2100180BFE
:101610002000F80A1F00D90A1E00BB0A1E009D0AFE
:101620001D00800A1D00630A1C00470A1B002C0ACB
:101630001B00110A1A00F7091A00DD091900C40974
:101640001900AB091900920917007B0918006309FA
:1016500017004C09160036091600200916000A0961
:101660001500F5081500E0081400CC081400B808AF
:101670001400A4081400900813007D0812006B08E1
:1016800013005808120046081200340811002308FD
:1016900011001208110001081100F0071000E00706
:1016A0001000D0071000C0071000B0070F00A107FE
:1016B000100091070E0083070F0074070F006507E5
:1016C0000E0057070E0049070E003B070D002E07BE
:1016D0000E0020070D0013070D0006070D00F90688
:1016E0000C00ED060D00E0060C00D4060C00C80648
:1016F0000C00BC060C00B0060C00A4060B009906FA
:101700000C008D060B0082060B0077060B006C06A2
:101710000B0061060A0057060B004C060A00420641
:101720000A0038060A002E060A0024060A001A06D5
:101730000A001006090007060A00FD050900F40565
:101740000900EB050900E2050900D9050900D005EB
:101750000900C7050900BE050900B5050800AD056B
:101760000800A50509009C050800940508008C05E3
:101770000800840508007C050800740508006C0555
:101780000700650508005D050700560508004E05C1
:101790000700470507004005080038050700310528
:1017A00007002A050700230507001C05060016058B
:1017B00007000F0507000805060002050700FB04E7
:1017C0000600F5040700EE040600E8040600E20443
:1017D0000700DB040600D5040600CF040600C90498
:1017E0000600C3040600BD040600B7040600B104E9
:1017F0000500AC040600A6040600A00405009B0436
:10180000060095040500900406008A04050085047E
:101810000500800406007A040500750405007004C4
:1018200005006B04050066040500610405005C0406
:10183000050057040500520405004D040500480446
:101840000500430405003E0404003A040500350485
:101850000500300404002C040500270404002304C0
:1018600005001E0404001A040400160405001104F7
:1018700004000D040400090405000404040000042D
:101880000400FC030400F8030400F4030400F00364
:101890000400EC030400E8030400E4030400E00394
:1018A0000400DC030400D8030400D4030400D003C4
:1018B0000400CC030400C8030300C503030024F4A0
:1018C00004D9201BC40C5C0E9804C4095F02650790
:1018D0007101F405F900FB04B30048048700C1035B
:1018E00069005803550003034500BE023A00840214
:1018F000310053022A002902250004022000E401DD
:101900001C00C8011900AF011700980114008401E0
:101910001300710110006101100051010E0043011C
:101920000D0036010B002B010B0020010B001501EF
:1019300009000C01090003010800FB000800F30086
:101940000800EB000700E4000600DE000600D800F7
:101950000600D2000600CC000500C7000500C2004A
:101960000500BD000400B9000400B5000400B1008A
:101970000400AD000400A9000400A5000300A200BB
:1019800003009F0004009B000300980003009500E3
:10199000020093000300900003008D0002008B0002
:1019A000030088000200860002008400030081001A
:1019B00002007F0002007D0002007B00020079002F
:1019C000020077000100760002007400020072003D
:1019D0000100710002006F0002006D0001006C0048
:1019E00002006A0001006900020067000100660051
:1019F0000100650001006400020062000100610056
:101A00000100600001005F0002005D0001005C0059
:101A100001005B0001005A0001005900010058005C
:101A2000010057000100560001005500010054005C
:101A3000010053000000530001005200010051005A
:101A40000100500001004F0001004E0000004E0058
:101A500001004D0001004C0001004B0000004B0054
:101A600001004A0001004900010048000000480050
:101A7000010047000100460000004600010045004B
:101A80000000450001004400010043000000430045
:101A9000010042000000420001004100000041003E
:101AA0000100400001003F0000003F0001003E0037
:101AB00000003E0001003D0000003D0001003C0030
:101AC00000003C0000003C0001003B0000003B0027
:101AD00001003A0000003A0001003900000039001E
:101AE0000100380000003800000038000100370015
:101AF000000037000100360000003600000036000C
:101B00000100350000003500000035000100340000
:101B100000003400000034000100330000003300F6
:101B200000003300010032000000320000003200EB
:101B300001003100000031000000310001003000E0
:101B4000000030000000300001002F0000002F00D6
:101B500000002F0000002F0001002E0000002E00CA
:101B600000002E0001002D0000002D0000002D00BF
:101B700000002D0001002C0000002C0000002C00B3
:101B800000002C0001002B0000002B0000002B00A7
:101B900000002B0001002A0000002A0000002A009B
:101BA00000002A000100290000002900000029008F
:101BB0000000290000002900010028000000280082
:101BC0000000280000002800000028000100270075
:101BD0000000270000002700000027000000270069
:101BE000010026000000260000002600000026005C
:101BF000000026000100250000002500000025004F
:101C00000000250000002500000025000100240040
:101C10000000240000002400000024000000240034
:101C20000100230000002300000023000000230027
:101C30000000230000002300000023000100220018
:101C4000000022000000220000002200000022000C
:101C500000002200010021000000210000002100FE
:101C600000002100000021000000210000002100F0
:101C700001002000000020000000200000002000E3
:101C800000002000000020000000200000002000D4
:101C900001001F0000001F0000001F0000001F00C7
:101CA00000001F0000001F0000001F0001001E00B8
:101CB00000001E0000001E0000001E00000054680E
:101CC00065726D616C2052756E6177617900544860
:101CD00045524D414C2052554E415741590048659F
:101CE0006174696E67206661696C6564004865614E
:101CF00074696E67206661696C656400486561742B
:101D0000696E67206661696C656400486561746925
:101D10006E67206661696C6564004D494E54454D9F
:101D20005020747269676765726564004572723A23
:101D3000204D494E54454D50004D415854454D504D
:101D400020747269676765726564004572723A2033
:101D50004D415854454D50006265640A002C207373
:101D6000797374656D2073746F7070656421204899
:101D700065617465725F49443A2000236465666951
:101D80006E65202044454641554C545F4B6420000D
:101D900023646566696E65202044454641554C5470
:101DA0005F4B69200023646566696E6520204445A9
:101DB0004641554C545F4B702000504944204175BA
:101DC000746F74756E652066696E697368656421E9
:101DD0002050757420746865206C617374204B709A
:101DE0002C204B6920616E64204B6420636F6E73FE
:101DF00074616E74732066726F6D2062656C6F77AC
:101E000020696E746F20436F6E66696775726174C6
:101E1000696F6E2E680A00504944204175746F74D2
:101E2000756E65206661696C6564212074696D65F5
:101E30006F75740A00504944204175746F74756E53
:101E400065206661696C6564212054656D706572FA
:101E5000617475726520746F6F20686967680A0025
:101E6000204B643A2000204B693A2000204B703A06
:101E700020000A20436C6173736963205049442039
:101E80000A002054753A2000204B753A2000206D3E
:101E900061783A2000206D696E3A200020643A2073
:101EA0000020626961733A200070012C01900127C3
:101EB00001B0012201C0011D01F00118011002133F
:101EC0000130020E016002090190020401C002FF0C
:101ED000000003FA004003F5008003F000D003EB9C
:101EE000002004E6007004E100E004DC004005D7B7
:101EF00000C005D2004006CD00D006C8008007C350
:101F0000003008BE00F008B900C009B400B00AAF44
:101F100000B00BAA00D00CA500000EA000500F9B33
:101F200000C01096005012910000148C00C015875C
:101F300000B0178200B0197D00D01B7800001E731E
:101F40000040206E0090226900F024640040275F6A
:101F50000090295A00E02B5500102E500020304BE5
:101F60000010324600E033410090353C0010373716
:101F70000070383200A0392D00B03A2800A03B2371
:101F800000603C1E00103D1900903D1400103E0FF3
:101F900000703E0A00C03E0500003F000043617231
:101FA000642072656D6F76656400436172642069B8
:101FB0006E736572746564004D3432380025753A6D
:101FC0002530327500253032753A25303275002DB6
:101FD0002D2D005344005A0059005800012000469E
:101FE0006C6F7700466C6F770046616E207370658A
:101FF00065640046616E207370656564004E6F7A9B
:102000007A6C65004E6F7A7A6C6500537065656412
:10201000005370656564004D61696E004D6F7665B3
:102020002058004D6F76652059004D6F7665205A17
:1020300000457874727564657200457874727564D1
:102040006572004D6F7665205A004D6F7665205998
:10205000004D6F76652058004D6F76652061786978
:1020600073004D6F766520302E316D6D004D6F76AB
:102070006520316D6D004D6F76652031306D6D00DE
:1020800050726570617265004D3830005377697425
:10209000636820706F776572206F6E004D38310075
:1020A00053776974636820706F776572206F666616
:1020B00000436F6F6C646F776E0050726568656186
:1020C0007420414253005072656865617420504C21
:1020D00041004D38340044697361626C652073744B
:1020E000657070657273004D6F76652061786973F5
:1020F000004732380A47323900473239004C65769A
:10210000656C206265640053657420686F6D65209E
:102110006F66667365747300473238004175746F7B
:1021200020686F6D65004D61696E0053746F726554
:10213000206D656D6F7279004E6F7A7A6C65004E16
:102140006F7A7A6C650046616E2073706565640015
:1021500046616E2073706565640054656D706572CC
:1021600061747572650053746F7265206D656D6F73
:102170007279004E6F7A7A6C65004E6F7A7A6C6570
:102180000046616E2073706565640046616E207361
:10219000706565640054656D706572617475726513
:1021A00000507265686561742041425320636F6E10
:1021B00066005072656865617420504C4120636F01
:1021C0006E66005049442D44005049442D4400504F
:1021D00049442D49005049442D49005049442D504F
:1021E000005049442D5000200220466163740020B5
:1021F000022046616374002002204D6178002002B5
:10220000204D6178002002204D696E002002204D93
:10221000696E004175746F74656D70004F6666007D
:102220004F6E200046616E207370656564004661E4
:102230006E207370656564004E6F7A7A6C65004E2F
:102240006F7A7A6C6500436F6E74726F6C004573C1
:10225000746570732F6D6D004573746570732F6DA9
:102260006D005A73746570732F6D6D005A737465C9
:1022700070732F6D6D005973746570732F6D6D00E1
:102280005973746570732F6D6D0058737465707336
:102290002F6D6D005873746570732F6D6D00412D37
:1022A00074726176656C00412D74726176656C00A4
:1022B000412D7265747261637400412D7265747290
:1022C00061637400416D6178204500416D61782043
:1022D0004500416D6178205A00416D6178205A00B7
:1022E000416D6178205900416D6178205900416D40
:1022F0006178205800416D61782058005654726111
:1023000076206D696E005654726176206D696E009C
:10231000566D696E00566D696E00566D6178204588
:1023200000566D6178204500566D6178205A005640
:102330006D6178205A00566D6178205900566D61A4
:1023400078205900566D6178205800566D617820CC
:10235000580056652D6A65726B0056652D6A657268
:102360006B00567A2D6A65726B00567A2D6A65721B
:102370006B005678792D6A65726B005678792D6AF4
:1023800065726B00416363656C00416363656C005B
:102390005A204F6666736574005A204F66667365EF
:1023A0007400436F6E74726F6C0046696C2E20442B
:1023B00069612E0046696C2E204469612E0045201B
:1023C000696E206D6D33004F6666004F6E200043CE
:1023D0006F6E74726F6C00526573746F72652066F5
:1023E00061696C73616665004C6F6164206D656D39
:1023F0006F72790053746F7265206D656D6F7279BD
:102400000046696C616D656E74004D6F74696F6E26
:102410000054656D7065726174757265004D616917
:102420006E00052E2E004D61696E004E6F205344E4
:102430002063617264005072696E742066726F6D01
:102440002053440053746F70207072696E74005290
:102450006573756D65207072696E74005061757377
:1024600065207072696E7400436F6E74726F6C00D9
:10247000507265706172650054756E6500496E66D4
:102480006F2073637265656E00506C6561736520C3
:102490007265736574005052494E5445522048414C
:1024A0004C544544002D2D2D2D2D2D007C4D617259
:1024B0006C696E7C002D2D2D2D2D2D00687474708F
:1024C0003A2F2F6D61726C696E66772E6F7267009E
:1024D000687474703A2F2F6D61726C696E66772E16
:1024E0006F72670020312E312E322D4332000000F2
:1024F0000A0B02090C0D0E0807030401000000007E
:1025000000000000000000000000000000000000CB
:102510000000000000000000000012111000000088
:1025200000000000000000000000000000000000AB
:102530000000000001021020200808102040102098
:102540004080020102010804020101020408102077
:102550004080804020100804020180040201804075
:1025600020100804020108040201010204081020DE
:10257000408001020408102040800505050507057C
:1025800008080808020202020A0A080804040404EF
:10259000010101010101010103030303030303031B
:1025A000040707070C0C0C0C0C0C0C0C02020202AA
:1025B00006060606060606060B0B0B0B0B0B0B0B93
:1025C000000020002300260029002C002F003200EC
:1025D000000100000301060109010000220025009E
:1025E00028002B002E0031003400020100000501FC
:1025F00008010B0100002100240027002A002D0003
:102600003000330001010000040107010A014E41BE
:102610004E494E495459494E46CDCCCC3D0AD7235C
:102620003C17B7D13877CC2B329595E6241FB14FA4
:102630000A000020410000C84200401C4620BCBEE9
:102640004CCA1B0E5AAEC59D7400E54E1F878AB654
:10265000034F11241FBECFEFD1E2DEBFCDBF00E09C
:102660000CBF14E0A0E0B2E0ECE9F1EE01E00BBF3A
:1026700002C007900D92A238B107D9F723E1A2E872
:10268000B4E001C01D92A439B207E1F716E2C0E53B
:10269000D6E200E006C022970109FE010BBF0E94AE
:1026A000E5E8CA34D10780E00807A9F70E945AE498
:1026B0000C94BDF00C9400001F920F920FB60F9275
:1026C00011240BB60F922F933F938F939F93EF9309
:1026D000FF932091C6009FB7F894E091020581E036
:1026E0008E0F8F7730910305831731F0F0E0EE57AE
:1026F000FB4F2083809302059FBFFF91EF919F9135
:102700008F913F912F910F900BBE0F900FBE0F90A6
:102710001F9018959B01AC01211581EE38074105EA
:10272000510549F182E08093C00060E079E08DE3DB
:1027300090E00E949EE82150310941095109CA01E7
:10274000B90122E030E040E050E00E949EE8309382
:10275000C5002093C4008091C10080618093C100B6
:102760008091C10088608093C1008091C100806821
:102770008093C10008951092C00020E130E0E7CFBF
:102780008091C00087FF14C02091C6009FB7F894C5
:10279000E091020581E08E0F8F773091030583175A
:1027A00031F0F0E0EE57FB4F2083809302059FBF8E
:1027B00008953FB7F8942091030580910205821790
:1027C00059F0E22FF0E0EE57FB4F808190E02F5F51
:1027D0002F772093030502C08FEF9FEF3FBF08952F
:1027E0002FB7F89480910205909103052FBF891BA4
:1027F0008F7708958FB7F894909103059093020511
:102800008FBF08959091C00095FFFCCF8093C600C4
:102810000895AF92BF92CF92DF92EF92FF920F9303
:102820001F93CF93DF93CDB7DEB7A0970FB6F89481
:10283000DEBF0FBECDBF6115710581059105A9F100
:10284000B12CC42ED12CE12CF12CAA24A394AB0CD6
:1028500001E010E00C0F1D1F0B0D111DB7FC1A95A8
:10286000A70196010E947CE8F8016083B901CA01C2
:10287000611571058105910511F41B2D11C0BA2C4C
:10288000E4CFE1E0F0E0EC0FFD1FE10FF11D17FDDB
:10289000FA9580818A3038F490E3890FB3DF1150C4
:1028A0001F3F79F714C097E3F8CF80E3A0960FB6E7
:1028B000F894DEBF0FBECDBFDF91CF911F910F9176
:1028C000FF90EF90DF90CF90BF90AF909BCFA096FE
:1028D0000FB6F894DEBF0FBECDBFDF91CF911F9131
:1028E0000F91FF90EF90DF90CF90BF90AF90089541
:1028F0004115510511F4862F85CF8BCFAB01BC015B
:1029000080E090E0F5CFCF92DF92EF92FF926B01E3
:102910007C0197FF0AC08DE275DFF094E094D094BB
:10292000C094C11CD11CE11CF11C4AE0C701B601D6
:10293000FF90EF90DF90CF906CCF4115510511F4CF
:10294000862F60CF4A30510509F4DDCF62CFAB014D
:10295000BC01882777FD8095982FEFCF8DE052DF5F
:102960008AE050CFAB01BC0180E090E0C1DFF6CF40
:102970008F929F92AF92BF92CF92DF92EF92FF928F
:10298000CF936B017C01B42E20E030E0A9010E94BE
:1029900042E587FF06C08DE235DFF7FAF094F7F8DD
:1029A000F094C0E060E070E080E09FE3CB1541F080
:1029B0002DEC3CEC4CEC5DE30E9480E7CF5FF6CF62
:1029C0009B01AC01C701B6010E9469E46B017C0167
:1029D0000E94B6E54B015C014AE01BDFCC2381F18C
:1029E000C501B4010E94E2E59B01AC01C701B6013B
:1029F0000E9468E46B017C018EE204DF20E030E09D
:102A000040E251E4C701B6010E9480E76B017C01FE
:102A10000E94B1E54B01AA2497FCA094BA2CC501F1
:102A2000B40171DFC501B4010E94E4E59B01AC0172
:102A3000C701B6010E9468E46B017C01C150F1F648
:102A4000CF91FF90EF90DF90CF90BF90AF909F908D
:102A50008F9008958DCFFC0165917591859194912A
:102A60000895CF93DF93E0EDF8E08491EF01219694
:102A7000882319F0C7DEFE01F8CF6091A607709198
:102A8000A7078091A8079091A90742E050E0E2DFF4
:102A9000ECECF8E08491EF012196882319F0B2DE86
:102AA000FE01F8CF6091AA077091AB078091AC0747
:102AB0009091AD0742E050E0CDDFE8ECF8E0849182
:102AC000EF012196882319F09DDEFE01F8CF609179
:102AD000AE077091AF078091B0079091B10742E0C7
:102AE00050E0B8DFE4ECF8E08491EF012196882310
:102AF00019F088DEFE01F8CF6091B2077091B3073C
:102B00008091B4079091B50742E050E0A3DFDF91D8
:102B1000CF910C94C3A2CF92DF92FF920F931F9399
:102B2000CF93DF93CDB7DEB7ED970FB6F894DEBF46
:102B30000FBECDBFF090900791E0F926109191075C
:102B40001927882321F000919207092701C000E08E
:102B5000F11002C0112319F0E8E8FCE003C00111F4
:102B6000FBCF82C084916F019FEFC91AD90A8823D5
:102B700019F048DEF601F6CFE6E1F9E084916F0145
:102B8000AFEFCA1ADA0A882319F03CDEF601F6CF55
:102B9000FF2061F0E4E1F9E084916F01BFEFCB1A0F
:102BA000DB0A882319F02EDEF601F6CF112361F03F
:102BB000E2E1F9E084916F019FEFC91AD90A8823F5
:102BC00019F020DEF601F6CF011103C0E8E0F9E0CC
:102BD0000CC0E0E1F9E084916F01AFEFCA1ADA0AA4
:102BE0008823A1F30FDEF601F6CF84916F01BFEFCA
:102BF000CB1ADB0A882319F005DEF601F6CF19821D
:102C00001A821B821C82FE01359689E3DF011D9228
:102C10008A95E9F762E079E0CE0101960E94F9EC2D
:102C2000FF2031F060E079E0CE0101960E94F9ECDE
:102C3000112331F06EEF78E0CE0101960E94F9EC9D
:102C4000002331F06CEF78E0CE0101960E94F9ECA0
:102C500065EF78E0CE0101960E94F9EC60E0CE01CC
:102C600001960E9441B411E0812FED960FB6F894C1
:102C7000DEBF0FBECDBFDF91CF911F910F91FF90AF
:102C8000DF90CF900895CF92DF92EF92FF920F9353
:102C90001F93CF93DF93EC010E9462E10E811F81AD
:102CA00028853985011511052105310559F53C8522
:102CB0003323A9F12A8531503C8731E0320F3A871E
:102CC0004D85341301C01A86FE0134E0239FE00DC8
:102CD000F11D112406851785208931890A831B83FC
:102CE0002C833D836B017C01C00ED11EE11CF11CC5
:102CF000CE82DF82E886F9868C819D81892B79F0EE
:102D0000409A0DC06B017C01C01AD10AE20AF30A95
:102D1000F7FC05C040981E821F8218861986DF9135
:102D2000CF911F910F91FF90EF90DF90CF9008957A
:102D30000E9462E16093C4057093C5058093C60547
:102D40009093C705089580912F0290913002A09131
:102D50003102B09132028093FD059093FE05A0935D
:102D6000FF05B093000680912D0290912E02909362
:102D7000FC058093FB0584E690E090932E028093FF
:102D80002D02D6CF8091FD059091FE05A091FF0503
:102D9000B091000680932F0290933002A0933102ED
:102DA000B09332028091FB059091FC0590932E0226
:102DB00080932D02BDCFEF92FF920F931F93CF937D
:102DC000DF93EC017B018A016C854D8564130AC099
:102DD000E881F9810190F081E02DCE0119950E94E2
:102DE00093ACF2CFF70120813181F801808191818C
:102DF0005B85FE0174E0579FE00DF11D11243E96A6
:102E000031832083938382836F5F6C8781E0850F9A
:102E1000841711F08B8701C01B86DF91CF911F9122
:102E20000F91FF90EF900895CF92DF92EF92FF9273
:102E30000F931F93CF93DF93EB01FC0160817181AE
:102E4000828193812CE3C22ED12CE12CF12CA7019D
:102E500096010E947CE8162F072FCA01B901A7012D
:102E600096010E947CE8F62EE72ECA01B90128E1FE
:102E700030E040E050E00E947CE8FB01C9016DE6D3
:102E800071E00E9455E89B014F2D5E2D2115310503
:102E9000D9F00F931F93EF92FF92FF93EF939F93BD
:102EA0008F933F932F938FE496E09F938F93DF93BD
:102EB000CF930E94B1ED8DB79EB70E960FB6F894E2
:102EC0009EBF0FBE8DBF5BC00097C9F00F931F93CD
:102ED000EF92FF92FF93EF939F938F938FE396E090
:102EE0009F938F93DF93CF930E94B1EDEDB7FEB721
:102EF0003C960FB6F894FEBF0FBEEDBF40C03097B2
:102F0000B9F00F931F93EF92FF92FF93EF9383E338
:102F100096E09F938F93DF93CF930E94B1ED8DB78F
:102F20009EB70A960FB6F8949EBF0FBE8DBF27C0FE
:102F3000452BA9F00F931F93EF92FF928BE296E03F
:102F40009F938F93DF93CF930E94B1EDEDB7FEB7C0
:102F500038960FB6F894FEBF0FBEEDBF10C00F93AA
:102F60001F9387E296E09F938F93DF93CF930E9406
:102F7000B1ED0F900F900F900F900F900F90DF9189
:102F8000CF911F910F91FF90EF90DF90CF90089518
:102F90000F931F93CF93DF931F921F92CDB7DEB78E
:102FA000FC0184918F010F5F1F4F811102C08B01C3
:102FB00007C069837A8326DCF80169817A81F1CFC1
:102FC000D8018D918D01882311F01CDCF9CF0F9071
:102FD0000F90DF91CF911F910F9108950F931F9341
:102FE000CF93DF93EB01FC0184918F010F5F1F4FA3
:102FF000882319F007DCF801F7CF6AE070E0CE0112
:10300000DF91CF911F910F91A2CCCF92DF92EF92DF
:10301000FF92CF93DF936A017B01FC018491EF0162
:103020002196882319F0EEDBFE01F8CF4AE050E04C
:10303000C701B601DF91CF91FF90EF90DF90CF9065
:103040007CCCCF92DF92EF92FF92CF93DF936A0115
:103050007B01FC018491EF012196882319F0D2DBDA
:10306000FE01F8CF42E050E0C701B601DF91CF91F9
:10307000FF90EF90DF90CF90EDCCCF92DF92EF9268
:10308000FF92CF93DF936A017B01FC018491EF01F2
:103090002196882319F0B6DBFE01F8CF42E050E01C
:1030A000C701B601DF91CF91FF90EF90DF90CF90F5
:1030B000D1CCCF92DF92EF92FF92CF93DF936A0150
:1030C0007B01FC018491EF012196882319F09ADBA2
:1030D000FE01F8CF4AE050E0C701B601DF91CF9181
:1030E000FF90EF90DF90CF9003CCCF92DF92EF92E2
:1030F000FF920F931F93E090AE07F090AF070091FF
:10310000B0071091B1072091AA073091AB07409109
:10311000AC075091AD076091A6077091A707809109
:10312000A8079091A907E2EBCE2EE7E0DE2E0E94E1
:1031300047851F910F91FF90EF90DF90CF900895FA
:103140008F929F92AF92BF92CF92DF92EF92FF92B7
:103150000F931F93CF93DF9300D01F92CDB7DEB7AD
:10316000922EA32E6C01CC0CDD1CCC0CDD1CC601F8
:103170008A55984F7C01FC011082118212821382C1
:1031800049835A836B837C83B0DF49815A816B8189
:103190007C81F7014083518362837383B090CF05B4
:1031A00020E030E0A901B801892D9A2D0E9442E566
:1031B000811109C0C60183539C4FFC01B081A181DC
:1031C000D280C38004C0B02FA12FD92CCA2CE0908C
:1031D000AE07F090AF070091B0071091B1072091B2
:1031E000AA073091AB074091AC075091AD076091B1
:1031F000A6077091A7078091A8079091A907BF9291
:103200008B2E9A2EAD2CBC2CF2EBCF2EF7E0DF2EBE
:103210000E94DE790E9404A21092560C0F900F902B
:103220000F900F900F90DF91CF911F910F91FF9012
:10323000EF90DF90CF90BF90AF909F908F900895C8
:103240008091020680930306109201060895209152
:10325000020630E0F901E159FA4F8083C901019675
:103260008370992780930206809101068F5F809377
:1032700001060895CF93FC01C62F80818B3399F00E
:1032800080910106843078F42091020630E6239F75
:10329000C0011124BF01885F994F0E948DED8C2FD2
:1032A000D6DF81E001C080E0CF9108950F931F9396
:1032B000CF93DF93182F092FDDDF882331F1E8E862
:1032C000FCE08491EF012196882319F09BDAFE013E
:1032D000F8CFECE3FCE08491EF012196811103C06B
:1032E000C12FD02F03C08EDAFE01F5CF899188233C
:1032F00011F088DAFBCFE9E3FCE08491EF0121963D
:10330000882329F07FDAFE01F8CF80E001C081E058
:10331000DF91CF911F910F910895DF92EF92FF926D
:103320000F931F93CF93DF93CDB7DEB76E970FB692
:10333000F894DEBF0FBECDBF6091C8057091C9057E
:103340006115710559F14DE150E08E010F5F1F4F7E
:10335000C8010E941CED1E8EF8017F01E01AF10ADF
:10336000D190DD2019F08AE0D812F7CFF801EE0DE8
:10337000FF1D108260E0C80199DF882379F0DD200D
:10338000B1F08FEFE81AF80A8091C8059091C9054D
:103390008E0D9F1D9093C9058093C80581E02091F3
:1033A000C8053091C905232B39F480E005C010927F
:1033B000C9051092C805F2CF6E960FB6F894DEBF1D
:1033C0000FBECDBFDF91CF911F910F91FF90EF9076
:1033D000DF9008959093C9058093C8059ECF989873
:1033E000A09A0895269A2E9808951F93CF93DF935D
:1033F000F6DFF8DF60E970ED83E090E08BD9E2E37F
:10340000FCE08491EF012196882319F0FBD9FE019D
:10341000F8CFE8E8FCE08491EF012196882319F0C9
:10342000F1D9FE01F8CF14B710FF0AC0E9E2FCE0C1
:103430008491EF012196882319F0E4D9FE01F8CF99
:1034400011FF0AC0E8E1FCE08491EF012196882396
:1034500019F0D8D9FE01F8CF12FF0AC0E6E0FCE06F
:103460008491EF012196882319F0CCD9FE01F8CF81
:1034700013FF0AC0E5EFFBE08491EF01219688235A
:1034800019F0C0D9FE01F8CF15FF0AC0E4EEFBE049
:103490008491EF012196882319F0B4D9FE01F8CF69
:1034A00014BEEDEDFBE08491EF012196882319F025
:1034B000A9D9FE01F8CFE2EDFBE08491EF0121965E
:1034C000882319F09FD9FE01F8CFE8E8FCE0849149
:1034D000EF012196882319F095D9FE01F8CFE2EC8F
:1034E000FBE08491EF012196882319F08BD9FE012E
:1034F000F8CFE1EBFBE08491EF012196882319F0EE
:1035000081D9FE01F8CFE5EAFBE08491EF01219635
:10351000882319F077D9FE01F8CFEDE9FBE084911B
:10352000EF012196882319F06DD9FE01F8CFE2E969
:10353000FBE08491EF012196882319F063D9FE0105
:10354000F8CFE5E8FBE08491EF012196882319F09C
:1035500059D9FE01F8CFE8E8FCE08491EF0121960B
:10356000882319F04FD9FE01F8CFE6E7FBE08491FC
:10357000EF012196882319F045D9FE01F8CF0E946A
:103580001D5A6AE070E0E3D9EFE5FBE08491EF01BA
:103590002196882319F036D9FE01F8CF6AE070E051
:1035A00080ED94E0D4D98AE02DD981E080936F0535
:1035B0008093700580937105809372050E94CD7091
:1035C0008CE0EEEDF5E0A6EAB7E001900D928A9569
:1035D000E1F78BDD8EEC92E10E944DA60E9486DF22
:1035E0000E948EA11092530C0E94FBB40E94ECBF6B
:1035F000DF91CF911F910C94FBB4CF92DF92EF92A9
:10360000FF920F931F93CF93DF938091B907882385
:1036100009F4CFC080910106811102C01092070504
:10362000FF24F3944091350A5091360A6091370A8D
:103630007091380A8091310A9091320AA091330A30
:10364000B091340A481759076A077B0708F4F12C30
:10365000C0E0D0E0EE24E394B0E6DB2E80910106DA
:10366000843008F0A6C0F110A4C080910705811134
:10367000A0C080918C0990918D09A0918E09B09184
:103680008F098093350A9093360AA093370AB09336
:10369000380A84E899E00E94EB53C82EFF24F39483
:1036A0000091350A1091360A2091370A3091380A74
:1036B0004091310A5091320A6091330A7091340A74
:1036C0000417150726073707C0F4F12C8F3F2FEF9B
:1036D000920741F12AE0821709F43FC02DE08217DA
:1036E00009F43BC023E2821719F02AE3821348C091
:1036F00020910605211144C02BC0EFEFF9E0849121
:103700008F010F5F1F4F882319F07CD8F801F7CF86
:1037100087EB97E00E94056961E087EB97E00E94E4
:103720008C6416C0EEE8FCE084918F010F5F1F4FA0
:10373000882319F067D8F801F7CFE0EFF9E084911A
:103740008F010F5F1F4F882319F05CD8F801F7CF66
:1037500083E2C81202C0E092070510920605209786
:1037600009F47CCF80910206D89EC00DD11D112492
:10377000C85FD94F188280E06ADDC0E0D0E06ECF2C
:10378000CF35D10508F06ACF2BE3C21202C0E09218
:10379000060520910605211161CF90910206FE01D8
:1037A000D99EE00DF11D1124E85FF94F8083219629
:1037B00055CFDF91CF911F910F91FF90EF90DF9048
:1037C000CF9008950F931F93CF93DF930091CA0575
:1037D0001091CB0565E470E0C8010E9479EDEC0121
:1037E000C8010196209761F0188260E070E00E94A5
:1037F0003FE925E42883DF91CF911F910F91089530
:1038000060E070E0DF91CF911F910F910C943FE940
:103810008091CA059091CB054AE050E060E070E0ED
:1038200001960C94D8EB8091CA059091CB054AE0A3
:1038300050E060E070E001960C94A7EA8091CA0520
:103840009091CB054AE050E060E070E001960E9464
:10385000A7EACB0108958091CA059091CB054AE073
:1038600050E060E070E001960E94D8EBCB01089533
:103870008091CA059091CB054AE050E060E070E08D
:1038800001960E94A7EA97FD20C08091CA059091F9
:10389000CB054AE050E060E070E001960E94A7EAA4
:1038A0006F3F71058105910509F064F48091CA05A7
:1038B0009091CB054AE050E060E070E001960E94F4
:1038C000A7EA01C06FEF862F089580E008957ACFB0
:1038D00079CF78DF20E030E04AE754E40E9480E7C7
:1038E0000C94B6E5682F772767FD709580910406E4
:1038F000909105060E9479ED9093CB058093CA05BF
:1039000021E0892B09F420E0822F08950F931F9363
:10391000CF93DF93EC0184E5E5DF882319F1A8DF7D
:103920008823F1F0E8E8FCE084918F010F5F1F4FDE
:10393000882321F00E940214F801F6CF8DE40E9442
:1039400002146AE070E0CE0102D892DF682F70E0C6
:103950008DED99E043DB8AE00E94021481E007C00C
:1039600087DF02C08091CF058093780580E0DF91EA
:10397000CF911F910F910895CF92DF92EF92FF9216
:103980000F931F93CF93DF93EC01CC0FDD1FCC0F70
:10399000DD1FFE01E252FA4F20E030E0A901608114
:1039A0007181828193810E9469E4FE01E651FA4FA0
:1039B00020813181428153810E9469E46B017C0145
:1039C000CE018458934F47D88E010E521A4FA7014B
:1039D00096010E9469E4F801608371838283938376
:1039E000CE018059934F37D8CA5EDD4FA7019601AB
:1039F0000E9469E4688379838A839B83DF91CF91F6
:103A00001F910F91FF90EF90DF90CF9008958F92CC
:103A10009F92AF92BF92CF92DF92EF92FF920F935D
:103A20001F9380902F0290903002A0903102B090AE
:103A30003202E090AE07F090AF070091B00710910E
:103A4000B1072091AA073091AB074091AC07509184
:103A5000AD076091A6077091A7078091A807909184
:103A6000A907E091CF05EF93E2EBCE2EE7E0DE2E43
:103A70000E94DE790F901F910F91FF90EF90DF90E1
:103A8000CF90BF90AF909F908F9008958F929F920C
:103A9000AF92BF92CF92DF92EF92FF920F931F935C
:103AA0004B015C01E0909E07F0909F070091A007FA
:103AB0001091A10720919A0730919B0740919C0794
:103AC00050919D0760919607709197078091980794
:103AD00090919907E091CF05EF93F2EACF2EF7E0AE
:103AE000DF2E0E94DE790F901F910F91FF90EF90D3
:103AF000DF90CF90BF90AF909F908F90089580E11E
:103B0000E6E9F7E0A6EAB7E001900D928A95E1F7C1
:103B100008952F923F924F925F926F927F928F9271
:103B20009F92AF92BF92CF92DF92EF92FF920F934C
:103B30001F93CF93DF9300D01F92CDB7DEB75C0108
:103B40004B018A013C832B8340902F02509030021E
:103B50006090310270903202FA01C080D180E28020
:103B6000F380A70196016091AE077091AF07809135
:103B7000B0079091B1070E9442E587FF2FC0EB810B
:103B8000FC8120803180F281F983EB81FC81F3811B
:103B9000FA8320E030E0A901B10189819F2F0E94C2
:103BA00042E5811105C0212C312C30EC20E402C00B
:103BB00039812A81C101A32FB22F80932F029093C4
:103BC0003002A0933102B0933202C092AE07D0927D
:103BD000AF07E092B007F092B10719DFEB81FC81EB
:103BE000C080D180E280F38020E030E0A901B601FE
:103BF000C7010E9442E5811108C0C0900D02D0901B
:103C00000E02E0900F02F0901002C601D7018093DF
:103C10002F0290933002A0933102B0933202F5014B
:103C200080819181A281B3818093A6079093A70799
:103C3000A093A807B093A907F40180819181A28184
:103C4000B3818093AA079093AB07A093AC07B0937E
:103C5000AD07DDDEF801C080D180E280F380A701EE
:103C600096016091AE077091AF078091B007909177
:103C7000B1070E9445E7181664F5EB81FC81B0801E
:103C800001811281A38020E030E0A9016B2D702F0B
:103C9000812F9A2D0E9442E5811105C0B12C00E0D0
:103CA00010EC20E401C02A2D8B2D902FA12FB22FD4
:103CB00080932F0290933002A0933102B09332028E
:103CC000C092AE07D092AF07E092B007F092B10772
:103CD0009EDE0E9404A240922F0250923002609217
:103CE0003102709232020F900F900F900F90DF917F
:103CF000CF911F910F91FF90EF90DF90CF90BF90E9
:103D0000AF909F908F907F906F905F904F903F907B
:103D10002F9008959B01AC016AEA77E086EA97E06C
:103D2000F8CE9A014EEA57E0F4CECF93DF93CDB7A9
:103D3000DEB728970FB6F894DEBF0FBECDBF209137
:103D4000E6053091E7054091E8055091E9050E94AC
:103D500069E42091F2053091F3054091F40550910A
:103D6000F5050E9469E46D837E838F839887209197
:103D7000AE073091AF074091B0075091B1070E9454
:103D800045E7181654F419821A821B821C82BE0160
:103D90006F5F7F4FCE010596BDDF28960FB6F89472
:103DA000DEBF0FBECDBFDF91CF9108951F93CF939C
:103DB000DF93CDB7DEB72C970FB6F894DEBF0FBEFA
:103DC000CDBF182F8091530C811771F160E070E026
:103DD00080E291E4AADF4091A6075091A707609185
:103DE000A8077091A90749875A876B877C874091FC
:103DF000AA075091AB076091AC077091AD074D8356
:103E00005E836F83788719821A821B821C829E01CF
:103E10002F5F3F4F4EEA57E0BE016B5F7F4FCE01F1
:103E2000099677DE1093530C80E02C960FB6F89429
:103E3000DEBF0FBECDBFDF91CF911F9108952F92AE
:103E40003F924F925F926F927F928F929F92AF922A
:103E5000BF92CF92DF92EF92FF920F931F93CF9377
:103E6000DF9300D000D0CDB7DEB77C01FC01E75B6B
:103E7000F34F14918230910509F455C06701CC0CC1
:103E8000DD1CCC0CDD1CC601885A934F0E942B15FB
:103E90004B015C01612F772767FD7095872F972F66
:103EA0000E94E4E52B013C0120E030E040EC5FE3C0
:103EB000C501B4010E9480E7A30192010E9480E73E
:103EC000AB01BC0100E010E09801C70139D9C6017F
:103ED000845B934F1C010E942B159058A301920103
:103EE0000E9480E7AB01BC0100E010E09801C7012F
:103EF00027D986E0E0EEF2E0DE01119601900D9206
:103F00008A95E1F7F701EE0FFF1F21E030E02C0F5B
:103F10003D1FE20FF31F60817181161617060CF129
:103F2000E8E8FCE006C081E041DF882309F4A6CF81
:103F3000B9C084918F010F5F1F4F882321F00E9429
:103F40000214F801F6CFE3EDF8E084918F010F5FE2
:103F50001F4F882321F00E940214F801F6CF6AE077
:103F600070E0882777FD8095982F0E94E4E59B01FB
:103F7000AC01F601E353FC4F608171818281938132
:103F80000E9449E54B015C01C1010E942B159B0178
:103F9000AC010E9469E4A30192010E9480E7AB0199
:103FA000BC0195018401C701CBD8860106511A4F87
:103FB000F8011082118212821382C6018C59934F2C
:103FC0000E942B1596012A55384F5901F601E252ED
:103FD000FA4F20813181428153810E9469E4F801C6
:103FE00020813181428153810E9469E4F50160831F
:103FF000718382839383C701BFDCF2E0EF16F10483
:10400000D1F4209174053091750540917605509159
:1040100077056091AE077091AF078091B0079091DE
:10402000B1070E9468E46093AE077093AF07809376
:10403000B0079093B107F701E057F84F81E0808314
:10404000F701ED56F84F808350D8F601EA56F84F45
:10405000D601AA55B84F8D919D910D90BC91A02D80
:1040600080839183A283B38322E0E216F104D1F42A
:1040700080E026960FB6F894DEBF0FBECDBFDF916D
:10408000CF911F910F91FF90EF90DF90CF90BF9055
:10409000AF909F908F907F906F905F904F903F90E8
:1040A0002F9084CE26960FB6F894DEBF0FBECDBFFC
:1040B000DF91CF911F910F91FF90EF90DF90CF9004
:1040C000BF90AF909F908F907F906F905F904F9038
:1040D0003F902F900895AF92BF92CF92DF92EF92D0
:1040E000FF920F931F93CF93DF9300D01F92CDB712
:1040F000DEB719ECC12E13E0D12E06E9E02E07E061
:10410000F02E06EA17E087EFA82E85E0B82EF6011C
:1041100081916F01E7DB8823D1F054DBF501208129
:10412000211104C02091CE05222331F0F801208115
:1041300031814281538103C020E030E0A9010E9417
:1041400069E4F70160837183828393830AC0F80175
:1041500080819181A281B381F70180839183A283C1
:10416000B383F4E0EF0EF11C0C5F1F4F8FEFA81A22
:10417000B80AEDECCE16E3E0DE0649F686E4B2DBE3
:10418000882341F01FDB20E030E0A9010E9445E7D1
:10419000181614F18091B60783FD2EC02091B20746
:1041A0003091B3074091B4075091B5076091A207D1
:1041B0007091A3078091A4079091A5070E9468E4DD
:1041C00069837A838B839C83BE016F5F7F4F87E90E
:1041D00095E00E943F8710C0F5DA20E030E040E72C
:1041E00052E40E9449E560932F027093300280935D
:1041F000310290933202CECF0F900F900F900F901C
:10420000DF91CF911F910F91FF90EF90DF90CF90B2
:10421000BF90AF900895CF93DF93E8E8FCE08491DE
:10422000EF012196882321F00E940214FE01F7CFAE
:10423000EAECF9E08491EF012196882321F00E94B5
:104240000214FE01F7CFC0910606D09107068991AE
:10425000882319F00E940214FACFE7ECF9E0849168
:10426000EF012196882321F00E940214FE01F7CF6E
:10427000DF91CF910895CF92DF92EF92FF92CF938B
:10428000DF930E9462E16B017C0180910A02882326
:1042900009F468C020916D0530916E052115310536
:1042A00009F460C08091690590916A05A0916B0541
:1042B000B0916C05B701A601481B590B6A0B7B0B2B
:1042C00077FD63C02330310519F13CF4213031050D
:1042D0000CF448C0E8E8FCE007C02430310509F0E0
:1042E00041C0E8E8FCE02AC08491EF0121968823D0
:1042F00021F00E940214FE01F7CFE5EBF9E0849172
:10430000EF012196882371F10E940214FE01F7CF7C
:10431000E8E8FCE08491EF012196882321F00E94D7
:104320000214FE01F7CFEEE9F9E08491EF01219646
:104330008823C1F00E940214FE01F7CF8491EF019F
:104340002196882321F00E940214FE01F7CFE6E8AF
:10435000F9E08491EF012196882321F00E94021454
:10436000FE01F7CF20910A0230E0A8EEB3E00E94F0
:10437000C0E86C0D7D1D8E1D9F1D609369057093B7
:104380006A0580936B0590936C05DF91CF91FF9048
:10439000EF90DF90CF9008954F925F926F927F924F
:1043A0008F929F92AF92BF92CF92DF92EF92FF9245
:1043B0001F93CF93DF93CDB7DEB760970FB6F89416
:1043C000DEBF0FBECDBF0E9404A282E89CE00E9427
:1043D0004EDD0E94A31611E01093350288E582DAC3
:1043E000682E89E57FDA782E8AE57CDA582E61100E
:1043F00004C0711004C0812703C0711001C080E0A7
:1044000080930B0290E1E6EAF7E0A6E9B7E00190BD
:104410000D929A95E1F7811104C0611002C07720D6
:10442000B1F120E030E040E251E46091E6057091A6
:10443000E7058091E8059091E9050E9469E42091E3
:10444000F2053091F3054091F4055091F5050E9475
:1044500069E460939E0770939F078093A0079093F1
:10446000A1072091AE073091AF074091B00750915E
:10447000B1070E9445E7181654F419821A821B826C
:104480001C82BE016F5F7F4F8EE997E043DC809115
:104490000B02811106C0662009F4A3C0772009F43D
:1044A000A0C01092AA071092AB071092AC0710920E
:1044B000AD071092A6071092A7071092A8071092B6
:1044C000A9070E947518E9E4FCE0449088E59CE0A7
:1044D0000E942B156B017C018CE59CE00E942B1542
:1044E0004B015C019B01AC01C701B6010E9445E78D
:1044F00018162CF4A7019601C501B40104C0A5014A
:104500009401C701B6010E9449E59B01AC010E94DC
:1045100080E720E030E040E85FE30E9469E40E9429
:10452000EDE720E030E048E452E40E9480E769874C
:104530007A878B879C87EAE4FCE0149120E030E0E6
:1045400040EC5FE3C501B4010E9480E74B015C01D0
:10455000612F772767FD7095872F972F0E94E4E5DD
:104560009B01AC01C501B4010E9480E769837A8395
:104570008B839C8320E030E040EC5FE3C701B60111
:104580000E9480E76B017C01642D772767FD7095A1
:10459000872F972F0E94E4E59B01AC01C701B6016C
:1045A0000E9480E76D837E838F839887AE01475F8B
:1045B0005F4FBE016F5F7F4FCE010596B2DB109259
:1045C000560C1092AA071092AB071092AC071092EB
:1045D000AD071092A6071092A7071092A807109295
:1045E000A90780910B02811102C0662019F080E0BA
:1045F00090E025DC80910B02811102C0772019F038
:1046000081E090E01CDC80910B02811103C051100D
:1046100037C0CCC00E94751880E090E0A4E8B2E4F6
:104620008093960790939707A0939807B093990764
:1046300080E090E0A0E0B2E480939A0790939B071B
:10464000A0939C07B0939D078091AE079091AF0710
:10465000A091B007B091B10780939E0790939F07F8
:10466000A093A007B093A10719821A821B821C8213
:10467000AE014F5F5F4F6AE977E086E997E051DB73
:1046800080E00E948B1581119BC02091DE05309146
:10469000DF054091E0055091E1056091A60770911A
:1046A000A7078091A8079091A9070E9468E420912C
:1046B000EA053091EB054091EC055091ED050E9423
:1046C00068E46B017C018090AA079090AB07A090F2
:1046D000AC07B090AD074090E2055090E3056090C4
:1046E000E4057090E5058091EE059091EF05A091AD
:1046F000F005B091F1058D879E87AF87B88B20E0DC
:1047000030E040EA50E4C701B6010E9445E787FD6A
:104710002EC020E030E04EEF52E4C701B6010E9407
:1047200042E5181624F1A3019201C501B4010E94CB
:1047300068E42D853E854F8558890E9468E46B01A9
:104740007C0120E030E040EF51EC0E9445E787FD1E
:104750000EC020E030E04CEB52E4C701B6010E94ED
:1047600042E5181624F082E090E069DB1FC060E0AB
:104770008EE299E00E9488B4E8E8FCE084917F0131
:104780009FEFE91AF90A882321F00E940214F70129
:10479000F5CFECE1F9E084917F01AFEFEA1AFA0A74
:1047A000882321F00E940214F701F5CF0E947518AA
:1047B00080913402809335020E94C2160E94311506
:1047C00060960FB6F894DEBF0FBECDBFDF91CF91DC
:1047D0001F91FF90EF90DF90CF90BF90AF909F9090
:1047E0008F907F906F905F904F900895EF92FF921F
:1047F0001F93CF93DF931F92CDB7DEB7182FEEE74D
:10480000F9E084917F012FEFE21AF20A882331F058
:1048100099830E940214F7019981F3CFE12FF92FB8
:1048200084917F019FEFE91AF90A882321F00E9401
:104830000214F701F5CFE5E6F9E084917F01AFEFCF
:10484000EA1AFA0A882321F00E940214F701F5CF30
:104850000F90DF91CF911F91FF90EF9008958F926D
:104860009F92AF92BF92CF92DF92EF92FF920F93FF
:104870001F93CF93DF9300D01F92CDB7DEB785E4AF
:1048800031D8B82E811102C00E9404A299ECC92E21
:1048900093E0D92E2AEEE22E25E0F22E06EA17E06A
:1048A000812C912CA12CF60181916F011BD88823BA
:1048B00059F1F801208131814281538129833A8362
:1048C0004B835C830E94E21BF801608371838283C7
:1048D000938329813A814B815C81F3E08F16A1F0AB
:1048E0000E9468E49B01AC01F701608171818281C3
:1048F00093810E9469E4F7016083718382839383CB
:10490000C4013AD8AA24A394FFEF8F1A9F0A84E027
:10491000E80EF11C0C5F1F4FE4E08E16910419F6AF
:10492000AA2091F00F900F900F900F90DF91CF91F0
:104930001F910F91FF90EF90DF90CF90BF90AF90BD
:104940009F908F900C947518BB20A1F082EB97E09C
:104950000F900F900F900F90DF91CF911F910F91BB
:10496000FF90EF90DF90CF90BF90AF909F908F908F
:104970000C943B860F900F900F900F90DF91CF918A
:104980001F910F91FF90EF90DF90CF90BF90AF906D
:104990009F908F9008950F931F93CF93DF93CDB780
:1049A000DEB769970FB6F894DEBF0FBECDBF87E9BB
:1049B00095E00E9483A36E8B7F8B888F998FBE01B9
:1049C0006F5F7F4FCE0146960E94141760E0CE01C4
:1049D00001960E9441B4E8E8FCE084918F010F5FEA
:1049E0001F4F882321F00E940214F801F6CFE3E65E
:1049F000F6E084918F010F5F1F4F811104C08E017B
:104A00000F5F1F4F04C00E940214F801F2CFF8019B
:104A100081918F01882319F00E940214F8CF8AE057
:104A20000E9402148091810C8823F9F01092810C6D
:104A30006091C2127091C312882777FD8095982FDC
:104A40000E94E4E520913A0230913B0240913C0201
:104A500050913D020E9445E718163CF41092C31293
:104A60001092C21280E00E94D1A669960FB6F89407
:104A7000DEBF0FBECDBFDF91CF911F910F91089583
:104A80001F93CF93DF938091B90781110E9404A2F5
:104A9000C0910406D091050661E270E0CE010E944B
:104AA00079ED009711F0EC01219680E50E94721CCF
:104AB000882341F011E08091CA059091CB058C17B5
:104AC0009D0708F010E08091BA07882389F1212F13
:104AD00041E0BE0187EB97E00E94CA6583E50E9432
:104AE000721C882339F08091CA059091CB058C17F0
:104AF0009D0768F087EB97E00E948262111118C051
:104B000087E995E0DF91CF911F910C949A890E94DB
:104B1000131CAB01BC014093350A5093360A6093D5
:104B2000370A7093380A84E899E00E94B854E2CFBB
:104B3000DF91CF911F9108950F931F93CF93DF9330
:104B400083E50E94721C882389F10E941E1C8C013F
:104B50008F3F910509F050F580E50E94721C882373
:104B600031F00E941E1CEC0197FD20C002C0CDE078
:104B7000D0E0E9E7F3E081919191C817D907B1F04E
:104B800083E0E93CF807B9F761E08C2F0E9439E334
:104B9000602F8C2F0E9472E3B8018C2F0E9423E2B9
:104BA000279721F41093D1050093D005DF91CF9181
:104BB0001F910F91089588E690E00E94861C811154
:104BC0003AC08091B60783FD36C083E50E94721C0F
:104BD000882389F10E94E21B0E94B1E57093C31201
:104BE0006093C21280E00E94D1A60E94E21B20E0E6
:104BF00030E04AEA52E40E9442E518164CF087E998
:104C000095E00E94B98960E083ED94E00E9488B449
:104C10000E94E21B2091CA123091CB124091CC121B
:104C20005091CD120E9445E718162CF460E088ECF4
:104C300094E00C9488B40895CF93DF93E1E6F9E013
:104C40008491EF012196882321F00E940214FE0135
:104C5000F7CF6091CA127091CB128091CC129091D3
:104C6000CD1241E050E00E942A15EEE5F9E0849172
:104C7000EF012196882321F00E940214FE01F7CF54
:104C80006091C2127091C312882777FD8095982F8A
:104C90000E94E4E541E050E00E942A15EAE5F9E0CF
:104CA0008491EF012196882321F00E940214FE01D5
:104CB000F7CF8091780590E00E9494A46AE070E0BC
:104CC000DF91CF910C94A714DF92EF92FF920F9394
:104CD0001F93CF93DF9383E50E94721C882319F002
:104CE0000E94381C01C080E08093B607E8E8FCE031
:104CF0008491EF012196882321F00E940214FE0185
:104D0000F7CFE1ECF4E08491EF012196882321F0C4
:104D10000E940214FE01F7CF8091B607882381F12B
:104D200007EB14E0C0E0D0E020E08091B60790E00F
:104D30000C2E02C0959587950A94E2F780FF17C064
:104D4000DD24D394D20E222319F08CE20E940214A7
:104D5000F80125913491F90184917901FFEFEF1A5F
:104D6000FF0A882329F00E9402149701F4CFD22E63
:104D700021960E5F1F4FC530D10569F02D2DD5CF7F
:104D8000E3EBF4E08491EF012196882321F00E9467
:104D90000214FE01F7CF8AE0DF91CF911F910F91AE
:104DA000FF90EF90DF900C940214CF93DF9383E594
:104DB0000E94721C882351F00E94381C8D3308F029
:104DC0008CE380930A02DF91CF910895E8E8FCE03C
:104DD0008491EF012196882321F00E940214FE01A4
:104DE000F7CF40910A0250E060E070E08DE794E078
:104DF0000E9459188AE0DF91CF910C940214CF934E
:104E0000DF9383E50E94721C8823E9F00E941E1C38
:104E10008230B8F0EEE8FCE08491EF01219688231F
:104E200021F00E940214FE01F7CFE0E5F3E0849147
:104E3000EF012196882309F45FC00E940214FE014D
:104E4000F6CF813069F188E40E94721C882391F0CA
:104E50000E941E1C8A3A91053CF0843121E09207A1
:104E60002CF083E191E002C08AEA90E090937C13F9
:104E700080937B1386E40E94721C8823E9F10E94D0
:104E80001E1C8F3F910519F014F08FEF90E097FFF3
:104E900002C080E090E090937813809377132CC049
:104EA00088E40E94721C882391F00E941E1C8A3A9A
:104EB00091053CF0843121E092072CF083E191E0F0
:104EC00002C08AEA90E0909376138093751386E48B
:104ED0000E94721C882381F00E941E1C8F3F910546
:104EE00019F014F08FEF90E097FF02C080E090E09F
:104EF0009093721380937113DF91CF91089583E59E
:104F00000E94721C882359F00E94691C6093110250
:104F1000709312028093130290931402089588E50F
:104F20000E94721C811111C089E50E94721C8111BE
:104F30000CC08AE50E94721C811107C085E40E94A2
:104F4000721C811102C00C9480A20E9404A288E508
:104F50000E94721C882319F05F9A1092930789E5CA
:104F60000E94721C882319F08A9A109294078AE58D
:104F70000E94721C882351F09FB7F8948091080119
:104F80008160809308019FBF1092950785E40E947D
:104F9000721C882311F0129A089508953F924F923F
:104FA0005F926F927F928F929F92AF92BF92CF92B9
:104FB000DF92EF92FF920F931F93CF93DF9339EC21
:104FC000832E33E0932ECAEFDCE04AE0A42E4DE0BE
:104FD000B42E0AED1CE0312CF40181914F010E94A6
:104FE000721C882309F458C0F3E03F124FC00E949E
:104FF000E21B6B017C0120E030E040EA51E40E94BA
:1050000042E587FF3EC0A7019601688179818A81C8
:105010009B810E9449E52B013C019B01AC01609101
:10502000AA0C7091AB0C8091AC0C9091AD0C0E94CD
:1050300080E76093AA0C7093AB0C8093AC0C9093B8
:10504000AD0CA3019201F501608171818281938190
:105050000E9480E7F5016083718382839383F80166
:1050600060817181828193810E94E2E5A3019201B6
:105070000E9480E70E94B6E5F80160837183828315
:105080009383C882D982EA82FB8206C00E94E21B17
:10509000688379838A839B8333942496F4E0AF0EEC
:1050A000B11C0C5F1F4F84E0381296CFDF91CF9177
:1050B0001F910F91FF90EF90DF90CF90BF90AF9036
:1050C0009F908F907F906F905F904F903F900C9447
:1050D000A98683E50E94721C8823D9F00E94E21BF6
:1050E000AB01BC014093BE0C5093BF0C6093C00C4D
:1050F0007093C10C4093B60C5093B70C6093B80CEE
:105100007093B90C88E293E00E9421188AE00E9413
:10511000021480E50E94721C882399F00E94E21B11
:10512000AB01BC014093BE0C5093BF0C6093C00C0C
:105130007093C10C8BE093E00E9421188AE00E94DA
:10514000021482E50E94721C882399F00E94E21BDF
:10515000AB01BC014093BA0C5093BB0C6093BC0CE8
:105160007093BD0C8CEE92E00E9421188AE00E94A0
:10517000021484E50E94721C882399F00E94E21BAD
:10518000AB01BC014093B60C5093B70C6093B80CC4
:105190007093B90C8EEC92E00E9421188AE00C9476
:1051A0000214089583E50E94721C882351F00E9426
:1051B000E21B6093C20C7093C30C8093C40C909359
:1051C000C50C84E50E94721C882351F00E94E21BEA
:1051D0006093A60C7093A70C8093A80C9093A90CD5
:1051E00082E40E94721C882351F00E94081C609384
:1051F000C60C7093C70C8093C80C9093C90C88E5BB
:105200000E94721C882351F00E94E21B6093B20C32
:105210007093B30C8093B40C9093B50C8AE50E9404
:10522000721C882351F00E94E21B6093AE0C7093B5
:10523000AF0C8093B00C9093B10C85E40E94721C6B
:10524000882351F00E94E21B6093AA0C7093AB0C70
:105250008093AC0C9093AD0C08958F929F92AF9277
:10526000BF92CF92DF92EF92FF920F931F93CF9353
:10527000DF9359ECC52E53E0D52E66EAE62E67E0A3
:10528000F62E0EED15E0C0E0D0E0F60181916F0141
:105290000E94721C882309F10E94E21B4B015C01F1
:1052A000F80120813181428153810E9468E49B0191
:1052B000AC01F70160817181828193810E9469E470
:1052C000F7016083718382839383F80180829182E6
:1052D000A282B382CE010E94BC1C2196F4E0EF0EA4
:1052E000F11C0C5F1F4FC330D10579F60E94751871
:1052F000DF91CF911F910F91FF90EF90DF90CF90B2
:10530000BF90AF909F908F900C943115CF93DF9307
:10531000E8E8FCE08491EF012196882321F00E94C7
:105320000214FE01F7CF83E50E94721C882341F02E
:105330000E94381C91E0811101C090E090932202FC
:10534000EEEBF2E08491EF012196882321F00E9498
:105350000214FE01F7CF80912202882319F0EAEBB4
:10536000F2E002C0E6EBF2E08491EF01219688239F
:1053700021F00E940214FE01F7CFEEEAF2E08491E0
:10538000EF012196882321F00E940214FE01F7CF3D
:105390004091D2055091D3056091D4057091D50507
:1053A0008CEA92E00E9421184091D6055091D705D1
:1053B0006091D8057091D90589EA92E00E94211880
:1053C0004091DA055091DB056091DC057091DD05B7
:1053D00086EA92E00E942118EEE9F2E08491EF0162
:1053E0002196882321F00E940214FE01F7CF4091FC
:1053F00016025091170260911802709119028CE9FF
:1054000092E00E94211840911A0250911B02609173
:105410001C0270911D0289E992E00E9421184091BE
:105420001E0250911F02609120027091210286E9B4
:1054300092E00E9421188AE0DF91CF910C9402142F
:10544000CF93DF9300D01F92CDB7DEB783E50E94E4
:10545000721C882319F00E942B1C02C084E091E08A
:105460009C838B8380E50E94721C882349F00E94F4
:105470002B1C893823E1920728F088E893E102C0C9
:1054800088EE93E09A838983AE014D5F5F4FBE0142
:105490006F5F7F4F89E795E00E94DB160F900F90BA
:1054A0000F900F90DF91CF910895CF93DF9385E414
:1054B0000E94721C811110C080E50E94721C88231A
:1054C00099F00E94E21B60935A0270935B028093F2
:1054D0005C0290935D0208C00E941E1C18161906FB
:1054E0005CF7EEE8FCE08CC089E40E94721C882323
:1054F00081F00E94E21B2CE933E549E45EE30E945F
:1055000080E76093560270935702809358029093FD
:10551000590284E40E94721C882381F00E94E21BDD
:105520002CE933E549E45EE30E9449E560935202C9
:105530007093530280935402909355020E947DA46D
:10554000E8E8FCE08491EF012196882321F00E9495
:105550000214FE01F7CFE2E9F2E08491EF01219617
:10556000882321F00E940214FE01F7CF60915A02B5
:1055700070915B0280915C0290915D0242E050E08C
:105580000E942A15EEE8F2E08491EF01219688232B
:1055900021F00E940214FE01F7CF2CE933E549E423
:1055A0005EE360915602709157028091580290918B
:1055B00059020E9449E542E050E00E942A15EAE8BB
:1055C000F2E08491EF012196882321F00E940214D9
:1055D000FE01F7CF2CE933E549E45EE36091520226
:1055E0007091530280915402909155020E9480E77D
:1055F00042E050E00E942A1510C00E940214FE01F1
:105600008491EF0121968111F8CFC6E3D3E089910F
:10561000882319F00E940214FACF8AE0DF91CF911B
:105620000C940214CF93DF9383E50E94721CC82F61
:105630008823A1F00E94E21B60934E0270934F02F8
:105640008093500290935102D1E020E030E0A90114
:105650000E9442E58111D0E0D093AF1280E50E9414
:10566000721C8823D1F020E030E0A90160914E0245
:1056700070914F0280915002909151020E9442E538
:10568000882339F00E94381C91E0811103C090E01A
:1056900001C091E09093AF1239C0C11137C0E8E862
:1056A000FCE08491EF012196882321F00E940214EE
:1056B000FE01F7CF8091AF12882319F069E074E002
:1056C00002C067E473E087E792E00E94C81720E019
:1056D00030E040E05FE360914E0270914F028091B4
:1056E0005002909151020E9469E40E94B1E586E661
:1056F00092E00E94EE17E2E6F2E08491EF0121963B
:10570000882321F00E940214FE01F7CFDF91CF9190
:105710000895EF92FF920F93CF93DF9385E40E9459
:10572000721C882321F00E941E1CEC0102C0C0E004
:10573000D0E083E40E94721C882321F00E941E1C8A
:105740007C0103C075E0E72EF12C85E50E94721CF8
:10575000882329F00E94381C01E0811101C000E07B
:1057600083E50E94721C882319F00E94E21B06C088
:10577000D7FD09C060E070E086E193E4209739F43A
:105780001092780504C060E070E08CE892E410921A
:105790006E0510926D059701AE010E9486A781E00B
:1057A00090E090936E0580936D05DF91CF910F91FE
:1057B000FF90EF9008952F923F924F925F926F92D9
:1057C0007F928F929F92AF92BF92CF92DF92EF9291
:1057D000FF920F931F93CF93DF93CDB7DEB72A9736
:1057E0000FB6F894DEBF0FBECDBF80E997E0988773
:1057F0008F83E6EA2E2EE7E03E2EEEEDF5E0FE8307
:10580000ED8300E010E08F819885805997409A875A
:105810008987EF81F8858191F887EF83882309F4E0
:10582000A3C0F801EA5EFD4F20813181428153819E
:10583000F801EE52FA4F60817181828193810E945A
:1058400069E420E030E040E05FE30E9480E79B01F4
:10585000AC01F10160817181828193810E9445E7F1
:10586000181634F4C8018C59934F0E942B1503C0AD
:1058700060E070E0CB01F101408051806280738074
:10588000ED81FE81C080D180E280F380A701960186
:105890000E9469E4F801E651FA4F2081318142818A
:1058A00053810E9469E49B01AC01C301B2010E94D3
:1058B00068E44B015C0120E030E040EA51EC0E94DA
:1058C00045E7181664F520E030E040EA51E4C501F0
:1058D000B4010E9442E587FF22C0A5019401C701DF
:1058E000B6010E9468E44B015C01A70196010E9489
:1058F00068E49B01AC01C301B2010E9469E4F101BB
:105900006083718382839383ED81FE8180829182A3
:10591000A282B38289859A850E94BC1C25C0EEE8CC
:10592000FCE084918F010F5F1F4F882321F00E94BC
:105930000214F801F6CFE4E4F2E084918F010F5FE6
:105940001F4F882321F00E940214F801F6CF86E34E
:1059500092E00E949FB488E290E09A83898388EC69
:1059600090E09C838B832FC0F4E02F0E311C0C5FE2
:105970001F4F8D819E8104969E838D830C3011056F
:1059800009F041CF0E9475180E94311560E086E24F
:1059900092E00E9488B483E992E09A83898308ECBC
:1059A00010E01C830B83AE014F5F5F4FBE016D5F44
:1059B0007F4F89E795E00E94DB168AEB92E09A839D
:1059C00089831C830B83AE014F5F5F4FBE016D5F08
:1059D0007F4F89E795E00E94DB162A960FB6F89470
:1059E000DEBF0FBECDBFDF91CF911F910F91FF9012
:1059F000EF90DF90CF90BF90AF909F908F907F906F
:105A00006F905F904F903F902F900895CF92DF92CC
:105A1000EF92FF92E8E8FCE084917F019FEFE91AA2
:105A2000F90A882321F00E940214F701F5CFEDE175
:105A3000F2E084917F019FEFE91AF90A882321F0AF
:105A40000E940214F701F5CF80E20E9402148AE559
:105A50000E94721C882309F450C00E94E21B6B0153
:105A60007C0120E030E040EA51EC0E9445E787FDF0
:105A70000AC020E030E040EA51E4C701B6010E94CC
:105A800042E518161CF4E5E1F2E00FC0C09274057F
:105A9000D0927505E0927605F092770542E050E0ED
:105AA000C701B6010E942A1534C084917F019FEF7F
:105AB000E91AF90A882321F00E940214F701F5CFB0
:105AC0006AE070E08CEE9FEF0E94A71480E20E94D3
:105AD0000214EDE0F2E084917F019FEFE91AF90AE8
