:100000000C943A130C946B130C946B130C946B13A9
:100010000C946B130C946B130C946B130C946B1368
:100020000C946B130C946B130C946B130C946B1358
:100030000C946B130C946B130C946B130C946B1348
:100040000C946B130C94AF8F0C946B130C946B1378
:100050000C946B130C946B130C943C790C940C66FD
:100060000C946B130C94703F0C946B130C946B13E7
:100070000C946B130C946B130C946B130C946B1308
:100080000C946B130C946B130C946B130C946B13F8
:100090000C946B130C946B130C946B130C946B13E8
:1000A0000C946B130C946B130C946B130C946B13D8
:1000B0000C946B130C946B130C946B130C946B13C8
:1000C0000C946B130C946B130C946B130C946B13B8
:1000D0000C946B130C946B130C946B130C946B13A8
:1000E0000C946B13881C8E1C941C9F1CAA1C2F1D27
:1000F000B51CBE1CC71CD21CDD1CE81CF81C031D53
:100100002F1D0E1D191D241DDE64E164D064D4640E
:10011000DA641865E564E964EF64F364F764FD6428
:100120000165056518650B650F6513659979A979F2
:10013000C879CD79D079D579D879DD79E079E57943
:10014000E879ED79F779084AD73B3BCE016E84BC5C
:10015000BFFDC12F3D6C74319ABD56833DDA3D0021
:10016000C77F11BED9E4BB4C3E916BAAAABE00006A
:1001700000803F05A84CCDB2D44EB93836A9020C48
:1001800050B9918688083CA6AAAA2ABE0000008021
:100190003F00434F4D4D554E49434154494F4E004A
:1001A00044525952554E004552524F525300494EF7
:1001B000464F004543484F00536C6565702E2E2E08
:1001C000005A2070726F6265206F75742E20626510
:1001D000640A005A2070726F6265206F75742E2059
:1001E00062656400205A3A200020593A2000426596
:1001F0006420583A20004E6F206D6F76652E0045C2
:100200006E642066696C65206C6973740A004265CF
:1002100067696E2066696C65206C6973740A0053A7
:1002200044207072696E74696E672062797465200B
:10023000004E6F74205344207072696E74696E674B
:100240000A0046696C652064656C657465643A00F3
:1002500044656C6574696F6E206661696C65642CB9
:100260002046696C653A20006F70656E2066616992
:100270006C65642C2046696C653A20005072696E8A
:10028000742074696D653A20005374616E64617204
:100290006420446576696174696F6E3A20004D652B
:1002A000616E3A20002020207369676D613A20005A
:1002B000206D65616E3A20002020207A3A200020CF
:1002C0006F662000205A00205900205800476F69AF
:1002D0006E6720746F3A00436C6F636B7769736568
:1002E0000A00436F756E7465722D00204469726553
:1002F0006374696F6E3A2000202020616E676C6520
:100300003A20005374617274696E67207261646987
:1003100075733A2000506F736974696F6E696E6708
:10032000207468652070726F62652E2E2E0A003F61
:100330004E756D626572206F66206C65677320690B
:100340006E206D6F76656D656E74206E6F742070B3
:100350006C61757369626C652028302D3135292EEA
:100360000A00590058003F53616D706C6520736935
:100370007A65206E6F7420706C61757369626C654C
:100380002028342D3530292E0A004D3438205A2D9E
:1003900050726F6265205265706561746162696C4C
:1003A00069747920746573740A003F566572626FD0
:1003B0007365204C6576656C206E6F7420706C617F
:1003C000757369626C652028302D34292E0A006D02
:1003D0000046696C616D656E7420757365643A20C2
:1003E0000053746174733A20002C204C6F6E676563
:1003F0007374206A6F623A2000546F74616C2074C9
:10040000696D653A200053746174733A20002C20A2
:100410004661696C65643A20002C2046696E6973F8
:100420006865643A20005072696E74733A20005314
:10043000746174733A200048656174696E672E2E8A
:100440002E00526F626F43322072656164792E0014
:10045000B301AE01A701A00192016F666600444599
:100460004255473A004B494C4C45442E20004D31F3
:1004700031332053006F6B0048656174696E6720EB
:10048000646F6E652E003F0A0020573A0048656190
:1004900074696E672E2E2E00526F626F4332207287
:1004A000656164792E00526F626F4332207265611C
:1004B00064792E004649524D574152455F4E414D99
:1004C000453A4D61726C696E20312E312E322D43CA
:1004D0003220284769746875622920534F5552436A
:1004E000455F434F44455F55524C3A68747470738E
:1004F0003A2F2F6769746875622E636F6D2F526F84
:10050000626F33442F4D61726C696E2D43322050FF
:10051000524F544F434F4C5F56455253494F4E3AFA
:10052000312E30204D414348494E455F5459504586
:100530003A526F626F4332204558545255444552E7
:100540005F434F554E543A3120555549443A6365FF
:100550006465326132662D343161322D343734387E
:100560002D396231322D6335356336326633363795
:1005700066660A00205A00205900580020204D616C
:10058000783A2000205A00205900580020204D6958
:100590006E3A20004F6E20004F666600536F6674FF
:1005A00020656E6473746F70733A200020643A00A3
:1005B00020693A0020703A0043290A0061626C65A4
:1005C0006420286D696E2074656D702000436F6C27
:1005D00064206578747275646573206172652000AB
:1005E00023646566696E65202044454641554C5438
:1005F0005F4B64200023646566696E652020444576
:100600004641554C545F4B69200023646566696E12
:1006100065202044454641554C545F4B70200050A6
:100620004944204175746F74756E652066696E6902
:1006300073686564212050757420746865206C614E
:100640007374204B702C204B6920616E64204B64C6
:1006500020636F6E7374616E74732066726F6D20A9
:1006600062656C6F7720696E746F20436F6E666988
:100670006775726174696F6E2E680A005049442074
:100680004175746F74756E65206661696C6564216F
:100690002074696D656F75740A0050494420417576
:1006A000746F74756E65206661696C656421205491
:1006B000656D706572617475726520746F6F206806
:1006C0006967680A00204B643A2000204B693A2091
:1006D00000204B703A20000A20436C6173736963F9
:1006E00020504944200A002054753A2000204B75C0
:1006F0003A2000206D61783A2000206D696E3A2022
:100700000020643A200020626961733A20003A2098
:10071000007A5F6D61783A20007A5F6D696E3A20E9
:10072000005A204F6666736574004163746976658C
:100730002045787472756465723A2000220A00556B
:100740006E6B6E6F776E20636F6D6D616E643A20B5
:1007500022002569730025696D20256973002569CC
:10076000682025696D202569730025696420256945
:10077000682025696D202569730025697920256920
:1007800064202569682025696D20256973004E6FF6
:10079000204C696E65204E756D62657220776974B4
:1007A0006820636865636B73756D2C204C6173748E
:1007B000204C696E653A20004B494C4C45442E2034
:1007C0000053544F505045442E20005072696E74AF
:1007D00065722073746F7070656420647565207431
:1007E0006F206572726F72732E204669782074686C
:1007F00065206572726F7220616E6420757365206A
:100800004D39393920746F20726573746172742E9A
:10081000202854656D706572617475726520697306
:100820002072657365742E2053657420697420618D
:10083000667465722072657374617274696E67297B
:100840000A004E6F20436865636B73756D2077698E
:100850007468206C696E65206E756D6265722C20FF
:100860004C617374204C696E653A2000636865635F
:100870006B73756D206D69736D617463682C204CAA
:10088000617374204C696E653A20004C696E652076
:100890004E756D626572206973206E6F74204C61B5
:1008A0007374204C696E65204E756D6265722B31D4
:1008B0002C204C617374204C696E653A20004D31D8
:1008C0003130004D3331004D383420582059205AF2
:1008D00020450053442072656164206572726F7216
:1008E0000A00446F6E65207072696E74696E6720CD
:1008F00066696C650A0020496E76616C69642065E2
:100900007874727564657220000000F4420000F88B
:100910004200002043000000000000000000000032
:1009200000205A3A200020593A200042656420589D
:100930003A200020746F6F206C6F6E6720657874AA
:10094000727573696F6E2070726576656E7465641A
:100950000A0020636F6C6420657874727573696F28
:100960006E2070726576656E7465640A0020706F23
:10097000736974696F6E206F7574206F6620726181
:100980006E67652E0A003F50726F62652000202B53
:10099000000A436F72726563746564204265642067
:1009A0004865696768742076732E20426564205418
:1009B0006F706F6C6F67793A0A00202B000A4265EE
:1009C000642048656967687420546F706F6772614E
:1009D0007068793A0A2020202B2D2D2D204241438A
:1009E0004B202D2D2B0A2020207C20202020202071
:1009F00020202020207C0A204C207C202020202821
:100A00002B29202020207C20520A2045207C2020D9
:100A10002020202020202020207C20490A20462041
:100A20007C20282D29204E20282B29207C20470A95
:100A30002054207C20202020202020202020207CCA
:100A400020480A2020207C20202020282D2920201A
:100A500020207C20540A2020207C202020202020C0
:100A600020202020207C0A2020204F2D2D2046529F
:100A70004F4E54202D2D2B0A2028302C30290A00CF
:100A80004D65616E206F662073616D706C656420CA
:100A9000706F696E74733A200020643A20002062FF
:100AA0003A200045716E20636F656666696369650B
:100AB0006E74733A20613A200028422961636B000A
:100AC000284629726F6E740028522969676874007D
:100AD000284C29656674003F4E756D626572206F03
:100AE000662070726F626564202850296F696E7489
:100AF0007320697320696D706C61757369626C65D0
:100B0000202832206D696E696D756D292E0A00529C
:100B1000756E6E696E6720696E204452592D52556C
:100B20004E206D6F64650A00473239204175746F3D
:100B300020426564204C6576656C696E670A003FEB
:100B40002856296572626F7365204C6576656C2046
:100B5000697320696D706C61757369626C652028BA
:100B6000302D34292E0A0053442063617264206FB3
:100B70006B0A006F70656E526F6F74206661696CEE
:100B800065640A00766F6C756D652E696E697420F8
:100B90006661696C65640A00534420696E6974205B
:100BA0006661696C0A006175746F25692E67004D76
:100BB0003234004D32332025730057726974696EE8
:100BC0006720746F2066696C653A20006F70656EEF
:100BD000206661696C65642C2046696C653A20006A
:100BE0006F70656E206661696C65642C2046696C67
:100BF000653A200046696C652073656C65637465B1
:100C0000640A002053697A653A200046696C6520C1
:100C10006F70656E65643A20006F70656E20666166
:100C2000696C65642C2046696C653A200020666911
:100C30006C653A20004E6F7720002220706F7300A1
:100C40002220706172656E743A2200535542524FF1
:100C50005554494E452043414C4C207461726765A0
:100C6000743A22004B494C4C45442E200074727952
:100C7000696E6720746F2063616C6C207375622DE0
:100C800067636F64652066696C6573207769746853
:100C900020746F6F206D616E79206C6576656C7362
:100CA0002E204D4158206C6576656C2069733A00A2
:100CB0004572726F723A004573746570732F6D6D73
:100CC000004573746570732F6D6D005A7374657091
:100CD000732F6D6D005A73746570732F6D6D0059AD
:100CE00073746570732F6D6D005973746570732F15
:100CF0006D6D005873746570732F6D6D005873744B
:100D00006570732F6D6D00412D74726176656C0096
:100D1000412D74726176656C00412D72657472614B
:100D2000637400412D7265747261637400416D617A
:100D300078204500416D6178204500416D61782043
:100D40005A00416D6178205A00416D617820590048
:100D5000416D6178205900416D6178205800416DE6
:100D600061782058005654726176206D696E005685
:100D700054726176206D696E00566D696E00566D15
:100D8000696E00566D6178204500566D617820458A
:100D900000566D6178205A00566D6178205A0056D1
:100DA0006D6178205900566D6178205900566D614B
:100DB00078205800566D617820580056652D6A6578
:100DC000726B0056652D6A65726B00567A2D6A65E6
:100DD000726B00567A2D6A65726B005678792D6AAF
:100DE00065726B005678792D6A65726B004163639A
:100DF000656C00416363656C005A204F66667365DD
:100E000074005A204F666673657400436F6E747287
:100E10006F6C0046696C2E204469612E0046696C37
:100E20002E204469612E004F6666004F6E200045FB
:100E300020696E206D6D3300436F6E74726F6C00AD
:100E400043616E6E6F7420656E7465722073756297
:100E50006469723A2000052E2E004D61696E0043D0
:100E60006172642072656D6F7665640043617264BF
:100E700020696E73657274656400000021002400AF
:100E800027002A002D00300033000101000004017A
:100E900007010A0100002200250028002B002E0077
:100EA0003100340002010000050108010B010000BF
:100EB00020002300260029002C002F003200000112
:100EC00000000301060109010505050507050808DD
:100ED0000808020202020A0A0808040404040101C4
:100EE00001010101010103030303030303030407D9
:100EF00007070C0C0C0C0C0C0C0C02020202060670
:100F00000606060606060B0B0B0B0B0B0B0B010262
:100F1000102020080810204010204080020102010B
:100F200008040201010204081020408080402010C3
:100F3000080402018004020180402010080402011C
:100F40000804020101020408102040800102040884
:100F50001020408000000A0B02090C0D0E08070348
:100F6000040100000000000000000000000000007C
:100F70000000000000000000000000000000000071
:100F8000121110000000000000000000000000002E
:100F9000000000000000000000004D6F7665205842
:100FA000004D6F76652059004D6F7665205A0045DB
:100FB00078747275646572004578747275646572D0
:100FC000004D6F7665205A004D6F76652059004DB3
:100FD0006F76652058004D6F7665206178697300E3
:100FE0004D6F766520302E316D6D004D6F7665202A
:100FF000316D6D004D6F76652031306D6D00507232
:10100000657061726500526573746F726520666108
:10101000696C73616665004C6F6164206D656D6F0E
:1010200072790053746F7265206D656D6F7279000F
:1010300046696C616D656E74004D6F74696F6E000A
:1010400054656D7065726174757265004D61696E8D
:1010500000507265686561742041425320636F6E71
:1010600066005072656865617420504C4120636F62
:101070006E66005049442D44005049442D440050B0
:1010800049442D49005049442D49005049442D50B0
:10109000005049442D500020022046616374002016
:1010A000022046616374002002204D617800200216
:1010B000204D6178002002204D696E002002204DF5
:1010C000696E004F6666004F6E20004175746F7444
:1010D000656D700046616E207370656564004661E1
:1010E0006E207370656564004E6F7A7A6C65004E91
:1010F0006F7A7A6C6500436F6E74726F6C00537414
:101100006F7265206D656D6F7279004E6F7A7A6CC3
:1011100065004E6F7A7A6C650046616E207370656B
:1011200065640046616E2073706565640054656D8A
:1011300070657261747572650053746F7265206DAD
:10114000656D6F7279004E6F7A7A6C65004E6F7ABA
:101150007A6C650046616E20737065656400466157
:101160006E2073706565640054656D70657261749E
:10117000757265004B494C4C45442E2000202D20B3
:10118000496E76616C696420657874727564657205
:10119000206E756D62657220210A002D2D2D2D2D7A
:1011A0002D007C4D61726C696E7C002D2D2D2D2DD6
:1011B0002D00687474703A2F2F6D61726C696E66C1
:1011C000772E6F726700687474703A2F2F6D61729A
:1011D0006C696E66772E6F72670020312E312E3269
:1011E0002D4332002020506C616E6E657242756630
:1011F00066657242797465733A20002046726565AF
:10120000204D656D6F72793A200046656220323557
:1012100020323031370A00436F6D70696C65643A73
:10122000200028726F626F290A00207C20417574AB
:10123000686F723A2000323031362D31302D313620
:101240002031363A303000204C6173742055706480
:10125000617465643A200020312E312E322D4332E4
:101260000A004D61726C696E0020536F667477617D
:1012700072652052657365740A0020576174636853
:10128000646F672052657365740A002042726F773D
:101290006E206F75742052657365740A002045785E
:1012A0007465726E616C2052657365740A00506FCC
:1012B00077657255700A0073746172740A00657202
:1012C000726F722077726974696E6720746F20661E
:1012D000696C650A00456E6473746F7073202563D2
:1012E00020256320256320256300205A3A002059D9
:1012F0003A0020583A00656E6473746F707320680A
:1013000069743A2000446F6E6520736176696E6778
:101310002066696C652E0A004D3239006265640AE8
:10132000002C2073797374656D2073746F70706511
:101330006421204865617465725F49443A20005415
:101340004845524D414C2052554E41574159005449
:101350006865726D616C2052756E617761790048C5
:10136000656174696E67206661696C6564004865D3
:101370006174696E67206661696C656400486561C7
:1013800074696E67206661696C65640048656174A4
:10139000696E67206661696C6564004572723A2007
:1013A0004D415854454D50004D415854454D5020E5
:1013B000747269676765726564004572723A204DA0
:1013C000494E54454D50004D494E54454D502074A2
:1013D00072696767657265640025753A25303275F4
:1013E00000253032753A25303275002D2D2D0053F1
:1013F00044005A005900580001200070012C01904F
:10140000012701B0012201C0011D01F001180110E6
:1014100002130130020E016002090190020401C0B2
:1014200002FF000003FA004003F5008003F000D043
:1014300003EB002004E6007004E100E004DC00405F
:1014400005D700C005D2004006CD00D006C80080F8
:1014500007C3003008BE00F008B900C009B400B0EE
:101460000AAF00B00BAA00D00CA500000EA00050DF
:101470000F9B00C01096005012910000148C00C009
:10148000158700B0178200B0197D00D01B780000CE
:101490001E730040206E0090226900F0246400401A
:1014A000275F0090295A00E02B5500102E50002095
:1014B000304B0010324600E033410090353C0010C4
:1014C00037370070383200A0392D00B03A2800A01C
:1014D0003B2300603C1E00103D1900903D1400109D
:1014E0003E0F00703E0A00C03E0500003F00004372
:1014F000616E6E6F74206F70656E207375626469C3
:10150000722000206669727374005A0059005800F6
:10151000486F6D6520002066697273740A005A0076
:1015200059005800486F6D6520006563686F3A0088
:10153000627573793A2070617573656420666F72A5
:1015400020696E7075740A00627573793A20706153
:101550007573656420666F7220757365720A006228
:101560007573793A2070726F63657373696E670A79
:10157000004B494C4C45442E20004B494C4C4544B3
:101580002E2000506C656173652072657365740070
:101590005052494E5445522048414C544544005005
:1015A00072696E7465722068616C7465642E206B5C
:1015B000696C6C28292063616C6C6564210A0022C7
:1015C0000A00656E7175657565696E672022000099
:1015D0000000000000F842000000005761726E69D0
:1015E0006E673A20486F6D696E672042756D702096
:1015F00044697669736F72203C20310A000000A0B4
:10160000400000A040000000400000F4420000F84C
:101610004200002043FF01FF000021104220633000
:101620008440A550C660E770088129914AA16BB13A
:101630008CC1ADD1CEE1EFF13112100273325222E2
:10164000B5529442F772D662399318837BB35AA38A
:10165000BDD39CC3FFF3DEE36224433420040114B2
:10166000E664C774A44485546AA54BB528850995DA
:10167000EEE5CFF5ACC58DD5533672261116300682
:10168000D776F6669556B4465BB77AA7199738872A
:10169000DFF7FEE79DD7BCC7C448E5588668A77842
:1016A0004008611802282338CCC9EDD98EE9AFF97A
:1016B000488969990AA92BB9F55AD44AB77A966A22
:1016C000711A500A333A122AFDDBDCCBBFFB9EEBCA
:1016D000799B588B3BBB1AABA66C877CE44CC55CF2
:1016E000222C033C600C411CAEED8FFDECCDCDDD1A
:1016F0002AAD0BBD688D499D977EB66ED55EF44EC2
:10170000133E322E511E700E9FFFBEEFDDDFFCCF69
:101710001BBF3AAF599F788F8891A981CAB1EBA1BD
:101720000CD12DC14EF16FE18010A100C230E32039
:101730000450254046706760B9839893FBA3DAB3E1
:101740003DC31CD37FE35EF3B1029012F322D23289
:101750003542145277625672EAB5CBA5A8958985B1
:101760006EF54FE52CD50DC5E234C324A0148104D9
:101770006674476424540544DBA7FAB79987B89781
:101780005FE77EF71DC73CD7D326F2369106B01629
:1017900057667676154634564CD96DC90EF92FE941
:1017A000C899E9898AB9ABA9445865480678276879
:1017B000C018E1088238A3287DCB5CDB3FEB1EFB21
:1017C000F98BD89BBBAB9ABB754A545A376A167AC9
:1017D000F10AD01AB32A923A2EFD0FED6CDD4DCDF1
:1017E000AABD8BADE89DC98D267C076C645C454C19
:1017F000A23C832CE01CC10C1FEF3EFF5DCF7CDFC1
:101800009BAFBABFD98FF89F176E367E554E745E68
:10181000932EB23ED10EF01E24F4D43050C38E204D
:10182000C2A24017828B7011127A910D816CD90A75
:10183000A861E108C7586607615143061E4B5D0564
:10184000C145A7041A411104093D980371393103B8
:101850004036DB0265339102D4305402802E1D02E3
:10186000632CEE01752AC501B028A0011027810163
:101870008F2564012B244B01E0223401AC211F0190
:101880008D200D01801FFC00841EED00971DDF00E0
:10189000B81CD200E61BC600201BBC00641AB200B4
:1018A000B219A8000A19A0006A189900D11791006E
:1018B00040178B00B516840031167E00B3157900F1
:1018C0003A157300C7146F0058146A00EE136600CF
:1018D0008813630025135E00C7125B006C1257006B
:1018E00015125400C111510070114F0021114B000D
:1018F000D61049008D1047004610440002104200E7
:10190000C00F4000800F3E00420F3C00060F3B001E
:10191000CB0E3800930E37005C0E3500270E3400D6
:10192000F30D3200C10D3100900D3000600D2E001E
:10193000320D2D00050D2C00D90C2B00AE0C29000A
:10194000850C29005C0C2700350C27000E0C2600A6
:10195000E80B2400C40B2400A00B23007D0B230004
:101960005A0B2100390B2100180B2000F80A1F0028
:10197000D90A1E00BB0A1E009D0A1D00800A1D0018
:10198000630A1C00470A1B002C0A1B00110A1A00DC
:10199000F7091A00DD091900C4091900AB0919007B
:1019A000920917007B091800630917004C091600FB
:1019B00036091600200916000A091500F508150059
:1019C000E0081400CC081400B8081400A40814009F
:1019D000900813007D0812006B08130058081200CD
:1019E00046081200340811002308110012081100E3
:1019F00001081100F0071000E0071000D0071000E8
:101A0000C0071000B0070F00A107100091070E00DB
:101A100083070F0074070F0065070E0057070E00BD
:101A200049070E003B070D002E070E0020070D0092
:101A300013070D0006070D00F9060C00ED060D005A
:101A4000E0060C00D4060C00C8060C00BC060C0016
:101A5000B0060C00A4060B0099060C008D060B00C6
:101A600082060B0077060B006C060B0061060A006D
:101A700057060B004C060A0042060A0038060A0008
:101A80002E060A0024060A001A060A00100609009B
:101A900007060A00FD050900F4050900EB05090029
:101AA000E2050900D9050900D0050900C7050900AC
:101AB000BE050900B5050800AD050800A50509002B
:101AC0009C050800940508008C05080084050800A2
:101AD0007C050800740508006C0507006505080012
:101AE0005D050700560508004E050700470507007D
:101AF0004005080038050700310507002A050700E2
:101B0000230507001C050600160507000F05070042
:101B10000805060002050700FB040600F50407009F
:101B2000EE040600E8040600E2040700DB040600F9
:101B3000D5040600CF040600C9040600C30406004D
:101B4000BD040600B7040600B1040500AC0406009D
:101B5000A6040600A00405009B04060095040500E9
:101B6000900406008A040500850405008004060030
:101B70007A04050075040500700405006B04050077
:101B800066040500610405005C04050057040500B7
:101B9000520405004D0405004804050043040500F7
:101BA0003E0404003A040500350405003004040036
:101BB0002C04050027040400230405001E0404006F
:101BC0001A04040016040500110404000D040400A6
:101BD000090405000404040000040400FC030400DC
:101BE000F8030400F4030400F0030400EC03040011
:101BF000E8030400E4030400E0030400DC03040041
:101C0000D8030400D4030400D0030400CC03040070
:101C1000C8030300C503030024F404D9201BC40C2B
:101C20005C0E9804C4095F0265077101F405F900B0
:101C3000FB04B30048048700C10369005803550042
:101C400003034500BE023A008402310053022A0019
:101C50002902250004022000E4011C00C80119002B
:101C6000AF011700980114008401130071011000E6
:101C70006101100051010E0043010D0036010B00FF
:101C80002B010B0020010B00150109000C010900BC
:101C900003010800FB000800F3000800EB00070048
:101CA000E4000600DE000600D8000600D2000600B0
:101CB000CC000500C7000500C2000500BD000400FF
:101CC000B9000400B5000400B1000400AD00040038
:101CD000A9000400A5000300A20003009F00040067
:101CE0009B0003009800030095000200930003008E
:101CF000900003008D0002008B00030088000200AA
:101D00008600020084000300810002007F000200C0
:101D10007D0002007B0002007900020077000100D4
:101D200076000200740002007200010071000200DF
:101D30006F0002006D0001006C0002006A000100EB
:101D400069000200670001006600010065000100F3
:101D500064000200620001006100010060000100F7
:101D60005F0002005D0001005C0001005B000100FB
:101D70005A000100590001005800010057000100FD
:101D800056000100550001005400010053000000FE
:101D900053000100520001005100010050000100F9
:101DA0004F0001004E0000004E0001004D000100F8
:101DB0004C0001004B0000004B0001004A000100F4
:101DC00049000100480000004800010047000100F0
:101DD00046000000460001004500000045000100EB
:101DE00044000100430000004300010042000000E5
:101DF00042000100410000004100010040000100DC
:101E00003F0000003F0001003E0000003E000100D6
:101E10003D0000003D0001003C0000003C000000CF
:101E20003C0001003B0000003B0001003A000000C4
:101E30003A000100390000003900010038000000BC
:101E400038000000380001003700000037000100B2
:101E500036000000360000003600010035000000AA
:101E6000350000003500010034000000340000009F
:101E70003400010033000000330000003300010093
:101E8000320000003200000032000100310000008A
:101E9000310000003100010030000000300000007F
:101EA000300001002F0000002F0000002F00000074
:101EB0002F0001002E0000002E0000002E00010067
:101EC0002D0000002D0000002D0000002D0001005D
:101ED0002C0000002C0000002C0000002C00010051
:101EE0002B0000002B0000002B0000002B00010045
:101EF0002A0000002A0000002A0000002A00010039
:101F0000290000002900000029000000290000002D
:101F1000290001002800000028000000280000001F
:101F20002800000028000100270000002700000012
:101F30002700000027000000270001002600000005
:101F400026000000260000002600000026000100F8
:101F500025000000250000002500000025000000ED
:101F600025000000250001002400000024000000DE
:101F700024000000240000002400010023000000D1
:101F800023000000230000002300000023000000C5
:101F900023000000230001002200000022000000B6
:101FA00022000000220000002200000022000100A8
:101FB000210000002100000021000000210000009D
:101FC000210000002100000021000100200000008D
:101FD0002000000020000000200000002000000081
:101FE0002000000020000000200001001F00000071
:101FF0001F0000001F0000001F0000001F00000065
:102000001F0000001F0001001E0000001E00000055
:102010001E0000001E0000004D38342058205920BA
:102020005A2045005072696E742066726F6D20539D
:1020300044004E6F20534420636172640053746FF8
:1020400070207072696E7400526573756D652070D2
:1020500072696E74005061757365207072696E7478
:1020600000436F6E74726F6C0050726570617265C0
:102070000054756E6500496E666F20736372656506
:102080006E00466C6F7700466C6F770046616E207D
:1020900073706565640046616E20737065656400E9
:1020A0004E6F7A7A6C65004E6F7A7A6C6500537069
:1020B000656564005370656564004D61696E004D2F
:1020C000343238004D3831005377697463682070BA
:1020D0006F776572206F666600436F6F6C646F7711
:1020E0006E0053776974636820706F776572206F34
:1020F0006E005072656865617420414253004D382E
:1021000030005072656865617420504C41004D3854
:10211000340044697361626C652073746570706526
:102120007273004D6F7665206178697300473238AD
:102130000A47323900473239004C6576656C2062B7
:1021400065640053657420686F6D65206F66667303
:1021500065747300473238004175746F20686F6D85
:1021600065004D61696E00526573756D696E67201B
:102170007072696E7400526F626F433220726561D3
:1021800064792E005761697420666F7220757365DB
:10219000722E2E2E0020403A00202F0020543A00AC
:1021A0004D31343520533C696E6465783E206F753F
:1021B00074206F662072616E67652028302D31298A
:1021C0000A00526F626F4332204F66662E00205A1B
:1021D0003A0020593A0020436F756E7420583A2017
:1021E0000020453A00205A3A0020593A00583A0057
:1021F00053657474696E672054726176656C204112
:102200006363656C65726174696F6E3A2000536533
:102210007474696E672052657472616374204163DF
:1022200063656C65726174696F6E3A200053657402
:1022300074696E67205072696E7420416363656CC7
:1022400065726174696F6E3A200053657474696ECB
:1022500067205072696E7420616E642054726176DA
:10226000656C20416363656C65726174696F6E3A79
:1022700020004F666673657473206170706C6965C9
:1022800064004572723A20546F6F206661722100BB
:10229000546F6F206661722066726F6D2072656682
:1022A0006572656E636520706F696E740A007C3CB0
:1022B0003E5E2B3D3F2F5B5D3B2C2A225C0045722E
:1022C000726F722077726974696E6720746F20452F
:1022D0004550524F4D210A00206279746573290AD6
:1022E0000053657474696E67732053746F7265640C
:1022F000202800454550524F4D20636865636B733D
:10230000756D206D69736D617463680A0020627970
:10231000746573290A002073746F72656420736595
:102320007474696E6773207265747269657665642A
:1023300020280048617264636F64656420446566A8
:1023400061756C742053657474696E6773204C6F8B
:10235000616465640A0020204D383531205A005AE6
:102360002D50726F6265204F666673657420286D0C
:102370006D293A0A0020204D3230302044300A00C6
:1023800020204D3230302044002044697361626C5B
:1023900065640A0046696C616D656E7420736574CE
:1023A00074696E67733A0020440020490020204D74
:1023B0003330312050005049442073657474696E85
:1023C00067733A0A0020460020420020204D313435
:1023D0003520533120480020460020420020204D67
:1023E0003134352053302048004D61746572696185
:1023F0006C2068656174757020706172616D6574C0
:102400006572733A0A00205A0020590020204D328C
:102410003036205800486F6D65206F6666736574AE
:1024200020286D6D290A00204500205A0020580000
:1024300020420020540020204D32303520530041EE
:102440006476616E636564207661726961626C6551
:10245000733A20533D4D696E206665656472617400
:102460006520286D6D2F73292C20543D4D696E20F9
:1024700074726176656C206665656472617465204E
:10248000286D6D2F73292C20423D6D696E696D7525
:102490006D207365676D656E742074696D652028A5
:1024A0006D73292C20583D6D6178696D756D2058CC
:1024B00059206A65726B20286D6D2F73292C20209E
:1024C0005A3D6D6178696D756D205A206A65726B31
:1024D00020286D6D2F73292C2020453D6D61786972
:1024E0006D756D2045206A65726B20286D6D2F73A8
:1024F000290A0020540020520020204D3230342080
:102500005000416363656C65726174696F6E733A04
:1025100020503D7072696E74696E672C20523D7256
:1025200065747261637420616E6420543D747261DD
:1025300076656C0A00204500205A002059002020B2
:102540004D3230312058004D6178696D756D2041F4
:102550006363656C65726174696F6E20286D6D2FA1
:102560007332293A0A00204500205A0020590020E1
:10257000204D3230332058004D6178696D756D20E3
:1025800066656564726174657320286D6D2F7329AB
:102590003A0A00204500205A0020590020204D39D9
:1025A0003220580053746570732070657220756E08
:1025B00069743A0A007A5F6D61783A20007A5F6D3B
:1025C000696E3A2000795F6D61783A2000785F6D1E
:1025D000696E3A20005265706F7274696E6720658B
:1025E0006E6473746F70207374617475730A002065
:1025F000746F6F206C6F6E67206578747275736985
:102600006F6E2070726576656E7465640A00206373
:102610006F6C6420657874727573696F6E20707268
:102620006576656E7465640A00526573656E643A1A
:1026300020006F6B004E414E494E495459494E4659
:10264000CDCCCC3D0AD7233C17B7D13877CC2B3231
:102650009595E6241FB14F0A000020410000C842B2
:1026600000401C4620BCBE4CCA1B0E5AAEC59D7411
:1026700059D59FD611241FBECFEFD1E2DEBFCDBF0B
:1026800000E00CBF14E0A0E0B2E0EEE0FBEC01E003
:102690000BBF02C007900D92AA38B107D9F723E10A
:1026A000AAE8B4E001C01D92A639B207E1F713E130
:1026B000C9E3D3E100E006C021970109802FFE01A4
:1026C0000E9401D9C833D10780E00807A9F70E940A
:1026D00019D00C9475E50C9400002F923F924F9204
:1026E0005F926F927F928F929F92AF92BF92CF92A2
:1026F000DF92EF92FF920F931F93CF93DF93CDB7AB
:10270000DEB7C358D1090FB6F894DEBF0FBECDBFF8
:102710002DB73EB7C258DF4F39832883CE57D040FC
:102720000091B30930E6039F800111240D5C174F1F
:1027300010939A040093990480917A1380FF18C033
:10274000EAE2F5E184917F014FEFE41AF40A88236D
:1027500021F00E947E38F701F5CFD8018D918D01CF
:10276000882319F00E947E38F8CF8AE00E947E38D4
:102770002091990430919A04F90180812F5F3F4F95
:102780008032D1F3F0939A04E09399048E3469F087
:102790001091990400919A046AE270E0812F902FC1
:1027A0000E9436DC0097D1F420C0818190ED980F13
:1027B0009A3010F08D3261F73296DF0131962C910C
:1027C00020532A30D0F3CD01FC0101962081203224
:1027D000D9F3F0939A04E0939904DACFFC0131968F
:1027E0008291803231F08A3221F0A12FB02F4D91A9
:1027F00002C01082F5CFFD01808111968032D9F39D
:1028000080538A3020F0EAE2F5E10C94F72B20E0C7
:1028100030E05AE0529FC001539F900D11249C015B
:10282000205331098191280F311D87FD3A95808110
:1028300080538A3078F3CF013196DC015C915032BD
:10284000D1F3909398048093970461E070E07093C3
:10285000990D6093980D4D3409F4E4C3443511F497
:102860000C94BE2B473411F00C94E32B2C31310522
:1028700009F49DC088F42430310540F4223031053C
:1028800008F04EC00E94BB380C94EE2B243031056A
:1028900009F44FC00C94EE2B2A35310509F4FDC222
:1028A000A8F52D31310509F491C22E31310511F011
:1028B0000C94EE2B0E945F3820E030E040EF51E4B2
:1028C00060914E0570914F05809150059091510592
:1028D0000E940AD94B015C0120E030E0A90160911F
:1028E0004A0570914B0580914C0590914D050E94D1
:1028F0000AD9EE24E394F12C01E0A50194010E9491
:102900002C3E6B017C01EEEEF1E064C22B3531050B
:1029100009F4C7C22C35310509F4C8C20C94EE2B5A
:1029200081E02230310509F080E00E94AF340C9440
:10293000EE2B80E50E947731882329F00E94C63172
:102940006B017C0103C0C12CD12C760183E50E9470
:102950007731882321F00E9499326B017C010E941B
:102960005F8F0E94A43480919A0D90919B0DA0914D
:102970009C0DB0919D0DC80ED91EEA1EFB1E8091C4
:102980007302811105C060E088EB91E00E94D96B71
:102990000E940066DC01CB018C199D09AE09BF09BC
:1029A000B7FD02C00C94EE2B0E94B08BF1CF0E94B9
:1029B0005F8F0E94B45A0E945F3811E010932E027C
:1029C00088E50E947731B82E89E50E947731082F7B
:1029D0008AE50E947731A82EB11005C0011105C00B
:1029E000982F912705C0011102C090E001C0982FD7
:1029F0009093000280E1EAE4F5E0A2EABDE00190F4
:102A00000D928A95E1F7911104C0B11002C0002324
:102A1000D9F120E030E040E251E460913605709158
:102A2000370580913805909139050E940AD9209187
:102A30002A0530912B0540912C0550912D050E94BF
:102A40000AD96093AA0D7093AB0D8093AC0D90934F
:102A5000AD0D209152053091530540915405509190
:102A600055050E9452DB18167CF419821A821B82CB
:102A70001C829E012F5F3F4F4AEA5DE06EE475E0E5
:102A80008AE495E00E94EE2F80910002811106C039
:102A9000BB2009F4A4C0002309F4A1C010924E0584
:102AA00010924F05109250051092510510924A0550
:102AB00010924B0510924C0510924D050E94213347
:102AC000E5E1F6E1149189E096E10E9426312B01BF
:102AD0003C018DE096E10E9426316B017C019B0157
:102AE000AC01C301B2010E9452DB18162CF4A30101
:102AF0009201C701B60104C0A7019601C301B2014A
:102B00000E94F6D99B01AC010E9471E120E030E007
:102B100040E85FE30E940AD90E949BDB20E030E09E
:102B200048E452E40E9471E16BAF7CAF8DAF9EAF81
:102B3000E6E1F6E1949020E030E040EC5FE3C7018D
:102B4000B6010E9471E16B017C01692D990C770B34
:102B5000880B990B0E9412E19B01AC01C701B601E1
:102B60000E9471E169837A838B839C8320E030E04B
:102B700040EC5FE3C301B2010E9471E16B017C0193
:102B8000612F110F770B880B990B0E9412E19B01AB
:102B9000AC01C701B6010E9471E168A379A38AA3C1
:102BA0009BA39E01255C3F4F42E555E0BE016F5F50
:102BB0007F4FCE0180960E94EE2F10922105109239
:102BC0004E0510924F05109250051092510510922B
:102BD0004A0510924B0510924C0510924D058091BC
:102BE0000002811102C0BB2021F080E090E00E9431
:102BF000CC8980910002811102C0002321F081E084
:102C000090E00E94CC8980910002811103C0A11044
:102C10003AC0D0C00E94213380E090E0A4E7B2E443
:102C20008093A20D9093A30DA093A40DB093A50D36
:102C300080E090E0A0E0B2E48093A60D9093A70D11
:102C4000A093A80DB093A90D8091520590915305C2
:102C5000A0915405B09155058093AA0D9093AB0DAA
:102C6000A093AC0DB093AD0D19821A821B821C8209
:102C70009E012F5F3F4F42E555E066EA7DE082EA24
:102C80009DE00E94EE2F80E00E94378181110C941C
:102C9000EE2B20912E0530912F054091300550915B
:102CA000310560914A0570914B0580914C059091DA
:102CB0004D050E9409D920912205309123054091AC
:102CC0002405509125050E9409D96B017C01809053
:102CD0004E0590904F05A0905005B0905105409042
:102CE0003205509033056090340570903505209181
:102CF00026053091270540912805509129052396F6
:102D00002CAF3DAF4EAF5FAF239720E030E0A9017D
:102D10000E9452DB87FD31C020E030E044EF52E4F6
:102D2000C701B6010E940CE118163CF1A301920103
:102D3000C501B4010E9409D923962CAD3DAD4EAD1D
:102D40005FAD23970E9409D96B017C0120E030E040
:102D500040EF51EC0E9452DB87FD0FC020E030E0D5
:102D60004CEB52E4C701B6010E940CE118162CF09E
:102D700082E090E00E94CC891DC060E083ED91E08C
:102D80000E94D96BEAE2F5E184918F010F5F1F4F3A
:102D9000882321F00E947E38F801F6CFE1ECF1E0C3
:102DA00084918F010F5F1F4F882321F00E947E388E
:102DB000F801F6CF0E9421338091CD0280932E023C
:102DC0000E9446380E946F9F0C94EE2B0E949E3FFB
:102DD0000C94EE2B84918F010F5F1F4F882321F0FD
:102DE0000E947E38F801F6CF20E030E0A901609122
:102DF0004A0570914B0580914C0590914D050E94BC
:102E00000AD927E137EB41ED58E30E940AD942E0A5
:102E10000E94BB3DE9EEF1E084918F010F5F1F4FEF
:102E2000882321F00E947E38F801F6CF20E030E0C0
:102E300040EF51E460914E0570914F05809150052F
:102E4000909151050E940AD927E137EB41ED58E3F3
:102E50000E940AD942E00E94BB3DE4EEF1E0849179
:102E60008F010F5F1F4F882321F00E947E38F801E9
:102E7000F6CF27E137EB41ED58E3C701B6010E94D9
:102E80000AD942E00E94BB3D8AE00E947E380E943F
:102E900046380E946F9F0C94EE2B109296040C946F
:102EA000EE2B81E0809396040C94EF2B85E40E9436
:102EB0007731B82E811102C00E945F8F70EE872E8D
:102EC00072E0972EEAE4CE2EE5E0DE2EF2E2EF2E5F
:102ED000F5E0FF2E00E010E0A12CD4018D914D0112
:102EE0000E947731882309F44EC0F6012081318198
:102EF00042815381C058DF4F2883C058D040CF57FC
:102F0000DF4F3883C158D040CE57DF4F4883C25877
:102F1000D040CD57DF4F5883C358D0400E94D131A5
:102F2000D6016D937D938D939C931397C058DF4F7B
:102F30002881C058D040CF57DF4F3881C158D0408A
:102F4000CE57DF4F4881C258D040CD57DF4F588110
:102F5000C358D04003301105B1F00E9409D99B013C
:102F6000AC01F70160817181828193810E940AD94D
:102F7000D7016D937D938D939C931397C8010E9405
:102F80002C31AA24A3940F5F1F4FB4E0CB0ED11CA9
:102F9000E4E0EE0EF11C0430110509F09ECFAA20EA
:102FA00021F00E9421330C94EE2BBB2011F40C94E1
:102FB000EE2B209166053091670540916805509190
:102FC000690560915605709157058091580590915B
:102FD00059050E9471E10E945DDB6093BE0A709307
:102FE000BF0A8093C00A9093C10A8FB7F8944091AA
:102FF000BE0A5091BF0A6091C00A7091C10A409305
:1030000046055093470560934805709349058FBF67
:103010001092AE0A1092AF0A1092B00A1092B10A42
:103020000C94EE2B2F36310511F40C949D2208F0F0
:10303000E7C02033310509F41DC508F066C028310A
:10304000310509F417C2E8F52231310511F40C9469
:10305000B025D8F42230310508F4BBC12131310547
:1030600011F00C94EE2B60E086EF91E00E94D96B9A
:103070005F988A989FB7F894809108018E7F80931B
:1030800008019FBF12980C94EE2B2531310509F4ED
:10309000E7C140F42431310511F00C94EE2BEEE041
:1030A000F2E09BC12631310509F4DEC1273131053B
:1030B00011F00C94EE2B40E061E00E94EA540C9475
:1030C000EE2B2C31310509F42AC250F42A31310596
:1030D00009F4DBC108F0E7C110920D0B0C94EE2B44
:1030E0002F31310509F47EC330F42E31310509F456
:1030F0001CC20C94EE2B2032310509F424C32A3271
:10310000310509F4AEC30C94EE2B2435310511F4CE
:103110000C94B02508F03FC02E34310511F40C9406
:10312000342288F42C34310511F40C94162210F05A
:103130000C9430222B34310511F00C94EE2B0E94AC
:10314000DF5A0C94EE2B2135310511F40C94AA258D
:1031500098F42035310511F00C94EE2B269A2E9818
:1031600081E08093BF0260E086EA94E00E94D96B20
:103170000E94FF6B0C94EE2B2235310511F40C9458
:10318000AD252335310511F00C94EE2B81E08093B1
:1031900095040C94EF2B2A36310511F40C94762506
:1031A000D8F42C35310511F40C94B32548F42535A9
:1031B000310511F00C94EE2B0E94F0A10C94EE2B33
:1031C0002836310511F40C9444222936310511F4C6
:1031D0000C9483230C94EE2B2C36310511F40C94B3
:1031E0003A2310F40C949A252D36310511F40C94E1
:1031F000A0232E36310511F40C948A220C94EE2B68
:103200002C3D310511F40C94BF2608F067C02C3812
:10321000310511F40C946A2390F52337310511F42C
:103220000C94B62560F42137310511F40C943E233B
:1032300010F00C94C32585E694E00E946C8B273730
:10324000310511F40C94CC2550F42537310511F0DB
:103250000C94EE2B60E00E94EE6B0C94EE2B283762
:10326000310511F40C94C6252937310511F00C9461
:10327000EE2B10922E021092CD020C94EE2B2B3CD2
:10328000310511F40C94D52598F4283C310511F43E
:103290000C94CF25293C310511F40C94D225213909
:1032A000310511F00C94EE2B0E946CA20C94EE2BC5
:1032B0002D3C310511F40C94DB2510F40C94D82529
:1032C0002E3C310511F40C94DE25233D310511F01F
:1032D0000C94EE2BEAE2F5E10C9425262239F1E07C
:1032E0003F0711F40C94532B90F52D3251E0350724
:1032F00011F40C945B2790F4223E310511F40C94E8
:10330000E5262C3291E0390711F40C9435272D3D38
:10331000310511F00C94EE2B0C94CC262F32A1E049
:103320003A0711F40C948D2810F40C9419282039C4
:10333000E1E03E0711F40C94502B2139314011F09B
:103340000C94EE2B81E00E94E0300C94EE2B263F93
:1033500041E0340711F40C945C2BF8F42C3A81E032
:10336000380711F40C94562B48F42A39314011F0E7
:103370000C94EE2B0E94B39D0C94EE2B243FB1E0F5
:103380003B0711F40C94592B253F314011F00C945C
:10339000EE2B0E9414AD0C94EE2B2335F3E03F0787
:1033A00011F40C945F2B48F4273F314011F00C943A
:1033B000EE2B0E94A59D0C94EE2B203AA3E03A0739
:1033C00009F407C2273E334011F40C94B02B0C943F
:1033D000EE2B0E9434A30C94EE2B84918F010F5F8F
:1033E0001F4F882321F00E947E38F801F6CF1092FB
:1033F000930D1092920D40E050E0BA018EE39BE0F5
:103400000E9407A48BE1EEE3FBE0DE01159601903C
:103410000D928A95E1F780913C0B90913D0B9C8336
:103420008B8386E793E09A83898340E050E0BE0176
:103430006F5F7F4F8CE694E00E941185CE0101966C
:103440000E94538BEFEFF1E084918F010F5F1F4FCC
:10345000882311F40C94EE2B0E947E38F801F4CFEF
:103460000E941F580C94EE2B10920D0B10920E0B15
:103470000C94EE2B80910E0B882319F081E0809341
:103480000D0B0E94DF5A0C94EE2B80910E0B8823BB
:1034900011F40C94EE2B83E50E94773181110C948A
:1034A0002C2C0C94EE2B80910E0B882351F1EFE124
:1034B000F2E084918F010F5F1F4F882321F00E945B
:1034C0007E38F801F6CF6091890D70918A0D809158
:1034D0008B0D90918C0D4AE00E94E6398FE20E949C
:1034E0007E386091850D7091860D8091870D909149
:1034F000880D4AE00E94E6398AE00E947E380C94EA
:10350000EE2BE1E3F2E084918F010F5F1F4F8823E0
:1035100011F40C94EE2B0E947E38F801F4CF40E0B9
:1035200060E00E94EA540C94EE2B80910E0B8823ED
:1035300011F40C94EE2B88ED9CE00E94D4A388ED4E
:103540009CE00E9415AA10920C0B10920B0BE090BD
:103550009704F090980480910E0B882311F40C943A
:10356000EE2B0E94D7821D8218861C821B8286E762
:1035700093E09A8389838AE39BE090935A0B80932C
:10358000590BF70180818F3209F068C06FE270E05B
:10359000C7010E9436DC8C010F5F1F4F9E012F5F19
:1035A0003F4F59010115110509F45EC06FE270E04B
:1035B000C8010E9436DC6C01009709F456C0081758
:1035C000190708F052C04C01801A910AA401B801F1
:1035D000CE0180960E945FDCE0E2F0E0EC0FFD1F80
:1035E000E80DF91D10828E01005E1F4FD8018D91EC
:1035F0008D01882319F00E947E38F8CF8AE00E945E
:103600007E386091590B70915A0B6115710511F05C
:103610006C5F7F4F21E0AE01405E5F4FCE010596AB
:103620000E941DAA811112C0BE01605E7F4F88E614
:1036300092E00E94C0398EE20E947E388AE00E94A9
:103640007E38C5010E94538B0C94EE2BB0925A0B1E
:10365000A092590B86010F5F1F4FA4CF8BE59BE013
:1036600090935A0B8093590B87016091590B70917D
:103670005A0B6115710511F06C5F7F4F18A21BA2E8
:1036800022E0A801CE0180960E941DAA811102C0ED
:10369000F12C14C0CE0180960E9445828823C1F38C
:1036A00061E0CE0180960E943487009789F325EE71
:1036B000FC0120831BA20E94CDB0F82ECE01809683
:1036C0000E947B34FF2009F1E2E4F2E084917F0163
:1036D0002FEFE21AF20A882321F00E947E38F701C8
:1036E000F5CFD8018D918D01882319F00E947E3885
:1036F000F8CF8AE00E947E381092890D10928A0DD0
:1037000010928B0D10928C0D18C0E0E5F2E08491C0
:103710007F01BFEFEB1AFB0A882321F00E947E385D
:10372000F701F5CFF80181918F01882319F00E94EC
:103730007E38F8CF8EE20E947E38CE0101960E943C
:10374000538B0C94EE2B80910D0B81110E945F8F97
:10375000009197041091980461E270E0C8010E9402
:1037600036DC009719F08C010F5F1F4F80E50E9437
:103770007731882349F0FF24F39480918A04909153
:103780008B048017910708F0F12C80910E0B882391
:1037900011F40C94EE2B4F2D61E0C8010E94EA5405
:1037A00083E50E947731882349F080918A049091C3
:1037B0008B048017910710F40C943D2C80910E0B14
:1037C000882319F081E080930D0BF1100C94EE2BFF
:1037D00058CE21E020930C0B40E060E00E94EA54B8
:1037E0000C94EE2B82EE9AE00E94BE7D68A379A332
:1037F0008AA39BA3BE016F5F7F4FCE0180960E947C
:10380000BB3360E0CE0101960E94EE6BEAE2F5E187
:1038100084918F010F5F1F4F882321F00E947E3813
:10382000F801F6CFECE7F2E084918F010F5F1F4FB4
:10383000811104C08E010F5F1F4F04C00E947E38AB
:10384000F801F2CFD8018D918D01882319F00E94E3
:103850007E38F8CF8AE00E947E380E9481340C9432
:10386000EE2B83E50E947731882311F40C94EE2B24
:103870000E94B9318C018F3F910519F010F00C9422
:10388000EE2B80E50E947731882339F00E94B93110
:103890007C0197FF05C00C94EE2B6DE0E62EF12C19
:1038A000E4EEF2E081919191E816F90611F40C949E
:1038B000EE2BB3E0E433FB07A9F7DE2C61E08E2D9D
:1038C0000E948C65602F8E2D0E944A6561E08E2DCE
:1038D0000E948C650115110511F460E004C00F3FD2
:1038E000110519F461E08E2DBFC0F701FF27EC5AD6
:1038F000F04FE4914E2F50E0FA013197E231F1059B
:1039000008F0ADC08827EE58FF4F8F4F0C9401D9B7
:1039100084B5806884BD07BD0C94E52B84B58062B6
:1039200084BD08BD0C94E52B809180008068809355
:10393000800010938900009388000C94E52B8091FF
:10394000800080628093800010938B0000938A0037
:103950000C94E52B80918000886080938000109308
:103960008D0000938C000C94E52B8091B000806852
:103970008093B0000093B3000C94E52B8091B000CD
:1039800080628093B0000093B4000C94E52B80918A
:1039900090008068809390001093990000939800A5
:1039A0000C94E52B8091900080628093900010939E
:1039B0009B0000939A000C94E52B80919000886006
:1039C0008093900010939D0000939C000C94E52B35
:1039D0008091A00080688093A0008091A0008F7BE0
:1039E0008093A0001093A9000093A8000C94E52BED
:1039F0008091A00080628093A0001093AB000093A0
:103A0000AA000C94E52B8091A00088608093A00010
:103A10001093AD000093AC000C94E52B8091200135
:103A200080688093200110932901009328010C9451
:103A3000E52B8091200180628093200110932B015F
:103A400000932A010C94E52B8091200188608093DB
:103A5000200110932D0100932C010C94E52B0038CC
:103A6000110534F460E08D2D0E944A650C94E52B1D
:103A700061E0F9CFEDB7FEB76696FFAFEEAF6697A0
:103A800081E00E9437818111C6C486E50E947731AA
:103A9000882349F00E948A31382EF4E0F81788F420
:103AA000EAEAF3E003C0332433940DC084918F011C
:103AB0000F5F1F4F882309F4AEC40E947E38F801BF
:103AC000F5CF882359F00AE813E0F80184918823A0
:103AD00029F00F5F1F4F0E947E38F7CF80E50E94CC
:103AE0007731882321F00E948A31182F01C01AE013
:103AF0008CEF810F8F3260F006E613E0F8018491BD
:103B0000882309F488C40F5F1F4F0E947E38F6CFC8
:103B100080914A0590914B05A0914C05B0914D05BF
:103B20008BAF9CAFADAFBEAF80914E0590914F056E
:103B3000A0915005B091510588A399A3AAA3BBA356
:103B400085E40E94773167968FAF679788E50E947A
:103B50007731882319F00E94D13109C020E030E08C
:103B6000A9016BAD7CAD8DAD9EAD0E940AD92796A3
:103B70006CAF7DAF8EAF9FAF279780902E05909052
:103B80002F05A0903005B0903105C0902205D0904F
:103B90002305E0902405F090250520E030E0A90100
:103BA000C501B4010E940AD9A70196010E940AD951
:103BB0009B01AC0127966CAD7DAD8EAD9FAD279777
:103BC0000E940CE187FD18C020E030E044EF52E491
:103BD000C501B4010E940AD9A70196010E940AD921
:103BE0009B01AC0127966CAD7DAD8EAD9FAD279747
:103BF0000E9452DB18161CF484E693E05AC089E553
:103C00000E947731882319F00E94D1310AC020E048
:103C100030E040EF51E468A179A18AA19BA10E9404
:103C20000AD92B966CAF7DAF8EAF9FAF2B9780904C
:103C3000320590903305A0903405B0903505C090C2
:103C40002605D0902705E0902805F090290520E072
:103C500030E040EF51E4C501B4010E940AD9A70148
:103C600096010E940AD99B01AC012B966CAD7DADEB
:103C70008EAD9FAD2B970E940CE187FD18C020E010
:103C800030E048EF52E4C501B4010E940AD9A7010F
:103C900096010E940AD99B01AC012B966CAD7DADBB
:103CA0008EAD9FAD2B970E9452DB18162CF482E646
:103CB00093E00E948538AFC38CE40E947731082FCF
:103CC0008823C1F00E948A318FAF803168F0EFE223
:103CD000F3E084918F010F5F1F4F882309F49BC38A
:103CE0000E947E38F801F5CFFFADF13021F422E0DB
:103CF0002FAF01C01FAE83E50E94773168968FAF6A
:103D00006897882321F0011102C037E03FAF42E0FD
:103D100043156CF4E5E1F3E084917F015FEFE51A70
:103D2000F50A882321F00E947E38F701F5CF0E9422
:103D3000B45A0E945F38832D032C000C990B6A96AD
:103D40009FAF8EAF6A977C0167960FAD67972B96F2
:103D50002CAD3DAD4EAD5FAD2B9727966CAD7DADD7
:103D60008EAD9FAD27970E942C3E0E940066611584
:103D700071058105910511F00E94BDDCA12F012E76
:103D8000000CBB0BA096BFAFAEAFA097EDB7FEB7D0
:103D900024E01202E019F10911240FB6F894FEBFD5
:103DA0000FBEEDBF4DB75EB74F5F5F4F64965FAF1D
:103DB0004EAF6497212C812C912C540124013501A4
:103DC0005FAD852F90E0DC011197A696BFAFAEAF37
:103DD000A697212F110F330B440B550BAA962CAF2E
:103DE0003DAF4EAF5FAFAA97822D90E062969FAF36
:103DF0008EAF6297A096AEADBFADA0978A179B0716
:103E00000CF0C8C23FAD31112CC06A96EEACFFACCD
:103E10006A9767960FAD67972B962CAD3DAD4EAD6B
:103E20005FAD2B9727966CAD7DAD8EAD9FAD27977F
:103E30000E942C3E6296EEADFFAD6297EE0FFF1F23
:103E4000EE0FFF1F64964EAD5FAD6497E40FF51F54
:103E50006083718382839383812C912C540110E0C1
:103E6000D2C10E94BADC2AE030E040E050E00E947B
:103E70003AE50E9412E120E030E040EA50E40E947E
:103E800052DB18161CF001E010E002C00FEF1FEF2C
:103E90000E94BADC28E631E040E050E00E943AE5BA
:103EA0000E9412E12B013C010E94BADC2AE030E0C2
:103EB00040E050E00E943AE56B5F7F4F8F4F9F4F8D
:103EC0000E9412E12F966CAF7DAF8EAF9FAF2F9700
:103ED00054E0351671F060961FAE6097C801110F5F
:103EE000AA0BBB0B6E968CAF9DAFAEAFBFAF6E97FC
:103EF00072C02F964CAD5DAD6EAD7FAD2F9783E058
:103F000093E00E94553FB301A20188EF92E00E9426
:103F1000553FEBEEF2E084917F019FEFE91AF90A39
:103F2000882321F00E947E38F701F5CF013011057A
:103F300019F0E7EDF2E00DC0E2EEF2E084917F01CE
:103F4000AFEFEA1AFA0A8823A1F30E947E38F7013C
:103F5000F5CF84917F01BFEFEB1AFB0A882309F4A8
:103F6000BACF0E947E38F701F4CF4BAD5CAD6DAD9A
:103F70007EAD8AEC92E00E94553F48A159A16AA10A
:103F80007BA187EC92E00E94553F409152055091F1
:103F90005305609154057091550584EC92E00E94A0
:103FA000553F8AE00E947E3819821A821B821C8249
:103FB0009E012F5F3F4F42E555E0BE01605E7F4F9F
:103FC000CE01CB960E94EE2F60962FAD60972F5FAB
:103FD00060962FAF609760963FAD6097832F90E01B
:103FE000A6964EAD5FADA697841795070CF00DCF42
:103FF0006896EFAD6897EE2389F06E966CAD7DAD57
:104000008EAD9FAD6E970E9412E19B01AC010E94A4
:104010000AD920E030E040E952E420C00E94BADC36
:104020004B015C016E966CAD7DAD8EAD9FAD6E9714
:104030000E9412E16B017C01C501B40124E130E072
:1040400040E050E00E943AE5675E7F4F8F4F9F4F00
:104050000E9412E19B01AC01C701B6010E9471E10F
:104060009B01AC01C301B2010E940AD92B013C01A2
:1040700020E030E044EB53E40E9452DB18164CF48D
:1040800020E030E044EB53E4C301B2010E9409D9BF
:10409000EDCF20E030E0A901C301B2010E940CE1A4
:1040A00087FF0BC020E030E044EB53E4C301B201D2
:1040B0000E940AD92B013C01ECCF2BED3FE049E4F3
:1040C00050E4C301B2010E9471E120E030E044E31A
:1040D00053E40E94F6D94B015C010E94F3D92F965C
:1040E0002CAD3DAD4EAD5FAD2F970E9471E19B01B0
:1040F000AC0127966CAD7DAD8EAD9FAD27970E942C
:104100000AD96B017C01C501B4010E9490DBA49621
:104110006CAF7DAF8EAF9FAFA49720E030E040EF53
:1041200051E42B966CAD7DAD8EAD9FAD2B970E946B
:1041300009D94B015C012F962CAD3DAD4EAD5FAD65
:104140002F97A4966CAD7DAD8EAD9FADA4970E94C8
:1041500071E19B01AC01C501B4010E940AD94B0178
:104160005C0120E030E0A901C701B6010E940CE12A
:1041700087FD11C020E030E044EF52E4C701B601F2
:104180000E9452DB181654F4C12CD12C44EFE42EBB
:1041900042E4F42E03C0C12CD12C7601CBAEDCAEB0
:1041A000EDAEFEAE20E030E0A901C501B4010E94F1
:1041B0000CE187FD11C020E030E048EF52E4C5017A
:1041C000B4010E9452DB181654F4812C912C38EF64
:1041D000A32E32E4B32E03C0812C912C540188A26B
:1041E00099A2AAA2BBA2F4E03F12DECEEDECF2E06F
:1041F00084918F010F5F1F4F882309F4B6CE0E9470
:104200007E38F801F5CF6496EEADFFAD649754E0CB
:10421000159FE00DF11D11242081318142815381D0
:10422000C501B4010E940AD94B015C011F5F211630
:1042300050F76296CEACDFAC62978FEFC81AD80AFF
:104240000D2C000CEE08FF08C701B6010E9412E118
:104250002F966CAF7DAF8EAF9FAF2F979B01AC01B8
:10426000C501B4010E94F6D92B013C01812C912C8F
:10427000540110E06496EEADFFAD649794E0199F91
:10428000E00DF11D1124A3019201608171818281F1
:1042900093810E9409D99B01AC010E9471E19B01AD
:1042A000AC01C501B4010E940AD94B015C011F5F3A
:1042B000211600F72F962CAD3DAD4EAD5FAD2F977B
:1042C0000E94F6D90E949BDB4B015C01332009F46C
:1042D0005FC0A1E03A1609F458C0C701B6010E94B8
:1042E000673AEFEBF2E084917F01BFEFEB1AFB0A34
:1042F000882321F00E947E38F701F5CFAA966CAD95
:104300007DAD8EAD9FADAA970E94673AE8EBF2E0D3
:1043100084917F012FEFE21AF20A882321F00E9494
:104320007E38F701F5CF6091520570915305809169
:1043300054059091550546E00E94BB3D32E033168E
:1043400021F1E0EBF2E084917F014FEFE41AF40AEF
:10435000882321F00E947E38F701F5CF46E0C301A3
:10436000B2010E94BB3DE5EAF2E084917F015FEF7C
:10437000E51AF50A882321F00E947E38F701F5CF6F
:1043800046E0C501B4010E94BB3D8AE00E947E3830
:1043900023942ACD80E00E94E03081113CC033207C
:1043A000A1F0EEE9F2E084918F010F5F1F4F8823A7
:1043B00021F00E947E38F801F6CF46E0C301B20139
:1043C0000E94BB3D8AE00E947E38E9E8F2E08491D9
:1043D0008F010F5F1F4F882321F00E947E38F80164
:1043E000F6CF46E0C501B4010E94BB3D8AE00E94C1
:1043F0007E388AE00E947E380E9446380E946F9F75
:104400006696EEADFFAD66970FB6F894FEBF0FBE91
:10441000EDBF0C94EE2B66962EAD3FAD66970FB6B2
:10442000F8943EBF0FBE2DBF0C94EE2B8091E20A94
:104430009091E30A019711F00C94EE2B82E090E04A
:104440009093E30A8093E20A0E9400666093EC0A6C
:104450007093ED0A8093EE0A9093EF0A0C94EE2B82
:104460000E94E2820C94EE2B83E50E947731882330
:1044700011F40C944F2C0E94B9318E34910511F037
:104480000C944F2C0C944E2D88E690E00E947F3DBA
:1044900081110C94EE2B80917A1383FF02C00C944F
:1044A000EE2B83E50E947731882311F40C94EE2BD8
:1044B0000E94D1310E9467DA70935A0A6093590AB8
:1044C0000E94F5810E94D13120E030E04AEA52E4B6
:1044D0000E940CE118163CF00E94E28260E082E447
:1044E00094E00E94D96B0E94D13120915B0A3091F7
:1044F0005C0A40915D0A50915E0A0E9452DB1816D8
:1045000014F00C94EE2B60E087E394E00E94D96BEA
:104510000C94EE2B8EE40E947731882311F40C94D6
:10452000EE2B0E9485CB60938C0470938D04809356
:104530008E0490938F040C94EE2B83E50E947731C8
:10454000882319F00E948A3101C080E080937A1399
:10455000EAE2F5E184918F010F5F1F4F882321F07C
:104560000E947E38F801F6CFEEE5F4E084918F01E9
:104570000F5F1F4F882321F00E947E38F801F6CF8D
:1045800080917A138823A1F120E5C22E24E0D22E57
:10459000E12CF12C20E080917A1390E00E2C02C0E7
:1045A000959587950A94E2F780FF17C0BB24B394D2
:1045B000B20E222319F08CE20E947E38F60125917A
:1045C0003491F901849189010F5F1F4F882321F0F5
:1045D0000E947E389801F5CF2B2DFFEFEF1AFF0ACE
:1045E00032E0C30ED11C45E0E416F104A1F63DC053
:1045F000EAE5F4E084918F010F5F1F4F8823A9F152
:104600000E947E38F801F6CF80E20E947E388AE56B
:104610000E947731882311F40C94A22B0E94D1318F
:104620006B017C0120E030E040EA51EC0E9452DB5B
:1046300087FF02C00C94792B20E030E040EA51E47F
:10464000C701B6010E940CE1181614F40C94792BE2
:10465000C092B707D092B807E092B907F092BA07B4
:1046600042E0C701B6010E94BB3D8AE00E947E384D
:104670000C94EE2B1092BA020C94EE2B83E50E9460
:104680007731882369F00E948A318093B0028D339C
:1046900010F40C94EE2B8CE38093B0020C94EE2B70
:1046A000EAE2F5E184918F010F5F1F4F882321F02B
:1046B0000E947E38F801F6CF4091B00250E060E0F1
:1046C00070E08EE694E00E944C3A8AE00E947E38C8
:1046D0000C94EE2B80917A1383FF02C00C94EE2B86
:1046E00083E50E947731882311F40C94EE2B0E940D
:1046F000D1310E9467DA7093BC096093BB090E94B4
:1047000068780C94EE2B89E690E00E947F3D811141
:1047100011C0E5E7F4E084918F010F5F1F4F8823FC
:1047200021F00E947E38F801F6CF0E94ECA28AE0C8
:104730000E947E381092990D1092980D0C94E32EE1
:104740008DE690E00E947F3D81110C94EE2B8091CC
:104750007A1383FF02C00C94EE2B83E50E9477311D
:1047600028968FAF2897811105C082E50E94773186
:104770008823C1F10E94D1310E9467DA70935A0AEE
:104780006093590A0E94F5810E94D13120E030E007
:104790004AEA52E40E940CE1181614F40C94532DCA
:1047A0000E94E28260E088E994E00E94D96B609107
:1047B000590A70915A0A072E000C880B990B0E9417
:1047C00012E120915B0A30915C0A40915D0A5091A0
:1047D0005E0A0E9452DB18162CF460E08DE894E02B
:1047E0000E94D96B86E40E9477318093E807882382
:1047F00051F00E94D13160931A0270931B02809392
:104800001C0290931D0283E50E947731882351F0AA
:104810000E94D1316093220270932302809324027C
:104820009093250282E40E947731882351F00E9400
:10483000D13160931E0270931F02809320029093E7
:10484000210281E08093BA021092990D1092980D86
:1048500027961CAE1DAE1EAE1FAE27972F961CAE20
:104860001DAE1EAE1FAE2F971FAE60961FAE609797
:104870005CE361965FAF61978CE163968FAF63975E
:1048800096E465969FAF6597D12CE12C90E8F92EC0
:104890000FEB812C912C54016091590A70915A0AA6
:1048A000072E000C880B990B0E9412E1162F772E11
:1048B000682E592E262F372F482F592F6D2D7E2DDC
:1048C0008F2D902F0E940CE18823F9F020915B0A34
:1048D00030915C0A40915D0A50915E0A612F772DFC
:1048E000862D952D0E940CE1881F8827881F8FAF89
:1048F0002896AFAD2897AA2361F0882351F060E095
:1049000088E794E00E94D96B69C71D2D7E2C6F2C1F
:10491000502E0E9400666B017C01DC01CB012F96BA
:104920002CAD3DAD4EAD5FAD2F97821B930BA40B0D
:10493000B50BB7FD47C0D701C60188519C4FAF4F9B
:10494000BF4F2F968CAF9DAFAEAFBFAF2F970E94DA
:10495000ECA2E9E8F4E084911F019FEF291A390ADB
:10496000882321F00E947E38F101F5CF8114910453
:10497000A104B104D1F0D501C401805F984DAF4FBF
:10498000BF4FBC01CD016C197D098E099F0928EE2E
:1049900033E040E050E00E9418E5CA01B9010E94EE
:1049A000673A8AE00E947E380DC0E6E8F4E0849120
:1049B0001F01AFEF2A1A3A0A882321F00E947E389D
:1049C000F101F5CF0E94B08B0E94A43420905B0AC5
:1049D00000915C0A30905D0A40905E0A222D302FD3
:1049E000432D542D612F772D862D952D0E9409D9A9
:1049F0009F7781149104A104B10449F420E030E0D0
:104A000040E85FE30E940CE187FF0BC008C020E094
:104A100030E040E450E40E9452DB181614F44601E2
:104A20005701BFADBB2309F445C027962CAD3DAD62
:104A30004EAD5FAD2797211531054105510541F078
:104A4000D701C601821B930BA40BB50BB7FD32C077
:104A5000222D302F432D542D60966FAD60976196B7
:104A60007FAD619763968FAD639765969FAD6597B0
:104A70000E9409D920E030E040EC5FE30E940CE1A5
:104A800087FD3DCFD701C601805A9541AF4FBF4F3B
:104A900027968CAF9DAFAEAFBFAF279760962FAE76
:104AA000609761960FAF619763963FAE6397659687
:104AB0004FAE65978091BA02882309F420CF811404
:104AC0009104A104B10429F4D12EE72CF62C052D74
:104AD000E3CE90E1C91A97E2D90AE108F108C818B3
:104AE000D908EA08FB08F7FE0ACFEECF83E50E945B
:104AF0007731882321F00E9478CB8C0102C00FEF20
:104B000010E080E50E947731882319F00E9478CB6D
:104B100002C080E090E098010F3F110519F010F0FD
:104B20002FEF30E0892B09F059C63093EA07209324
:104B3000E90754C680E50E947731811105C01092C3
:104B4000EA071092E9074AC60E9478CB892B09F040
:104B500045C6F5CF0E9451A241C6109295043EC6AB
:104B60000E9400A23BC60E9455A138C6E4EBF4E0C7
:104B700084918F010F5F1F4F882309F42FC60E9475
:104B80007E38F801F5CF0E946F9F28C681E08093A0
:104B90002E028093CD0223C60E9492B41FC60E94AB
:104BA000229F1CC60E94FD9E19C60E94DB9E16C64F
:104BB0000E94729E13C60E94179E10C610EEA12E70
:104BC00012E0B12E0AE4C02E05E0D02E8EE2E82ECF
:104BD00085E0F82E00E010E0D5018D915D010E9486
:104BE0007731882311F10E94D1312B013C01F7016B
:104BF00020813181428153810E9409D99B01AC01FE
:104C0000D6016D917D918D919C910E940AD9F601FA
:104C10006083718382839383D7014D925D926D92FD
:104C20007C921397C8010E942C310F5F1F4FB4E094
:104C3000CB0ED11CE4E0EE0EF11C0330110561F641
:104C40000E9421330E946F9FC9C584918F010F5F1D
:104C50001F4F882321F00E947E38F801F6CF83E5AC
:104C60000E947731882341F00E948A3191E08111BE
:104C700001C090E09093CC02ECE9F5E084918F01C3
:104C80000F5F1F4F882321F00E947E38F801F6CF76
:104C90008091CC02811103C0E8E9F5E002C0E4E9AB
:104CA000F5E084918F010F5F1F4F882321F00E9450
:104CB0007E38F801F6CFECE8F5E084918F010F5FC4
:104CC0001F4F882321F00E947E38F801F6CF4091D3
:104CD00064135091651360916613709167138AE8AD
:104CE00095E00E94553F409168135091691360917F
:104CF0006A1370916B1387E895E00E94553F4091CD
:104D00006C1350916D1360916E1370916F1384E862
:104D100095E00E94553FECE7F5E084918F010F5F2D
:104D20001F4F882321F00E947E38F801F6CF409172
:104D3000C0025091C1026091C2027091C3028AE721
:104D400095E00E94553F4091C4025091C502609188
:104D5000C6027091C70287E795E00E94553F4091D7
:104D6000C8025091C9026091CA027091CB0284E7D7
:104D700095E00E94553F8AE00E947E382FC583E56A
:104D80000E947731882309F429C50E94B931909394
:104D9000BE028093BD0222C58DED90E00E947F3D52
:104DA00081111CC583E50E947731882309F416C55B
:104DB0000091900410E00E94B931000F111FF8011A
:104DC000E554FD4F9183808309C580E50E947731CA
:104DD000882309F403C50E94B9318C0183E50E9440
:104DE0007731882321F00E94B9317C0103C0EE2481
:104DF000EA94FE2CC7010196039708F0EFC4E4EE95
:104E0000F2E0819191918017910709F4E7C423E0C2
:104E1000E433F207B1F717FDE1C40E945F8FD02E93
:104E200060E0802F0E948C653FEFE316F30631F0BF
:104E3000EA94EF2871F401E010E00DC0802F0E9489
:104E40004CCE31E020E0892B09F030E0032F122F07
:104E500002C000E010E08D2D0E944CCE801791071B
:104E600009F4BCC40E94B08BF6CF83E50E94773171
:104E7000882319F00E9478CB02C084E091E099A3C6
:104E800088A380E50E947731882349F00E9478CB7F
:104E9000893853E1950728F088E893E102C088EE4D
:104EA00093E09A838983BE01605E7F4FCE010196B5
:104EB0000E94DD8493C485E40E947731811110C083
:104EC00080E50E947731882399F00E94D131609368
:104ED000120270931302809314029093150208C07B
:104EE0000E94B931181619065CF7E0EBFCE090C09F
:104EF00089E40E947731882381F00E94D1312CE926
:104F000033E549E45EE30E9471E160932A02709305
:104F10002B0280932C0290932D0284E40E9477311F
:104F2000882381F00E94D1312CE933E549E45EE326
:104F30000E94F6D9609316027093170280931802AC
:104F4000909319020E94A77DEAE2F5E184918F0116
:104F50000F5F1F4F882321F00E947E38F801F6CFA3
:104F6000E4EBF5E084918F010F5F1F4F882321F060
:104F70000E947E38F801F6CF609112027091130200
:104F8000809114029091150242E00E94BB3DE0EB3B
:104F9000F5E084918F010F5F1F4F882321F00E945D
:104FA0007E38F801F6CF2CE933E549E45EE3609101
:104FB0002A0270912B0280912C0290912D020E9466
:104FC000F6D942E00E94BB3DECEAF5E084918F0106
:104FD0000F5F1F4F882321F00E947E38F801F6CF23
:104FE0002CE933E549E45EE3609116027091170203
:104FF00080911802909119020E9471E142E00E9492
:10500000BB3D8AE00E947E38E9C30E947E38F801E9
:1050100084918F010F5F1F4F8111F7CF00ED13E0D7
:10502000D8018D918D01882309F41FCB0E947E3811
:10503000F7CF83E50E947731082F8823A1F00E94E3
:10504000D1316093CE027093CF028093D0029093BF
:10505000D10211E020E030E0A9010E940CE18111B1
:1050600010E01093751380E50E947731182F882384
:10507000C1F020E030E0A9016091CE027091CF0232
:105080008091D0029091D1020E940CE1882331F0EE
:105090000E948A3111E0811101C010E01093751354
:1050A0009DC301119BC3EAE2F5E184918F010F5F7B
:1050B0001F4F882321F00E947E38F801F6CF80919F
:1050C0007513811103C06CEC73E002C06DE774E0EE
:1050D0008DEC95E00E94C03920E030E040E05FE3D5
:1050E0006091CE027091CF028091D0029091D10256
:1050F0000E940AD90E9467DA8CEB95E00E94683D15
:10510000E8EBF5E084918F010F5F1F4F882309F4CE
:1051100065C30E947E38F801F5CF85E40E9477319F
:10512000882321F00E94B9317C0102C0E12CF12CCE
:1051300083E40E947731882339F00E94B931EA96DE
:105140009FAF8EAFEA9706C0E5E0F0E0EA96FFAFCA
:10515000EEAFEA9785E50E947731882341F00E94FF
:105160008A31F1E0AF96FFAFAF97811103C0AF96E0
:105170001FAEAF9783E50E947731882379F00E94B4
:10518000D13128966FAF28972C967FAF2C976096D9
:105190008FAF609761969FAF619710C028961FAE42
:1051A00028972C961FAE2C97F7FC0EC026E1609630
:1051B0002FAF609733E461963FAF6197E114F1043C
:1051C00059F41092900408C04CE860964FAF609775
:1051D00052E461965FAF61971092990D1092980D0D
:1051E0000E9400664B015C01EF2819F401EE13E008
:1051F0000EC004EF13E0D8018D918D01882319F0C2
:105200000E947E38F8CF8AE00E947E38E7C2F8011B
:1052100081918F01882319F00E947E38F8CF8AE0AF
:105220000E947E380E94B8788FE78093BE0981E0A3
:105230008093BA02E4968CAE9DAEAEAEBFAEE4975C
:10524000EE968CAE9DAEAEAEBFAEEE9765961FAE3F
:105250006597F0E46796FFAF67972CE168962FAFEC
:10526000689736E469963FAF69976B961FAE6B9768
:105270006F961FAE6F97A1961FAEA197A5961FAE12
:10528000A597AE961CAE1DAE1EAE1FAEAE97AA96EB
:105290001CAE1DAE1EAE1FAEAA97C12CD12C76013E
:1052A000FFE74F2E512C612C712C8FE790E0A0E08E
:1052B000B0E027968CAF9DAFAEAFBFAF2797E89613
:1052C0001CAE1DAE1EAE1FAEE89791E0E0969FAFFC
:1052D000E09764961FAE1EAE649710E000E0312C9C
:1052E000212C8091BA02882309F4D3C10E94006660
:1052F00023966CAF7DAF8EAF9FAF23978091BD0992
:10530000882309F4D1C00E94897A10915B0A009128
:105310005C0A30905D0A20905E0A212F302F432DC9
:10532000522D6B966FAD6B976F967FAD6F97A19671
:105330008FADA197A5969FADA5970E9452DB181639
:1053400064F06B961FAF6B976F960FAF6F97A19638
:105350003FAEA197A5962FAEA597212F302F432DB5
:10536000522D65966FAD659767967FAD6797689686
:105370008FAD689769969FAD69970E940CE187FD94
:105380000CC065961FAF659767960FAF67976896D5
:105390003FAE689769962FAE6997E096AFADE097FC
:1053A00028962FAD28972C963FAD2C9760964FAD41
:1053B000609761965FAD6197612F702F832D922D5D
:1053C000AA2309F455C00E9452DB18160CF06CC0D9
:1053D00023964CAD5DAD6EAD7FAD2397481959094D
:1053E0006A097B09DB01CA0188589341A109B10907
:1053F000B7FD5AC027968CAD9DADAEADBFAD27971A
:1054000084199509A609B709B595A7959795879524
:105410008093BE09E8964CAF5DAF6EAF7FAFE89763
:105420002896BFAD28976B96BFAF6B972C96EFADC4
:105430002C976F96EFAF6F976096FFAD6097A19630
:10544000FFAFA19761962FAD6197A5962FAFA59756
:1054500023968CAD9DADAEADBFAD2397E4968CAFDA
:105460009DAFAEAFBFAFE497E0961FAEE0971CC014
:105470000E940CE187FF18C023968CAD9DADAEADA8
:10548000BFAD2397E4962CAD3DAD4EAD5FADE49737
:10549000821B930BA40BB50BAC01BD0148585341C3
:1054A0006109710977FF03C320E030E040EA51E46D
:1054B00028966FAD28972C967FAD2C9760968FAD70
:1054C000609761969FAD61970E940AD99B01AC01DC
:1054D000612F702F832D922D0E9452DB18166CF4D1
:1054E000EAE9F6E084918F010F5F1F4F882309F4EA
:1054F00075C10E947E38F801F5CF80E398EFAFEFD9
:10550000BFEFEE962CAD3DAD4EAD5FADEE97821B7D
:10551000930BA40BB50B23962CAD3DAD4EAD5FADFB
:105520002397820F931FA41FB51FB7FD11C00E94C0
:10553000ECA28AE00E947E3823968CAD9DADAEAD84
:10554000BFAD2397EE968CAF9DAFAEAFBFAFEE97DA
:1055500023968CAD9DADAEADBFAD2397880F991F3F
:10556000AA1FBB1FE4962CAD3DAD4EAD5FADE497D9
:10557000821B930BA40BB50B88199909AA09BB09C7
:1055800081389F44A241B10568F0ECE7F6E08491D0
:105590008F010F5F1F4F882309F420C10E947E38BE
:1055A000F801F5CF64964EAD5FAD6497EA968EAD87
:1055B0009FADEA97841795070CF068C0EFE1F6E01D
:1055C00084918F010F5F1F4F882321F00E947E3846
:1055D000F801F6CFB701A6018AE096E00E94553F98
:1055E0008AE00E947E38AA964CAD5DAD6EAD7FAD6F
:1055F000AA9785EF95E00E94553F8AE00E947E3889
:10560000AE964CAD5DAD6EAD7FADAE9780EE95E0E4
:105610000E94553F8AE00E947E38AF969FADAF97BB
:10562000992309F4DBC0C0921202D0921302E092D7
:105630001402F09215022CE933E549E45EE3AA96E0
:105640006CAD7DAD8EAD9FADAA970E9471E1609368
:105650002A0270932B0280932C0290932D022CE946
:1056600033E549E45EE3AE966CAD7DAD8EAD9FADA6
:10567000AE970E94F6D9609316027093170280933A
:105680001802909319020E94A77DA8C00E94FF6B88
:1056900028CE8091BA028111A1C00E94B8789EC024
:1056A0000E945F8F9BC080E08BD598C00E942EA087
:1056B00095C00E94DCAE92C00E94B0AB8FC0EAE2FF
:1056C000F5E184918F010F5F1F4F882321F00E9425
:1056D0007E38F801F6CFE1E2F7E084918F010F5FA9
:1056E0001F4F882311F40C9404230E947E38F80184
:1056F000F4CFE9E1F7E084918F010F5F1F4F88231A
:1057000021F00E947E38F801F6CF6CEE7FEF8FEF2C
:105710009FEF0E94673A80E20E947E38E1E1F7E065
:1057200084918F010F5F1F4F882321F00E947E38E4
:10573000F801F6CF64E170E080E090E00E94673A03
:105740000C9435234091B7075091B8076091B90781
:105750007091BA078EE097E00E94553F0C94352374
:1057600081E080932F021092CA0783E5C0D5882379
:1057700009F426C3CFD5811131C022C3F22E209364
:105780009104EAE2F5E184918F010F5F1F4F8823B6
:1057900021F00E947E38F801F6CFEAE2F7E084912A
:1057A0008F010F5F1F4F882321F00E947E38F80180
:1057B000F6CF6F2D70E080E090E00E94673A8AE0BB
:1057C0000E947E380BC080E00AC0B7E0EB16F104FF
:1057D00009F03BC01093EA070093E90781E01092BB
:1057E000990D1092980D811134C00C94031484917A
:1057F0008F010F5F1F4F882321F00E947E38F80130
:10580000F6CFEFE3F7E084918F010F5F1F4F8823FE
:1058100021F00E947E38F801F6CF00919904109192
:105820009A04D8018D918D01882319F00E947E3849
:10583000F8CFECE3F7E084918F010F5F1F4F8823CF
:1058400041F00E947E38F801F6CF1092990D109227
:10585000980D0E942FCBB7C20E9485CBAB01BC0133
:105860004093890D50938A0D60938B0D70938C0D2E
:1058700088ED9CE00E9407A4B1CF0E9485CBAB01CC
:10588000BC014093890D50938A0D60938B0D7093EA
:105890008C0D88ED9CE00E9407A40C94DE1B18A2DE
:1058A00019A21AA21BA2EFE2F4E084918F010F5F0C
:1058B0001F4F882321F00E947E38F801F6CFE6E2E0
:1058C000F4E084918F010F5F1F4F882321F00E9425
:1058D0007E38F801F6CF6091F00A7091F10A80E00D
:1058E00090E04AE00E94E639E9E1F4E084918F011A
:1058F0000F5F1F4F882321F00E947E38F801F6CFFA
:105900006091F20A7091F30A80E090E04AE00E9410
:10591000E639EEE0F4E084918F010F5F1F4F88239A
:1059200021F00E947E38F801F6CF6091F00A709164
:10593000F10A8091F20A9091F30A681B790B809129
:10594000E20A9091E30A019721E030E0029710F01B
:1059500020E030E0621B730B80E090E04AE00E94A0
:10596000E6398AE00E947E38E6E0F4E084918F0117
:105970000F5F1F4F882321F00E947E38F801F6CF79
:105980008091F40A9091F50AA091F60AB091F70A75
:1059900088A399A3AAA3BBA3BE016F5F7F4FCE01CB
:1059A0008096E9D6E9EFF3E084918F010F5F1F4FF6
:1059B000811106C0AE014F5F5F4F7A018A0104C0BA
:1059C0000E947E38F801F0CFD8018D918D01882397
:1059D00019F00E947E38F8CF8091F80A9091F90A68
:1059E000A091FA0AB091FB0A88A399A3AAA3BBA32A
:1059F000BE016F5F7F4FCE018096BDD6E9EEF3E02A
:105A000084918F010F5F1F4F882321F00E947E3801
:105A1000F801F6CFF70181917F01882319F00E94E8
:105A20007E38F8CF8AE00E947E38E1EEF3E0849180
:105A30008F010F5F1F4F882321F00E947E38F801ED
:105A4000F6CFE1EDF3E084918F010F5F1F4F8823C4
:105A500021F00E947E38F801F6CF20E030E04AE7DE
:105A600054E46091FC0A7091FD0A8091FE0A9091C5
:105A7000FF0A0E94F6D942E00E94BB3DEFECF3E042
:105A800084918F010F5F1F4F882321F00E947E3881
:105A9000F801F6CF8AE00E947E38A0CE82EE9AE02E
:105AA0000E9479969BCE0E94DF5A0C94D72364966D
:105AB0004EAD5FAD6497141615060CF045C1E8961F
:105AC0008CAC9DACAEACBFACE897880E991EAA1EFC
:105AD000BB1EE8962CAD3DAD4EAD5FADE897281BE3
